{
  "_format": "hh-sol-artifact-1",
  "contractName": "MecaHostContract",
  "sourceName": "contracts/HostContract.sol",
  "abi": [
    {
      "inputs": [
        {
          "internalType": "uint256",
          "name": "hostRegisterFee",
          "type": "uint256"
        },
        {
          "internalType": "uint256",
          "name": "hostInitialStake",
          "type": "uint256"
        },
        {
          "internalType": "uint256",
          "name": "failedTaskPenalty",
          "type": "uint256"
        },
        {
          "internalType": "uint256",
          "name": "taskRegisterFee",
          "type": "uint256"
        }
      ],
      "stateMutability": "nonpayable",
      "type": "constructor"
    },
    {
      "stateMutability": "payable",
      "type": "fallback"
    },
    {
      "inputs": [],
      "name": "FAILED_TASK_PENALTY",
      "outputs": [
        {
          "internalType": "uint256",
          "name": "",
          "type": "uint256"
        }
      ],
      "stateMutability": "view",
      "type": "function"
    },
    {
      "inputs": [],
      "name": "HOST_INITIAL_STAKE",
      "outputs": [
        {
          "internalType": "uint256",
          "name": "",
          "type": "uint256"
        }
      ],
      "stateMutability": "view",
      "type": "function"
    },
    {
      "inputs": [],
      "name": "HOST_REGISTER_FEE",
      "outputs": [
        {
          "internalType": "uint256",
          "name": "",
          "type": "uint256"
        }
      ],
      "stateMutability": "view",
      "type": "function"
    },
    {
      "inputs": [],
      "name": "TASK_REGISTER_FEE",
      "outputs": [
        {
          "internalType": "uint256",
          "name": "",
          "type": "uint256"
        }
      ],
      "stateMutability": "view",
      "type": "function"
    },
    {
      "inputs": [],
      "name": "addStake",
      "outputs": [],
      "stateMutability": "payable",
      "type": "function"
    },
    {
      "inputs": [
        {
          "internalType": "bytes32",
          "name": "ipfsSha256",
          "type": "bytes32"
        },
        {
          "internalType": "uint256",
          "name": "blockTimeout",
          "type": "uint256"
        },
        {
          "internalType": "uint256",
          "name": "fee",
          "type": "uint256"
        }
      ],
      "name": "addTask",
      "outputs": [],
      "stateMutability": "payable",
      "type": "function"
    },
    {
      "inputs": [],
      "name": "clear",
      "outputs": [],
      "stateMutability": "nonpayable",
      "type": "function"
    },
    {
      "inputs": [],
      "name": "deleteHost",
      "outputs": [],
      "stateMutability": "nonpayable",
      "type": "function"
    },
    {
      "inputs": [
        {
          "internalType": "bytes32",
          "name": "ipfsSha256",
          "type": "bytes32"
        }
      ],
      "name": "deleteTask",
      "outputs": [],
      "stateMutability": "nonpayable",
      "type": "function"
    },
    {
      "inputs": [
        {
          "internalType": "address",
          "name": "hostAddress",
          "type": "address"
        }
      ],
      "name": "getHostBlockTimeoutLimit",
      "outputs": [
        {
          "internalType": "uint256",
          "name": "",
          "type": "uint256"
        }
      ],
      "stateMutability": "view",
      "type": "function"
    },
    {
      "inputs": [
        {
          "internalType": "address",
          "name": "hostAddress",
          "type": "address"
        }
      ],
      "name": "getHostPublicKey",
      "outputs": [
        {
          "internalType": "bytes32[2]",
          "name": "",
          "type": "bytes32[2]"
        }
      ],
      "stateMutability": "view",
      "type": "function"
    },
    {
      "inputs": [
        {
          "internalType": "address",
          "name": "hostAddress",
          "type": "address"
        }
      ],
      "name": "getHostStake",
      "outputs": [
        {
          "internalType": "uint256",
          "name": "",
          "type": "uint256"
        }
      ],
      "stateMutability": "view",
      "type": "function"
    },
    {
      "inputs": [],
      "name": "getHosts",
      "outputs": [
        {
          "components": [
            {
              "internalType": "address payable",
              "name": "owner",
              "type": "address"
            },
            {
              "internalType": "bytes32[2]",
              "name": "eccPublicKey",
              "type": "bytes32[2]"
            },
            {
              "internalType": "uint256",
              "name": "blockTimeoutLimit",
              "type": "uint256"
            },
            {
              "internalType": "uint256",
              "name": "stake",
              "type": "uint256"
            }
          ],
          "internalType": "struct MecaHostAbstractContract.Host[]",
          "name": "",
          "type": "tuple[]"
        }
      ],
      "stateMutability": "view",
      "type": "function"
    },
    {
      "inputs": [
        {
          "internalType": "address",
          "name": "hostAddress",
          "type": "address"
        },
        {
          "internalType": "bytes32",
          "name": "ipfsSha256",
          "type": "bytes32"
        }
      ],
      "name": "getTaskBlockTimeout",
      "outputs": [
        {
          "internalType": "uint256",
          "name": "",
          "type": "uint256"
        }
      ],
      "stateMutability": "view",
      "type": "function"
    },
    {
      "inputs": [
        {
          "internalType": "address",
          "name": "hostAddress",
          "type": "address"
        },
        {
          "internalType": "bytes32",
          "name": "ipfsSha256",
          "type": "bytes32"
        }
      ],
      "name": "getTaskFee",
      "outputs": [
        {
          "internalType": "uint256",
          "name": "",
          "type": "uint256"
        }
      ],
      "stateMutability": "view",
      "type": "function"
    },
    {
      "inputs": [
        {
          "internalType": "uint256",
          "name": "",
          "type": "uint256"
        }
      ],
      "name": "hosts",
      "outputs": [
        {
          "internalType": "address payable",
          "name": "owner",
          "type": "address"
        },
        {
          "internalType": "uint256",
          "name": "blockTimeoutLimit",
          "type": "uint256"
        },
        {
          "internalType": "uint256",
          "name": "stake",
          "type": "uint256"
        }
      ],
      "stateMutability": "view",
      "type": "function"
    },
    {
      "inputs": [
        {
          "internalType": "address",
          "name": "",
          "type": "address"
        }
      ],
      "name": "hostsIndex",
      "outputs": [
        {
          "internalType": "uint32",
          "name": "",
          "type": "uint32"
        }
      ],
      "stateMutability": "view",
      "type": "function"
    },
    {
      "inputs": [],
      "name": "owner",
      "outputs": [
        {
          "internalType": "address payable",
          "name": "",
          "type": "address"
        }
      ],
      "stateMutability": "view",
      "type": "function"
    },
    {
      "inputs": [
        {
          "internalType": "address",
          "name": "hostAddress",
          "type": "address"
        },
        {
          "internalType": "address",
          "name": "userAddress",
          "type": "address"
        }
      ],
      "name": "penaltyForFailedTask",
      "outputs": [],
      "stateMutability": "nonpayable",
      "type": "function"
    },
    {
      "inputs": [
        {
          "internalType": "bytes32[2]",
          "name": "publicKey",
          "type": "bytes32[2]"
        },
        {
          "internalType": "uint256",
          "name": "blockTimeoutLimit",
          "type": "uint256"
        }
      ],
      "name": "registerAsHost",
      "outputs": [],
      "stateMutability": "payable",
      "type": "function"
    },
    {
      "inputs": [],
      "name": "schedulerContractAddress",
      "outputs": [
        {
          "internalType": "address",
          "name": "",
          "type": "address"
        }
      ],
      "stateMutability": "view",
      "type": "function"
    },
    {
      "inputs": [
        {
          "internalType": "address",
          "name": "newSchedulerContractAddress",
          "type": "address"
        }
      ],
      "name": "setSchedulerContractAddress",
      "outputs": [],
      "stateMutability": "nonpayable",
      "type": "function"
    },
    {
      "inputs": [
        {
          "internalType": "uint256",
          "name": "newBlockTimeoutLimit",
          "type": "uint256"
        }
      ],
      "name": "updateBlockTimeoutLimit",
      "outputs": [],
      "stateMutability": "nonpayable",
      "type": "function"
    },
    {
      "inputs": [
        {
          "internalType": "bytes32[2]",
          "name": "newPublicKey",
          "type": "bytes32[2]"
        }
      ],
      "name": "updatePublicKey",
      "outputs": [],
      "stateMutability": "nonpayable",
      "type": "function"
    },
    {
      "inputs": [
        {
          "internalType": "bytes32",
          "name": "ipfsSha256",
          "type": "bytes32"
        },
        {
          "internalType": "uint256",
          "name": "newBlockTimeout",
          "type": "uint256"
        }
      ],
      "name": "updateTaskBlockTimeout",
      "outputs": [],
      "stateMutability": "nonpayable",
      "type": "function"
    },
    {
      "inputs": [
        {
          "internalType": "bytes32",
          "name": "ipfsSha256",
          "type": "bytes32"
        },
        {
          "internalType": "uint256",
          "name": "newFee",
          "type": "uint256"
        }
      ],
      "name": "updateTaskFee",
      "outputs": [],
      "stateMutability": "nonpayable",
      "type": "function"
    },
    {
      "inputs": [
        {
          "internalType": "uint256",
          "name": "amount",
          "type": "uint256"
        }
      ],
      "name": "widthdrawStake",
      "outputs": [],
      "stateMutability": "nonpayable",
      "type": "function"
    },
    {
      "stateMutability": "payable",
      "type": "receive"
    }
  ],
  "bytecode": "0x610100346100cf57601f61117238819003918201601f19168301916001600160401b038311848410176100d4578084926080946040528339810103126100cf57805190602081015190606060408201519101519160018060a01b0319933285600054161760005560805260c05260e05260a0526001541660015560405161108790816100eb8239608051816102a0015260a0518181816101e1015281816104190152610d45015260c051818181610365015281816109480152610ba0015260e0518181816103e2015261088f0152f35b600080fd5b634e487b7160e01b600052604160045260246000fdfe608060409080825260049182361015610026575b505050361561002157600080fd5b600080fd5b600092833560e01c92836304beddcf14610d2e57508263052b12d214610b8557826320a1cc7b14610b5c57826326638d8714610afc5782633735b3c614610aac578263391d0b751461096b5782633a2dd2ce1461093057826352efea6e1461090857826357e1282e1461084657826358f644981461081a5782635a627dbc146107d65782635cea4b5f146105f9578263603d0299146105ab5782637c74e2ec1461058a5782638da5cb5b14610562578263906362301461052b5782639e89c6f3146104fa5782639f6e52ce146104d7578263a13f89f914610405578263a91a2182146103ca578263b0ea53401461038b578263b23e7a72146102c3578263b6b58dca14610288578263db88497c1461025f578263e24edcab1461022b578263e64f15a2146101aa57505063e9393c8614610161578080610013565b346101a75760203660031901126101a75761017a610d7e565b81546001600160a01b0391906101939083163314610e15565b1660018060a01b0319600154161760015580f35b80fd5b90915034610227576020366003190112610227573383526002602052818320903583526020528160018282208281550155818080807f000000000000000000000000000000000000000000000000000000000000000081811561021e575b3390f115610214575080f35b51903d90823e3d90fd5b506108fc610208565b8280fd5b83823461025b57602036600319011261025b578060209161025261024d610d7e565b610ef6565b01519051908152f35b5080fd5b83823461025b578160031936011261025b5760015490516001600160a01b039091168152602090f35b83823461025b578160031936011261025b57602090517f00000000000000000000000000000000000000000000000000000000000000008152f35b90915034610227576020366003190112610227578035908160606102e633610ef6565b015110158061034c575b15610318575082808083610305829533610f42565b81811561021e573390f115610214575080f35b606490602084519162461bcd60e51b8352820152600e60248201526d125b9d985b1a5908185b5bdd5b9d60921b6044820152fd5b5061036382606061035c33610ef6565b0151610e4e565b7f000000000000000000000000000000000000000000000000000000000000000011156102f0565b83823461025b57602036600319011261025b5760209163ffffffff9082906001600160a01b036103b9610d7e565b168152600385522054169051908152f35b83823461025b578160031936011261025b57602090517f00000000000000000000000000000000000000000000000000000000000000008152f35b9091506060366003190112610227578035907f00000000000000000000000000000000000000000000000000000000000000003403610498575081519161044b83610dfa565b6024358352602083019060443582523385526002602052808520838652602052808520546104945760019233865260026020528186209086526020528420925183555191015580f35b8480fd5b606490602084519162461bcd60e51b83528201526019602482015278135a5b9a5b5d5b481d185cdac8199959481c995c5d5a5c9959603a1b6044820152fd5b83823461025b57602036600319011261025b57602090606061025261024d610d7e565b83823461025b578060031936011261025b5760209061052361051a610d7e565b60243590610f9c565b519051908152f35b83903461025b57602036600319011261025b57600361055961055461054f33610fef565b610e71565b610d94565b50913591015580f35b83823461025b578160031936011261025b57905490516001600160a01b039091168152602090f35b83823461025b578060031936011261025b576020908161025261051a610d7e565b9150346102275736600319011261025b573660441161025b576105d361055461054f33610fef565b5090825b600281106105e3578380f35b60019060208335930192828286010155016105d7565b909150346102275782600319360112610227578161061633610ef6565b015161079f5761062533610fef565b908061063361055484610e71565b500154815490926000199182810190811161078c5761065190610d94565b5061065e61055483610e71565b91909161077a578085918303610734575b50505061067e61055482610e71565b5060018060a01b039054168652600360205284862063ffffffff8019921682825416179055338652848620908154169055815480156107215701906106c282610d94565b61070f57858155859291906003810160018083015b828110610703578689818080808d8c8c83818e828f5501555581811561021e573390f115610214575080f35b958655889581016106d7565b634e487b7160e01b8652858252602486fd5b634e487b7160e01b865260318352602486fd5b805483546001600160a01b0319166001600160a01b039190911617835581906107636001808301908601610f64565b60038101546003850155015491015538838161066f565b634e487b7160e01b8852878552602488fd5b634e487b7160e01b875260118452602487fd5b6020606492519162461bcd60e51b83528201526012602482015271486f73742063616e20676574207461736b7360701b6044820152fd5b83908160031936011261025b57806107f361055461054f33610fef565b500180549134830180931161080757505580f35b634e487b7160e01b845260119052602483fd5b83823461025b57600161082c36610d68565b929033855260026020528185209085526020528320015580f35b90915034610227578160031936011261022757610861610d7e565b906024356001600160a01b038181169291839003610904576001541633036108d057508380809381936108b57f00000000000000000000000000000000000000000000000000000000000000008093610f42565b8282156108c7575bf115610214575080f35b506108fc6108bd565b606490602085519162461bcd60e51b8352820152600e60248201526d5363686564756c6572206f6e6c7960901b6044820152fd5b8580fd5b83346101a757806003193601126101a75761092d60018060a01b038254163314610e15565b80f35b83823461025b578160031936011261025b57602090517f00000000000000000000000000000000000000000000000000000000000000008152f35b83823461025b578160031936011261025b5782546001600160401b0391828211610a99578051926005929081841b603f01601f1916850190811185821017610a8657829596949392528083526020918284018095885283882088915b848310610a5e5750505050508351938185019282865251809352808501939580915b8483106109f65786860387f35b909192939484885160018060a01b038151168352818101518284019086915b60028310610a485750505083810151606080850191909152015160808301529097019660a00194939260010191906109e9565b8151815289946001909301929182019101610a15565b8386600192610a72859d9c999a9b9d610e87565b8152019201920191909896959497986109c7565b634e487b7160e01b865260418752602486fd5b634e487b7160e01b845260418552602484fd5b9150346102275760203660031901126102275781359282548410156101a75750610ad7606093610d94565b509060018060a01b038254169260038301549201549181519384526020840152820152f35b5082346101a75760208060031936011261025b57906020610b32610b1e610d7e565b858051610b2a81610dfa565b369037610ef6565b01518351929091835b60028210610b47578585f35b82806001928651815201940191019092610b3b565b83823461025b57610b6c36610d68565b9190338452600260205281842090845260205282205580f35b915060603660031901126102275760449136604411610d2a577f00000000000000000000000000000000000000000000000000000000000000003410610cef57815190610bd182610dc9565b338252825193610be085610dfa565b81855b828210610cdf57505050602091602081019485528381016044358152606082019034825260018060a01b03808451168952600360205263ffffffff9586888b205416610cdb57855491600160401b831015610cc857610c49600193600181018955610d94565b969096610cb6575186546001600160a01b0319169116908117865598518694939291908b5b60028110610ca05750505050516003840155519101555416918352600360205282209063ffffffff1982541617905580f35b8151888201850155889650908201908301610c6e565b634e487b7160e01b8c528b885260248cfd5b634e487b7160e01b8b526041875260248bfd5b8980fd5b8135815260209182019101610be3565b6020606492519162461bcd60e51b83528201526016602482015275135a5b9a5b5d5b481cdd185ad9481c995c5d5a5c995960521b6044820152fd5b8380fd5b84903461025b578160031936011261025b576020907f00000000000000000000000000000000000000000000000000000000000000008152f35b6040906003190112610021576004359060243590565b600435906001600160a01b038216820361002157565b600454811015610db35760046000526005602060002091020190600090565b634e487b7160e01b600052603260045260246000fd5b608081019081106001600160401b03821117610de457604052565b634e487b7160e01b600052604160045260246000fd5b604081019081106001600160401b03821117610de457604052565b15610e1c57565b60405162461bcd60e51b815260206004820152600a6024820152694f776e6572206f6e6c7960b01b6044820152606490fd5b91908203918211610e5b57565b634e487b7160e01b600052601160045260246000fd5b63ffffffff9081166000190191908211610e5b57565b90604051610e9481610dc9565b82546001600160a01b031681526040519092839160018083016000835b60028210610ee2575050505060609181610ecc600493610dfa565b6020850152600381015460408501520154910152565b825481529183019190830190602001610eb1565b610f3961055461054f610f3f9360006060604051610f1381610dc9565b828152604051610f2281610dfa565b604036823760208201528260408201520152610fef565b50610e87565b90565b6004610f5661055461054f610f6094610fef565b5001918254610e4e565b9055565b90808214610f9857908154906000915b60028310610f825750505050565b6001809194019283549481840155019192610f74565b5050565b6040916020918351610fad81610dfa565b600080825293018390526001600160a01b0316825260026020908152838320918352522060405190600190610fe183610dfa565b805483520154602082015290565b6001600160a01b031660009081526003602052604090205463ffffffff1680156110165790565b60405162461bcd60e51b8152602060048201526013602482015272121bdcdd08191bd95cc81b9bdd08195e1a5cdd606a1b6044820152606490fdfea2646970667358221220eea09deb8a1aefd9c334bcc9631351af85b33b4d6c314cad251964d2b8c9416e64736f6c63430008180033",
  "linkReferences": {},
  "deployedLinkReferences": {}
}