{
  "_format": "hh-sol-artifact-1",
  "contractName": "MecaDaoContract",
  "sourceName": "contracts/MecaContract.sol",
  "abi": [
    {
      "inputs": [],
      "stateMutability": "nonpayable",
      "type": "constructor"
    },
    {
      "stateMutability": "payable",
      "type": "fallback"
    },
    {
      "inputs": [],
      "name": "clear",
      "outputs": [],
      "stateMutability": "nonpayable",
      "type": "function"
    },
    {
      "inputs": [],
      "name": "getSchedulerContract",
      "outputs": [
        {
          "internalType": "address",
          "name": "",
          "type": "address"
        }
      ],
      "stateMutability": "view",
      "type": "function"
    },
    {
      "inputs": [],
      "name": "owner",
      "outputs": [
        {
          "internalType": "address payable",
          "name": "",
          "type": "address"
        }
      ],
      "stateMutability": "view",
      "type": "function"
    },
    {
      "inputs": [
        {
          "internalType": "address",
          "name": "newSchedulerContract",
          "type": "address"
        }
      ],
      "name": "setSchedulerContract",
      "outputs": [],
      "stateMutability": "nonpayable",
      "type": "function"
    },
    {
      "stateMutability": "payable",
      "type": "receive"
    }
  ],
  "bytecode": "0x6080806040523461002f5760018060a01b0319338160005416176000556001541660015561025990816100358239f35b600080fdfe6040608081526004361015610020575b50361561001b57600080fd5b600080fd5b600090813560e01c8063521473b01461019657806352efea6e146100ab57806363f609711461008357638da5cb5b14610059575061000f565b3461007f578160031936011261007f57905490516001600160a01b039091168152602090f35b5080fd5b503461007f578160031936011261007f5760015490516001600160a01b039091168152602090f35b503461007f578160031936011261007f578180808060018060a01b038154166100d58133146101ea565b600180546001600160a01b031916905547905af13d156101915767ffffffffffffffff3d81811161017d57835191601f8201601f19908116603f011683019081118382101761016957845281528360203d92013e5b15610133575080f35b5162461bcd60e51b815260206004820152601060248201526f2a3930b739b332b9103330b4b632b21760811b6044820152606490fd5b634e487b7160e01b86526041600452602486fd5b634e487b7160e01b85526041600452602485fd5b61012a565b82346101e75760203660031901126101e7576004356001600160a01b03818116918290036101e3576101cc9083541633146101ea565b600180546001600160a01b03191691909117905580f35b8280fd5b80fd5b156101f157565b60405162461bcd60e51b815260206004820152600a6024820152694f776e6572206f6e6c7960b01b6044820152606490fdfea26469706673582212204d1f8375c0ad819f5002eac0329eaece68c32e964ee1b1b391da9dbaf2d86c8864736f6c63430008180033",
  "linkReferences": {},
  "deployedLinkReferences": {}
}