{
  "_format": "hh-sol-artifact-1",
  "contractName": "MecaSchedulerContract",
  "sourceName": "contracts/SchedulerContract.sol",
  "abi": [
    {
      "inputs": [
        {
          "internalType": "uint256",
          "name": "schedulerFee",
          "type": "uint256"
        }
      ],
      "stateMutability": "nonpayable",
      "type": "constructor"
    },
    {
      "stateMutability": "payable",
      "type": "fallback"
    },
    {
      "inputs": [],
      "name": "SCHEDULER_FEE",
      "outputs": [
        {
          "internalType": "uint256",
          "name": "",
          "type": "uint256"
        }
      ],
      "stateMutability": "view",
      "type": "function"
    },
    {
      "inputs": [],
      "name": "clear",
      "outputs": [],
      "stateMutability": "nonpayable",
      "type": "function"
    },
    {
      "inputs": [
        {
          "internalType": "bytes32",
          "name": "taskId",
          "type": "bytes32"
        }
      ],
      "name": "finishTask",
      "outputs": [],
      "stateMutability": "nonpayable",
      "type": "function"
    },
    {
      "inputs": [],
      "name": "getHostContract",
      "outputs": [
        {
          "internalType": "address",
          "name": "",
          "type": "address"
        }
      ],
      "stateMutability": "view",
      "type": "function"
    },
    {
      "inputs": [
        {
          "internalType": "address",
          "name": "hostAddress",
          "type": "address"
        }
      ],
      "name": "getHostFirstAvailableBlock",
      "outputs": [
        {
          "internalType": "uint256",
          "name": "",
          "type": "uint256"
        }
      ],
      "stateMutability": "view",
      "type": "function"
    },
    {
      "inputs": [],
      "name": "getTaskContract",
      "outputs": [
        {
          "internalType": "address",
          "name": "",
          "type": "address"
        }
      ],
      "stateMutability": "view",
      "type": "function"
    },
    {
      "inputs": [],
      "name": "getTowerContract",
      "outputs": [
        {
          "internalType": "address",
          "name": "",
          "type": "address"
        }
      ],
      "stateMutability": "view",
      "type": "function"
    },
    {
      "inputs": [
        {
          "internalType": "address",
          "name": "towerAddress",
          "type": "address"
        }
      ],
      "name": "getTowerCurrentSize",
      "outputs": [
        {
          "internalType": "uint256",
          "name": "",
          "type": "uint256"
        }
      ],
      "stateMutability": "view",
      "type": "function"
    },
    {
      "inputs": [
        {
          "internalType": "address",
          "name": "",
          "type": "address"
        }
      ],
      "name": "hostsEndBlock",
      "outputs": [
        {
          "internalType": "uint256",
          "name": "",
          "type": "uint256"
        }
      ],
      "stateMutability": "view",
      "type": "function"
    },
    {
      "inputs": [],
      "name": "owner",
      "outputs": [
        {
          "internalType": "address payable",
          "name": "",
          "type": "address"
        }
      ],
      "stateMutability": "view",
      "type": "function"
    },
    {
      "inputs": [
        {
          "internalType": "bytes32",
          "name": "",
          "type": "bytes32"
        }
      ],
      "name": "runningTasks",
      "outputs": [
        {
          "internalType": "bytes32",
          "name": "ipfsSha256",
          "type": "bytes32"
        },
        {
          "internalType": "bytes32",
          "name": "inputHash",
          "type": "bytes32"
        },
        {
          "internalType": "uint256",
          "name": "size",
          "type": "uint256"
        },
        {
          "internalType": "address",
          "name": "towerAddress",
          "type": "address"
        },
        {
          "internalType": "address",
          "name": "hostAddress",
          "type": "address"
        },
        {
          "internalType": "address",
          "name": "owner",
          "type": "address"
        },
        {
          "internalType": "uint256",
          "name": "startBlock",
          "type": "uint256"
        },
        {
          "internalType": "uint256",
          "name": "blockTimeout",
          "type": "uint256"
        },
        {
          "components": [
            {
              "internalType": "uint256",
              "name": "tower",
              "type": "uint256"
            },
            {
              "internalType": "uint256",
              "name": "host",
              "type": "uint256"
            },
            {
              "internalType": "uint256",
              "name": "scheduler",
              "type": "uint256"
            },
            {
              "internalType": "uint256",
              "name": "task",
              "type": "uint256"
            },
            {
              "internalType": "uint256",
              "name": "insurance",
              "type": "uint256"
            }
          ],
          "internalType": "struct MecaSchedulerAbstractContract.RunningTaskFee",
          "name": "fee",
          "type": "tuple"
        }
      ],
      "stateMutability": "view",
      "type": "function"
    },
    {
      "inputs": [],
      "name": "schedulerFlag",
      "outputs": [
        {
          "internalType": "bool",
          "name": "",
          "type": "bool"
        }
      ],
      "stateMutability": "view",
      "type": "function"
    },
    {
      "inputs": [],
      "name": "schedulerNonce",
      "outputs": [
        {
          "internalType": "uint256",
          "name": "",
          "type": "uint256"
        }
      ],
      "stateMutability": "view",
      "type": "function"
    },
    {
      "inputs": [
        {
          "internalType": "address",
          "name": "towerAddress",
          "type": "address"
        },
        {
          "internalType": "address",
          "name": "hostAddress",
          "type": "address"
        },
        {
          "internalType": "bytes32",
          "name": "ipfsSha256",
          "type": "bytes32"
        },
        {
          "internalType": "bytes32",
          "name": "inputHash",
          "type": "bytes32"
        }
      ],
      "name": "sendTask",
      "outputs": [],
      "stateMutability": "payable",
      "type": "function"
    },
    {
      "inputs": [
        {
          "internalType": "address",
          "name": "newHostContract",
          "type": "address"
        }
      ],
      "name": "setHostContract",
      "outputs": [],
      "stateMutability": "nonpayable",
      "type": "function"
    },
    {
      "inputs": [
        {
          "internalType": "bool",
          "name": "newSchedulerFlag",
          "type": "bool"
        }
      ],
      "name": "setSchedulerFlag",
      "outputs": [],
      "stateMutability": "nonpayable",
      "type": "function"
    },
    {
      "inputs": [
        {
          "internalType": "address",
          "name": "newTaskContract",
          "type": "address"
        }
      ],
      "name": "setTaskContract",
      "outputs": [],
      "stateMutability": "nonpayable",
      "type": "function"
    },
    {
      "inputs": [
        {
          "internalType": "address",
          "name": "newTowerContract",
          "type": "address"
        }
      ],
      "name": "setTowerContract",
      "outputs": [],
      "stateMutability": "nonpayable",
      "type": "function"
    },
    {
      "inputs": [
        {
          "internalType": "address",
          "name": "",
          "type": "address"
        }
      ],
      "name": "towersSize",
      "outputs": [
        {
          "internalType": "uint256",
          "name": "",
          "type": "uint256"
        }
      ],
      "stateMutability": "view",
      "type": "function"
    },
    {
      "stateMutability": "payable",
      "type": "receive"
    }
  ],
  "bytecode": "0x60a0346100a157601f61112038819003918201601f19168301916001600160401b038311848410176100a6578084926020946040528339810103126100a1575160018060a01b031990328260005416176000556080528060015416600155806002541660025560035416600355600060045560ff196005541660055560405161106390816100bd823960805181818161062a015281816109030152610a820152f35b600080fd5b634e487b7160e01b600052604160045260246000fdfe6080806040526004361015610020575b50361561001b57600080fd5b600080fd5b60003560e01c90816277285b14610ec5575080630182d79e14610e8b5780630efda04f14610e62578063191a1fa514610e3f5780631b1fb71b146107695780632e9269151461072f5780634b95fb06146106e657806352efea6e146106be57806357de12a81461067857806366041a731461064d5780636735f2d614610612578063781d102a146102ed5780638c57c521146102a45780638da5cb5b1461027b578063a074f11e14610252578063abc1e7eb1461018d578063b5c0ca5a14610164578063b64d963d1461011b5763dce83940146100fd573861000f565b3461001b57600036600319011261001b576020600454604051908152f35b3461001b57602036600319011261001b57610134610efb565b6000546001600160a01b03919061014e9083163314610fcd565b1660018060a01b03196003541617600355600080f35b3461001b57600036600319011261001b576001546040516001600160a01b039091168152602090f35b3461001b57602036600319011261001b5760043560005260066020526101a060406000206080815491600181015490600281015460018060a01b0380600384015416908060048501541690600585015416916006850154936101f6600860078801549701610f69565b96604051998a5260208a0152604089015260608801528587015260a086015260c085015260e084015280516101008401526020810151610120840152604081015161014084015260608101516101608401520151610180820152f35b3461001b57600036600319011261001b576002546040516001600160a01b039091168152602090f35b3461001b57600036600319011261001b576000546040516001600160a01b039091168152602090f35b3461001b57602036600319011261001b576102bd610efb565b6000546001600160a01b0391906102d79083163314610fcd565b1660018060a01b03196002541617600255600080f35b3461001b5760208060031936011261001b5760043560405161030e81610f2c565b60008152600083820152600060408201526000606082015260006080820152600060a0820152600060c0820152600060e082015261010090816040519161035483610f11565b60008352600086840152600060408401526000606084015260006080840152015281600052600683526040600020906040519161039083610f2c565b805483526001810154858401526002810154604084015260018060a01b03938460038301541660608501908152858060048501541693608087019485526103fb6008836005840154169260a08a01938452600681015460c08b0152600781015460e08b015201610f69565b958701958652511633036105c25781600052600687526040600020918660036002850154940154166000526007885260406000209283549081039081116105ac578760009493859493859493859455835260068b5282600c6040822082815582600182015582600282015582600382015582600482015582600582015582600682015582600782015582600882015582600982015582600a82015582600b82015501555116865151908282156105a3575bf11561053f5760008080868194511688865101519082821561059a575bf11561053f576000808080608085510151818115610591575b3390f11561053f57838360025416925160246040518095819363f5108acf60e01b835260048301525afa91821561053f57600092610555575b50600093508392839260608493510151918391831561054b575b1690f11561053f57005b6040513d6000823e3d90fd5b6108fc9250610535565b8092508491943d831161058a575b61056d8183610f48565b8101031261001b575191818316830361001b57600092908361051b565b503d610563565b506108fc6104e2565b506108fc6104c9565b506108fc6104ac565b634e487b7160e01b600052601160045260246000fd5b60405162461bcd60e51b815260048101889052602260248201527f4f6e6c7920746865206f776e65722063616e2066696e69736820746865207461604482015261736b60f01b6064820152608490fd5b3461001b57600036600319011261001b5760206040517f00000000000000000000000000000000000000000000000000000000000000008152f35b3461001b57602036600319011261001b57602061067061066b610efb565b611006565b604051908152f35b3461001b57602036600319011261001b5760043580151580910361001b576106ab60018060a01b03600054163314610fcd565b60ff801960055416911617600555600080f35b3461001b57600036600319011261001b576106e460018060a01b03600054163314610fcd565b005b3461001b57602036600319011261001b576106ff610efb565b6000546001600160a01b0391906107199083163314610fcd565b1660018060a01b03196001541617600155600080f35b3461001b57602036600319011261001b576001600160a01b03610750610efb565b1660005260086020526020604060002054604051908152f35b608036600319011261001b5761077d610efb565b6024356001600160a01b038116900361001b5760ff6005541615610e0357600254604051636802756f60e11b8152604435600482015291906001600160a01b0316602083602481845afa92831561053f57600093610dce575b5091602060249360405194858092638b90363b60e01b825260443560048301525afa92831561053f57600093610d9a575b50600154604051639e89c6f360e01b81526001600160a01b0390911691906020818061083b60443560243560048401610fa5565b0381865afa90811561053f57600091610d68575b50600354604051636daed56f60e11b81526001600160a01b03868116600483015260248201889052604482018490529095911690602086606481855afa95861561053f57600096610d34575b50604051631f1d38bb60e21b815290602082806108c060443560243560048401610fa5565b0381895afa91821561053f57600092610d00575b50600a6108ea886108e58589610fc0565b610fc0565b0495610928876108e56109018b6108e5888c610fc0565b7f000000000000000000000000000000000000000000000000000000000000000090610fc0565b3403610ccd57604051630917c3e560e31b81526001600160a01b038316600482015293602090859060249082905afa93841561053f57600094610c98575b5060405163e24edcab60e01b8152602480356001600160a01b03166004830152909491602091869182905afa93841561053f57600094610c64575b506109ad602435611006565b936109c26109bb8787610fc0565b9143610fc0565b10610c155760018060a01b03821660005260076020526109e789604060002054610fc0565b11610bd457600454956040519560018060601b0319808460601b16602089015260243560601b16603488015260443560488801526064356068880152876088880152608887528660c08101106001600160401b0360c089011117610bbe5760c0870160405286516020880120936001890189116105ac57600c99600160809a01600455610a7660c08a01610f11565b60c089015260e08801527f000000000000000000000000000000000000000000000000000000000000000061010088015261012087015261014086015260405197610ac089610f2c565b604435895260643560208a015260408901908152606089019160018060a01b031682528689019060018060a01b0360243516825260a08a019333855260c08b0195865260e08b0196875260c06101008c01980188526000526006602052602060406000209a80518c55015160018b01555160028a0155600389019160018060a01b039051169160018060a01b03199283825416179055600489019060018060a01b0390511682825416179055600588019160018060a01b03905116908254161790555160068601555160078501555180516008850155602081015160098501556040810151600a8501556060810151600b8501550151910155600080f35b634e487b7160e01b600052604160045260246000fd5b60405162461bcd60e51b8152602060048201526019602482015278151bddd95c881cda5e99481b1a5b5a5d08195e18d959591959603a1b6044820152606490fd5b60405162461bcd60e51b815260206004820152602160248201527f486f737420626c6f636b2074696d656f7574206c696d697420657863656564656044820152601960fa1b6064820152608490fd5b9093506020813d602011610c90575b81610c8060209383610f48565b8101031261001b575192896109a1565b3d9150610c73565b93506020843d602011610cc5575b81610cb360209383610f48565b8101031261001b579251926020610966565b3d9150610ca6565b60405162461bcd60e51b815260206004820152600b60248201526a57726f6e672066756e647360a81b6044820152606490fd5b9091506020813d602011610d2c575b81610d1c60209383610f48565b8101031261001b575190886108d4565b3d9150610d0f565b9095506020813d602011610d60575b81610d5060209383610f48565b8101031261001b5751948761089b565b3d9150610d43565b90506020813d602011610d92575b81610d8360209383610f48565b8101031261001b57518561084f565b3d9150610d76565b9092506020813d602011610dc6575b81610db660209383610f48565b8101031261001b57519183610807565b3d9150610da9565b92506020833d602011610dfb575b81610de960209383610f48565b8101031261001b5791519160206107d6565b3d9150610ddc565b60405162461bcd60e51b81526020600482015260146024820152735363686564756c6572206e6f742061637469766560601b6044820152606490fd5b3461001b57600036600319011261001b57602060ff600554166040519015158152f35b3461001b57600036600319011261001b576003546040516001600160a01b039091168152602090f35b3461001b57602036600319011261001b576001600160a01b03610eac610efb565b1660005260076020526020604060002054604051908152f35b3461001b57602036600319011261001b576020906001600160a01b03610ee9610efb565b16600052600782526040600020548152f35b600435906001600160a01b038216820361001b57565b60a081019081106001600160401b03821117610bbe57604052565b61012081019081106001600160401b03821117610bbe57604052565b90601f801991011681019081106001600160401b03821117610bbe57604052565b90604051610f7681610f11565b608060048294805484526001810154602085015260028101546040850152600381015460608501520154910152565b6001600160a01b039091168152602081019190915260400190565b919082018092116105ac57565b15610fd457565b60405162461bcd60e51b815260206004820152600a6024820152694f776e6572206f6e6c7960b01b6044820152606490fd5b6001600160a01b03166000908152600860205260409020544381106110285790565b50439056fea2646970667358221220f3d99851ae2836eb174702a60db4db024625818919cf329fdff588c476c7971e64736f6c63430008180033",
  "linkReferences": {},
  "deployedLinkReferences": {}
}