{
  "_format": "hh-sol-artifact-1",
  "contractName": "MecaTowerContract",
  "sourceName": "contracts/TowerContract.sol",
  "abi": [
    {
      "inputs": [
        {
          "internalType": "uint256",
          "name": "towerInitialStake",
          "type": "uint256"
        },
        {
          "internalType": "uint256",
          "name": "hostRequestFee",
          "type": "uint256"
        },
        {
          "internalType": "uint256",
          "name": "failedTaskPenalty",
          "type": "uint256"
        }
      ],
      "stateMutability": "nonpayable",
      "type": "constructor"
    },
    {
      "stateMutability": "payable",
      "type": "fallback"
    },
    {
      "inputs": [],
      "name": "FAILED_TASK_PENALTY",
      "outputs": [
        {
          "internalType": "uint256",
          "name": "",
          "type": "uint256"
        }
      ],
      "stateMutability": "view",
      "type": "function"
    },
    {
      "inputs": [],
      "name": "HOST_REQUEST_FEE",
      "outputs": [
        {
          "internalType": "uint256",
          "name": "",
          "type": "uint256"
        }
      ],
      "stateMutability": "view",
      "type": "function"
    },
    {
      "inputs": [],
      "name": "TOWER_INITIAL_STAKE",
      "outputs": [
        {
          "internalType": "uint256",
          "name": "",
          "type": "uint256"
        }
      ],
      "stateMutability": "view",
      "type": "function"
    },
    {
      "inputs": [
        {
          "internalType": "address",
          "name": "hostAddress",
          "type": "address"
        }
      ],
      "name": "acceptHost",
      "outputs": [],
      "stateMutability": "nonpayable",
      "type": "function"
    },
    {
      "inputs": [],
      "name": "addStake",
      "outputs": [],
      "stateMutability": "payable",
      "type": "function"
    },
    {
      "inputs": [],
      "name": "clear",
      "outputs": [],
      "stateMutability": "nonpayable",
      "type": "function"
    },
    {
      "inputs": [
        {
          "internalType": "address",
          "name": "hostAddress",
          "type": "address"
        }
      ],
      "name": "deleteHost",
      "outputs": [],
      "stateMutability": "nonpayable",
      "type": "function"
    },
    {
      "inputs": [],
      "name": "deleteTower",
      "outputs": [],
      "stateMutability": "nonpayable",
      "type": "function"
    },
    {
      "inputs": [
        {
          "internalType": "address",
          "name": "towerAddress",
          "type": "address"
        },
        {
          "internalType": "uint256",
          "name": "size",
          "type": "uint256"
        },
        {
          "internalType": "uint256",
          "name": "blockTimeoutLimit",
          "type": "uint256"
        }
      ],
      "name": "getTowerFee",
      "outputs": [
        {
          "internalType": "uint256",
          "name": "",
          "type": "uint256"
        }
      ],
      "stateMutability": "view",
      "type": "function"
    },
    {
      "inputs": [
        {
          "internalType": "address",
          "name": "towerAddress",
          "type": "address"
        }
      ],
      "name": "getTowerHosts",
      "outputs": [
        {
          "internalType": "address[]",
          "name": "",
          "type": "address[]"
        }
      ],
      "stateMutability": "view",
      "type": "function"
    },
    {
      "inputs": [
        {
          "internalType": "address",
          "name": "towerAddress",
          "type": "address"
        }
      ],
      "name": "getTowerPendingHosts",
      "outputs": [
        {
          "internalType": "address[]",
          "name": "",
          "type": "address[]"
        }
      ],
      "stateMutability": "view",
      "type": "function"
    },
    {
      "inputs": [
        {
          "internalType": "address",
          "name": "towerAddress",
          "type": "address"
        }
      ],
      "name": "getTowerPublicConnection",
      "outputs": [
        {
          "internalType": "string",
          "name": "",
          "type": "string"
        }
      ],
      "stateMutability": "view",
      "type": "function"
    },
    {
      "inputs": [
        {
          "internalType": "address",
          "name": "towerAddress",
          "type": "address"
        }
      ],
      "name": "getTowerSizeLimit",
      "outputs": [
        {
          "internalType": "uint256",
          "name": "",
          "type": "uint256"
        }
      ],
      "stateMutability": "view",
      "type": "function"
    },
    {
      "inputs": [
        {
          "internalType": "address",
          "name": "towerAddress",
          "type": "address"
        }
      ],
      "name": "getTowerStake",
      "outputs": [
        {
          "internalType": "uint256",
          "name": "",
          "type": "uint256"
        }
      ],
      "stateMutability": "view",
      "type": "function"
    },
    {
      "inputs": [],
      "name": "getTowers",
      "outputs": [
        {
          "components": [
            {
              "internalType": "address payable",
              "name": "owner",
              "type": "address"
            },
            {
              "internalType": "uint256",
              "name": "sizeLimit",
              "type": "uint256"
            },
            {
              "internalType": "string",
              "name": "publicConnection",
              "type": "string"
            },
            {
              "internalType": "uint8",
              "name": "feeType",
              "type": "uint8"
            },
            {
              "internalType": "uint256",
              "name": "fee",
              "type": "uint256"
            },
            {
              "internalType": "uint256",
              "name": "stake",
              "type": "uint256"
            }
          ],
          "internalType": "struct MecaTowerAbstractContract.Tower[]",
          "name": "",
          "type": "tuple[]"
        }
      ],
      "stateMutability": "view",
      "type": "function"
    },
    {
      "inputs": [],
      "name": "owner",
      "outputs": [
        {
          "internalType": "address payable",
          "name": "",
          "type": "address"
        }
      ],
      "stateMutability": "view",
      "type": "function"
    },
    {
      "inputs": [
        {
          "internalType": "address",
          "name": "towerAddress",
          "type": "address"
        },
        {
          "internalType": "address",
          "name": "userAddress",
          "type": "address"
        }
      ],
      "name": "penaltyForFailedTask",
      "outputs": [],
      "stateMutability": "nonpayable",
      "type": "function"
    },
    {
      "inputs": [
        {
          "internalType": "uint256",
          "name": "sizeLimit",
          "type": "uint256"
        },
        {
          "internalType": "string",
          "name": "publicConnection",
          "type": "string"
        },
        {
          "internalType": "uint256",
          "name": "fee",
          "type": "uint256"
        },
        {
          "internalType": "uint8",
          "name": "feeType",
          "type": "uint8"
        }
      ],
      "name": "registerAsTower",
      "outputs": [],
      "stateMutability": "payable",
      "type": "function"
    },
    {
      "inputs": [
        {
          "internalType": "address",
          "name": "towerAddress",
          "type": "address"
        }
      ],
      "name": "registerMeForTower",
      "outputs": [],
      "stateMutability": "payable",
      "type": "function"
    },
    {
      "inputs": [
        {
          "internalType": "address",
          "name": "hostAddress",
          "type": "address"
        }
      ],
      "name": "rejectHost",
      "outputs": [],
      "stateMutability": "nonpayable",
      "type": "function"
    },
    {
      "inputs": [],
      "name": "schedulerContractAddress",
      "outputs": [
        {
          "internalType": "address",
          "name": "",
          "type": "address"
        }
      ],
      "stateMutability": "view",
      "type": "function"
    },
    {
      "inputs": [
        {
          "internalType": "address",
          "name": "newSchedulerContractAddress",
          "type": "address"
        }
      ],
      "name": "setSchedulerContractAddress",
      "outputs": [],
      "stateMutability": "nonpayable",
      "type": "function"
    },
    {
      "inputs": [
        {
          "internalType": "address",
          "name": "",
          "type": "address"
        },
        {
          "internalType": "uint256",
          "name": "",
          "type": "uint256"
        }
      ],
      "name": "towerActiveHosts",
      "outputs": [
        {
          "internalType": "address",
          "name": "",
          "type": "address"
        }
      ],
      "stateMutability": "view",
      "type": "function"
    },
    {
      "inputs": [
        {
          "internalType": "address",
          "name": "",
          "type": "address"
        },
        {
          "internalType": "uint256",
          "name": "",
          "type": "uint256"
        }
      ],
      "name": "towerPendingHosts",
      "outputs": [
        {
          "internalType": "address",
          "name": "",
          "type": "address"
        }
      ],
      "stateMutability": "view",
      "type": "function"
    },
    {
      "inputs": [
        {
          "internalType": "uint256",
          "name": "",
          "type": "uint256"
        }
      ],
      "name": "towers",
      "outputs": [
        {
          "internalType": "address payable",
          "name": "owner",
          "type": "address"
        },
        {
          "internalType": "uint256",
          "name": "sizeLimit",
          "type": "uint256"
        },
        {
          "internalType": "string",
          "name": "publicConnection",
          "type": "string"
        },
        {
          "internalType": "uint8",
          "name": "feeType",
          "type": "uint8"
        },
        {
          "internalType": "uint256",
          "name": "fee",
          "type": "uint256"
        },
        {
          "internalType": "uint256",
          "name": "stake",
          "type": "uint256"
        }
      ],
      "stateMutability": "view",
      "type": "function"
    },
    {
      "inputs": [
        {
          "internalType": "address",
          "name": "",
          "type": "address"
        }
      ],
      "name": "towersIndex",
      "outputs": [
        {
          "internalType": "uint32",
          "name": "",
          "type": "uint32"
        }
      ],
      "stateMutability": "view",
      "type": "function"
    },
    {
      "inputs": [
        {
          "internalType": "uint8",
          "name": "newFeeType",
          "type": "uint8"
        },
        {
          "internalType": "uint256",
          "name": "newFee",
          "type": "uint256"
        }
      ],
      "name": "updateFee",
      "outputs": [],
      "stateMutability": "nonpayable",
      "type": "function"
    },
    {
      "inputs": [
        {
          "internalType": "string",
          "name": "newPublicConnection",
          "type": "string"
        }
      ],
      "name": "updatePublicConnection",
      "outputs": [],
      "stateMutability": "nonpayable",
      "type": "function"
    },
    {
      "inputs": [
        {
          "internalType": "uint256",
          "name": "newSizeLimit",
          "type": "uint256"
        }
      ],
      "name": "updateSizeLimit",
      "outputs": [],
      "stateMutability": "nonpayable",
      "type": "function"
    },
    {
      "inputs": [
        {
          "internalType": "uint256",
          "name": "amount",
          "type": "uint256"
        }
      ],
      "name": "withdrawStake",
      "outputs": [],
      "stateMutability": "nonpayable",
      "type": "function"
    },
    {
      "stateMutability": "payable",
      "type": "receive"
    }
  ],
  "bytecode": "0x60e0346100ca57601f611c3c38819003918201601f19168301916001600160401b038311848410176100cf578084926060946040528339810103126100ca57805190604060208201519101519060018060a01b0319923284600054161760005560805260a05260c05260015416600155604051611b5690816100e682396080518181816101e501528181610ce60152610e8a015260a0518181816107d00152818161087701528181610bcd01528181610cab0152610dbf015260c0518181816107840152610a100152f35b600080fd5b634e487b7160e01b600052604160045260246000fdfe6080604052600436101561001e575b361561001957600080fd5b600080fd5b60003560e01c806314ac563f14610f7e5780631b149c7314610f355780631bb6582114610eb757806325d5971f14610e31578063264632ce14610d8157806347fa822f14610d2857806348be1f2814610d095780634ee850cf14610cce57806350a6ab5614610c9357806352efea6e14610ba157806354efc17414610a8557806357e1282e146109cb5780635a627dbc1461099d57806366b89b201461097b5780637052a5e514610922578063818a3a8f146108f85780638d39e55d146108615780638da5cb5b14610838578063920372d914610816578063940f736f146107a7578063a91a21821461076c578063aaeed52914610730578063b1f2d6ac146106f0578063c435bdec14610662578063db5daade1461062f578063db88497c14610606578063e9393c86146105bd578063f6291f2514610530578063f7d04456146101a55763fcdc8b8e0361000e57346100195760203660031901126100195761019761019261018d33611abd565b6113d0565b611169565b506001600435910155600080f35b6080366003190112610019576024356001600160401b038111610019576101d0903690600401611073565b906064359060ff82168092036100195761020c7f00000000000000000000000000000000000000000000000000000000000000003410156112cb565b60405191610219836111c2565b338352602083019360043585526001600160401b03811161046e576040519261024c601f8301601f1916602001856111f8565b81845236828201116100195781600092602092838701378401015260408301918252606083015260443560808301523460a083015260018060a01b03825116600052600260205263ffffffff6040600020541661001957600354600160401b81101561046e578060016102c29201600355611169565b93909361051a57825184546001600160a01b0319166001600160a01b03919091161784555160018401555180519092906001600160401b03811161046e5761031a816103116002850154611188565b600285016113fd565b6020601f82116001146104ac57819061033e9394956000926104a1575b5050611442565b60028201555b6003810160ff60608401511660ff1982541617905560808201516004820155600560a083015191015563ffffffff6003541660018060a01b03825116600052600260205260406000209063ffffffff198254161790556040516103a6816111dd565b600080825282516001600160a01b031681526005602052604090208151916001600160401b03831161046e576020906103df848461160c565b0190600052602060002060005b8381106104845760405185610400826111dd565b600080835290516001600160a01b03168152600460205260409020815190916001600160401b03821161046e5760209061043a838561160c565b019160005260206000209160005b82811061045157005b81516001600160a01b031681850155602090910190600101610448565b634e487b7160e01b600052604160045260246000fd5b82516001600160a01b0316818301556020909201916001016103ec565b015190508580610337565b6002830160005260206000209060005b601f19841681106105025750600193949583601f198116106104e9575b505050811b016002820155610344565b015160001960f88460031b161c191690558480806104d9565b9091602060018192858a0151815501930191016104bc565b634e487b7160e01b600052600060045260246000fd5b34610019576020366003190112610019576004356003548110156100195761055790611169565b5060018060a01b0381541660018201549161057460028201611219565b60ff600383015416916105a960056004830154920154926040519687968752602087015260c0604087015260c0860190611129565b926060850152608084015260a08301520390f35b34610019576020366003190112610019576105d66110a0565b6000546001600160a01b0391906105f09083163314611323565b1660018060a01b03196001541617600155600080f35b34610019576000366003190112610019576001546040516001600160a01b039091168152602090f35b3461001957606036600319011261001957602061065a61064d6110a0565b604435906024359061135c565b604051908152f35b3461001957602080600319360112610019576001600160a01b03806106856110a0565b1660005260056020526040600020916040518092602085549283815201946000526020600020926000915b8383106106d7576106d3866106c7818a03826111f8565b604051918291826110e4565b0390f35b84548116875295810195600194850194909201916106b0565b34610019576020366003190112610019576001600160a01b036107116110a0565b166000526002602052602063ffffffff60406000205416604051908152f35b34610019576020366003190112610019576106d360406107566107516110a0565b6114b1565b0151604051918291602083526020830190611129565b346100195760003660031901126100195760206040517f00000000000000000000000000000000000000000000000000000000000000008152f35b34610019576020366003190112610019576107c96107c36110a0565b33611a19565b60008080807f000000000000000000000000000000000000000000000000000000000000000081811561080d575b3390f11561080157005b6040513d6000823e3d90fd5b506108fc6107f7565b34610019576020366003190112610019576107c96108326110a0565b33611968565b34610019576000366003190112610019576000546040516001600160a01b039091168152602090f35b6020366003190112610019576108756110a0565b7f000000000000000000000000000000000000000000000000000000000000000034036108bc5760018060a01b031660005260046020526108ba336040600020611945565b005b60405162461bcd60e51b8152602060048201526014602482015273135a5b9a5b5d5b48199959481c995c5d5a5c995960621b6044820152606490fd5b3461001957602036600319011261001957602060a06109186107516110a0565b0151604051908152f35b346100195760403660031901126100195760043560ff811680910361001957600361096c61019261095233611abd565b61095e610192826113d0565b5060046024359101556113d0565b5001805460ff19169091179055005b34610019576020366003190112610019576108ba6109976110a0565b3361186d565b60003660031901126100195760056109ba61019261018d33611abd565b50016109c73482546112be565b9055005b34610019576040366003190112610019576109e46110a0565b6024356001600160a01b038181169182900361001957600154163303610a4f5760008080938193610a367f000000000000000000000000000000000000000000000000000000000000000080936114f7565b828215610a46575bf11561080157005b506108fc610a3e565b60405162461bcd60e51b815260206004820152600e60248201526d5363686564756c6572206f6e6c7960901b6044820152606490fd5b34610019576000366003190112610019576003546001600160401b03811161046e57602060405191610abc828260051b01846111f8565b80835281830190816003600052836000206000915b838310610b7e5750505050604051918083019381845251809452604083019360408160051b85010192916000955b828710610b0c5785850386f35b909192938280600192603f19898203018552875190610b4d60c0868060a01b0384511683528484015185840152604084015190806040850152830190611129565b91606060ff8183015116908301526080808201519083015260a0809101519101529601920196019592919092610aff565b600686600192610b90859a999a611455565b815201920192019190959495610ad1565b34610019576000366003190112610019576000546001600160a01b0390610bcb9082163314611323565b7f00000000000000000000000000000000000000000000000000000000000000005b60035480156108ba576000198101908111610c7d57610c446005610c1083611169565b500154610c3e84610c3987610c3181610c2889611169565b50541697611169565b505416611640565b611310565b906112be565b8015918215610c56575b505050610bed565b6000928392839283928390610c74575bf11561080157828080610c4e565b506108fc610c66565b634e487b7160e01b600052601160045260246000fd5b346100195760003660031901126100195760206040517f00000000000000000000000000000000000000000000000000000000000000008152f35b346100195760003660031901126100195760206040517f00000000000000000000000000000000000000000000000000000000000000008152f35b34610019576020366003190112610019576020806109186107516110a0565b3461001957604036600319011261001957610d416110a0565b6024359060018060a01b0380911660005260056020526040600020805483101561001957602092610d71916110b6565b9190546040519260031b1c168152f35b3461001957600036600319011261001957610d9b336114b1565b6020810151610df55760008080610de460a082950151610c3e610dbd33611640565b7f000000000000000000000000000000000000000000000000000000000000000090611310565b81811561080d573390f11561080157005b60405162461bcd60e51b8152602060048201526014602482015273053697a65206c696d6974206d75737420626520360641b6044820152606490fd5b346100195760203660031901126100195760008080806004358060a0610e56336114b1565b0151101580610e73575b610e69906112cb565b610de481336114f7565b50610e6960a0610e82336114b1565b0151610eae837f00000000000000000000000000000000000000000000000000000000000000006112be565b11159050610e60565b3461001957602080600319360112610019576001600160a01b0380610eda6110a0565b1660005260046020526040600020916040518092602085549283815201946000526020600020926000915b838310610f1c576106d3866106c7818a03826111f8565b8454811687529581019560019485019490920191610f05565b3461001957604036600319011261001957610f4e6110a0565b6024359060018060a01b0380911660005260046020526040600020805483101561001957602092610d71916110b6565b3461001957602080600319360112610019576001600160401b0360043581811161001957610fb0903690600401611073565b906002610fc261019261018d33611abd565b500192821161046e57610fdf82610fd98554611188565b856113fd565b600093601f831160011461100e57506109c792938291600092611003575050611442565b013590508480610337565b90601f19831694846000526020600020926000905b87821061105b575050836001959610611041575b505050811b019055005b0135600019600384901b60f8161c19169055838080611037565b80600184968294958701358155019501920190611023565b9181601f84011215610019578235916001600160401b038311610019576020838186019501011161001957565b600435906001600160a01b038216820361001957565b80548210156110ce5760005260206000200190600090565b634e487b7160e01b600052603260045260246000fd5b602090602060408183019282815285518094520193019160005b82811061110c575050505090565b83516001600160a01b0316855293810193928101926001016110fe565b919082519283825260005b848110611155575050826000602080949584010152601f8019910116010190565b602081830181015184830182015201611134565b6003548110156110ce5760036000526006602060002091020190600090565b90600182811c921680156111b8575b60208310146111a257565b634e487b7160e01b600052602260045260246000fd5b91607f1691611197565b60c081019081106001600160401b0382111761046e57604052565b602081019081106001600160401b0382111761046e57604052565b90601f801991011681019081106001600160401b0382111761046e57604052565b9060405191826000825461122c81611188565b9081845260209460019160018116908160001461129c575060011461125d575b50505061125b925003836111f8565b565b600090815285812095935091905b81831061128457505061125b935082010138808061124c565b8554888401850152948501948794509183019161126b565b9250505061125b94925060ff191682840152151560051b82010138808061124c565b91908201809211610c7d57565b156112d257565b60405162461bcd60e51b8152602060048201526016602482015275135a5b9a5b5d5b481cdd185ad9481c995c5d5a5c995960521b6044820152606490fd5b81810292918115918404141715610c7d57565b1561132a57565b60405162461bcd60e51b815260206004820152600a6024820152694f776e6572206f6e6c7960b01b6044820152606490fd5b611365906114b1565b90608060ff6060840151169201519282156000146113835750505090565b6001839492931460001461139f575061139c9250611310565b90565b9192600281036113b4575061139c9250611310565b6003036113c85761139c92610c3991611310565b505050600090565b63ffffffff9081166000190191908211610c7d57565b8181106113f1575050565b600081556001016113e6565b9190601f811161140c57505050565b61125b926000526020600020906020601f840160051c83019310611438575b601f0160051c01906113e6565b909150819061142b565b8160011b916000199060031b1c19161790565b90604051611462816111c2565b82546001600160a01b031681526001830154602082015291829060a09060059061148e60028201611219565b604085015260ff6003820154166060850152600481015460808501520154910152565b6114f161019261018d61139c93600060a06040516114ce816111c2565b828152826020820152606060408201528260608201528260808201520152611abd565b50611455565b61150861019261018d600593611abd565b50018054918203918211610c7d5755565b908082146115e45761152b8154611188565b906001600160401b03821161046e5761154882610fd98554611188565b600090601f83116001146115795761156a92916000918361156e575050611442565b9055565b015490503880610337565b815260208082208483528183209291601f1985169083905b8282106115cb5750509084600195949392106115b2575b505050811b019055565b015460001960f88460031b161c191690553880806115a8565b8495819295850154815560018091019601940190611591565b5050565b805460008255806115f7575050565b61125b916000526020600020908101906113e6565b90600160401b811161046e5781549080835581811061162a57505050565b61125b92600052602060002091820191016113e6565b61164990611abd565b6116586114f1610192836113d0565b90600380549060001991828101908111610c7d5761167590611169565b50611682610192856113d0565b91909161051a578082036117c5575b505061169f610192846113d0565b509160018060a01b038093541693600094855260026020526040852063ffffffff801992168282541617905583865116855260408520908154169055815480156117b15701906116ee82611169565b61179d579160409391856005858261139c99975582600182015582600282016117178154611188565b80611761575b5050848201558260048201550155558085511682526004602052828220549481815116835260056020526117528484206115e8565b511681526004602052206115e8565b82601f8211600114611779575050555b82388061171d565b9091808252611796601f602084209401871c8401600185016113e6565b5555611771565b634e487b7160e01b85526004859052602485fd5b634e487b7160e01b85526031600452602485fd5b805482546001600160a01b0319166001600160a01b03919091161782556001808201549083015560059081906118016002808301908601611519565b84840160ff868301541660ff198254161790556004810154600485015501549101553880611691565b8054801561185757600019019061184182826110b6565b81549060018060a01b039060031b1b1916905555565b634e487b7160e01b600052603160045260246000fd5b9060005b60018060a01b03808416806000526005602081815260409283600020805487101561193a57866118a0916110b6565b905460039691871b1c8116888216146118c157505050505050600101611871565b9295919497508093965060005284845285600020918254906000198201918211610c7d5761125b986118f96119109361192e966110b6565b9054911b1c169184600052868652876000206110b6565b90919060018060a01b038084549260031b9316831b921b1916179055565b6000525260002061182a565b505050505050505050565b80549190600160401b83101561046e578261191091600161125b950181556110b6565b919060005b60018060a01b0380851680600052600490602090828252604093846000208054871015611a0d578661199e916110b6565b9054600391821b1c8216888316146119be5750505050505060010161196d565b919395985091939550826000528484528560002080549060001982019182116119f8579261125b9899926118f96119109361192e966110b6565b601187634e487b7160e01b6000525260246000fd5b50505050505050509050565b919060005b60018060a01b0380851680600052600490602090828252604093846000208054871015611a0d5786611a4f916110b6565b9054600391821b1c821688831614611a6f57505050505050600101611a1e565b9193959850919395611a8c90846000526005865287600020611945565b826000528484528560002080549060001982019182116119f8579261125b9899926118f96119109361192e966110b6565b6001600160a01b031660009081526002602052604090205463ffffffff168015611ae45790565b60405162461bcd60e51b8152602060048201526014602482015273151bddd95c88191bd95cc81b9bdd08195e1a5cdd60621b6044820152606490fdfea26469706673582212209b7973cf977cb019db198137ec2a47f1e87606a702d45f353fe1ded0f9f246a764736f6c63430008180033",
  "linkReferences": {},
  "deployedLinkReferences": {}
}