{
  "_format": "hh-sol-artifact-1",
  "contractName": "MecaTaskContract",
  "sourceName": "contracts/TaskContract.sol",
  "abi": [
    {
      "inputs": [
        {
          "internalType": "uint256",
          "name": "taskAdditionFee",
          "type": "uint256"
        }
      ],
      "stateMutability": "nonpayable",
      "type": "constructor"
    },
    {
      "stateMutability": "payable",
      "type": "fallback"
    },
    {
      "inputs": [],
      "name": "TASK_ADDITION_FEE",
      "outputs": [
        {
          "internalType": "uint256",
          "name": "",
          "type": "uint256"
        }
      ],
      "stateMutability": "view",
      "type": "function"
    },
    {
      "inputs": [
        {
          "internalType": "bytes32",
          "name": "ipfsSha256",
          "type": "bytes32"
        },
        {
          "internalType": "uint256",
          "name": "fee",
          "type": "uint256"
        },
        {
          "internalType": "uint8",
          "name": "computingType",
          "type": "uint8"
        },
        {
          "internalType": "uint256",
          "name": "size",
          "type": "uint256"
        }
      ],
      "name": "addTask",
      "outputs": [],
      "stateMutability": "payable",
      "type": "function"
    },
    {
      "inputs": [],
      "name": "clear",
      "outputs": [],
      "stateMutability": "nonpayable",
      "type": "function"
    },
    {
      "inputs": [
        {
          "internalType": "bytes32",
          "name": "ipfsSha256",
          "type": "bytes32"
        }
      ],
      "name": "deleteTask",
      "outputs": [],
      "stateMutability": "nonpayable",
      "type": "function"
    },
    {
      "inputs": [
        {
          "internalType": "bytes32",
          "name": "ipfsSha256",
          "type": "bytes32"
        }
      ],
      "name": "getTaskComputingType",
      "outputs": [
        {
          "internalType": "uint8",
          "name": "",
          "type": "uint8"
        }
      ],
      "stateMutability": "view",
      "type": "function"
    },
    {
      "inputs": [
        {
          "internalType": "bytes32",
          "name": "ipfsSha256",
          "type": "bytes32"
        }
      ],
      "name": "getTaskFee",
      "outputs": [
        {
          "internalType": "uint256",
          "name": "",
          "type": "uint256"
        }
      ],
      "stateMutability": "view",
      "type": "function"
    },
    {
      "inputs": [
        {
          "internalType": "bytes32",
          "name": "ipfsSha256",
          "type": "bytes32"
        }
      ],
      "name": "getTaskOwner",
      "outputs": [
        {
          "internalType": "address",
          "name": "",
          "type": "address"
        }
      ],
      "stateMutability": "view",
      "type": "function"
    },
    {
      "inputs": [
        {
          "internalType": "bytes32",
          "name": "ipfsSha256",
          "type": "bytes32"
        }
      ],
      "name": "getTaskSize",
      "outputs": [
        {
          "internalType": "uint256",
          "name": "",
          "type": "uint256"
        }
      ],
      "stateMutability": "view",
      "type": "function"
    },
    {
      "inputs": [],
      "name": "getTasks",
      "outputs": [
        {
          "components": [
            {
              "internalType": "bytes32",
              "name": "ipfsSha256",
              "type": "bytes32"
            },
            {
              "internalType": "address payable",
              "name": "owner",
              "type": "address"
            },
            {
              "internalType": "uint256",
              "name": "fee",
              "type": "uint256"
            },
            {
              "internalType": "uint8",
              "name": "computingType",
              "type": "uint8"
            },
            {
              "internalType": "uint256",
              "name": "size",
              "type": "uint256"
            }
          ],
          "internalType": "struct MecaTaskAbstractContract.Task[]",
          "name": "",
          "type": "tuple[]"
        }
      ],
      "stateMutability": "view",
      "type": "function"
    },
    {
      "inputs": [],
      "name": "owner",
      "outputs": [
        {
          "internalType": "address payable",
          "name": "",
          "type": "address"
        }
      ],
      "stateMutability": "view",
      "type": "function"
    },
    {
      "inputs": [
        {
          "internalType": "uint256",
          "name": "",
          "type": "uint256"
        }
      ],
      "name": "tasks",
      "outputs": [
        {
          "internalType": "bytes32",
          "name": "ipfsSha256",
          "type": "bytes32"
        },
        {
          "internalType": "address payable",
          "name": "owner",
          "type": "address"
        },
        {
          "internalType": "uint256",
          "name": "fee",
          "type": "uint256"
        },
        {
          "internalType": "uint8",
          "name": "computingType",
          "type": "uint8"
        },
        {
          "internalType": "uint256",
          "name": "size",
          "type": "uint256"
        }
      ],
      "stateMutability": "view",
      "type": "function"
    },
    {
      "inputs": [
        {
          "internalType": "bytes32",
          "name": "",
          "type": "bytes32"
        }
      ],
      "name": "tasks_index",
      "outputs": [
        {
          "internalType": "uint32",
          "name": "",
          "type": "uint32"
        }
      ],
      "stateMutability": "view",
      "type": "function"
    },
    {
      "inputs": [
        {
          "internalType": "bytes32",
          "name": "ipfsSha256",
          "type": "bytes32"
        },
        {
          "internalType": "uint256",
          "name": "newFee",
          "type": "uint256"
        }
      ],
      "name": "updateTaskFee",
      "outputs": [],
      "stateMutability": "nonpayable",
      "type": "function"
    },
    {
      "inputs": [
        {
          "internalType": "bytes32",
          "name": "ipfsSha256",
          "type": "bytes32"
        },
        {
          "internalType": "address",
          "name": "newOwner",
          "type": "address"
        }
      ],
      "name": "updateTaskOwner",
      "outputs": [],
      "stateMutability": "nonpayable",
      "type": "function"
    },
    {
      "inputs": [
        {
          "internalType": "bytes32",
          "name": "ipfsSha256",
          "type": "bytes32"
        },
        {
          "internalType": "uint256",
          "name": "newSize",
          "type": "uint256"
        }
      ],
      "name": "updateTaskSize",
      "outputs": [],
      "stateMutability": "nonpayable",
      "type": "function"
    },
    {
      "stateMutability": "payable",
      "type": "receive"
    }
  ],
  "bytecode": "0x60803461006357601f610ae638819003918201601f19168301916001600160401b03831184841017610068578084926020946040528339810103126100635751600080546001600160a01b03191632179055600155604051610a67908161007f8239f35b600080fd5b634e487b7160e01b600052604160045260246000fdfe60806040818152600480361015610024575b505050361561001f57600080fd5b600080fd5b600092833560e01c90816304a87e381461073b575080630c5163a71461070e578063269a4482146106ef57806333490116146106cb57806343e201c01461057c5780634723218d1461051e5780634b093f9c1461050457806352efea6e146103ea57806358f64498146103a85780638b90363b146103865780638d9776721461031e5780638da5cb5b146102f6578063d004eade146102c9578063e64f15a21461010a5763f5108acf03610011573461010657602036600319011261010657602092506001600160a01b039083906100fc90356109a0565b0151169051908152f35b8280fd5b509190346102c55760203660031901126102c5576001600160a01b038335610141826020610137846109a0565b0151163314610936565b61014a816109de565b600380549091600019918281019081116102b25761016790610889565b5061017961017483610974565b610889565b9190916102a057808a918303610257575b50505061019961017482610974565b50548752600260205285872063ffffffff8019921682825416179055838752858720908154169055815480156102445701906101d482610889565b610232578695946020610206889687968796878e8882809a5582600182015582600282015582848201550155556109a0565b01511660015490828215610229575bf11561021f575080f35b51903d90823e3d90fd5b506108fc610215565b634e487b7160e01b8752868852602487fd5b634e487b7160e01b875260318852602487fd5b808291548455600184018960018301541660018060a01b03198254161790556002810154600285015586840160ff888301541660ff19825416179055015491015538888161018a565b634e487b7160e01b8952888a52602489fd5b634e487b7160e01b885260118952602488fd5b5080fd5b5091346102f35760203660031901126102f35750806102ea602093356109a0565b01519051908152f35b80fd5b5050346102c557816003193601126102c557905490516001600160a01b039091168152602090f35b509034610106576020366003190112610106578135926003548410156102f3575061034a60a093610889565b50805492600180861b036001830154169260028301549160ff600385015416930154938151958652602086015284015260608301526080820152f35b5091346102f35760203660031901126102f3575060806102ea602093356109a0565b83346102f3576103df60026103e46101746103c236610873565b94906103da6001600160a01b036020610137846109a0565b6109de565b610974565b50015580f35b50903461010657826003193601126101065782546001600160a01b031633036104d457825b6003548110156104425780610425600192610889565b505485526002602052828520805463ffffffff191690550161040f565b5050600390600354908360035581610458578380f35b600592826005029260058404036104c157600385527fc2575a0e9e593c00f959f8c92f12db2869c3395a3b0502d05e2516446f71f85b928301925b8381106104a05750508380f35b80868692558660018201558660028201558683820155868482015501610493565b634e487b7160e01b855260118252602485fd5b906020606492519162461bcd60e51b8352820152600a6024820152694f776e6572206f6e6c7960b01b6044820152fd5b8382346102c5576103df906103e46101746103c236610873565b509034610106573660031901126102c5576024356001600160a01b03818116923591839003610578576101746103df836103da6105629460206101376001986109a0565b500180546001600160a01b031916909117905580f35b8380fd5b50906080366003190112610106578135916044359060ff82168092036106c7576001543403610695576105ad6108be565b90848252602082019433865284830193602435855260608401908152608084019160643583528852600260205263ffffffff9485878a20541661069157600354600160401b81101561067e578060016106099201600355610889565b95909561066c575197888655600186019060018060a01b0390511660018060a01b031982541617905551600285015560ff6003850191511660ff198254161790555191015560035416918352600260205282209063ffffffff1982541617905580f35b634e487b7160e01b8a5289855260248afd5b634e487b7160e01b8a526041855260248afd5b8880fd5b606490602084519162461bcd60e51b8352820152600c60248201526b119959481c995c5d5a5c995960a21b6044820152fd5b8480fd5b5091346102f35760203660031901126102f3575060ff60606100fc602094356109a0565b5050346102c557816003193601126102c5576020906001549051908152f35b5034610106576020366003190112610106578160209363ffffffff92358152600285522054169051908152f35b84929150346101065782600319360112610106576003546001600160401b038082116108605760059382851b603f01601f191684019182118483101761084d57508552808252600384526020938483019390929190837fc2575a0e9e593c00f959f8c92f12db2869c3395a3b0502d05e2516446f71f85b865b848310610829575050505050845193808501918186525180925285850193925b8281106107e15785850386f35b835180518652808301516001600160a01b031686840152878101518887015260608082015160ff16908701526080908101519086015260a090940193928101926001016107d4565b838960019261083b859c999a9c6108f3565b815201920192019190979594976107b4565b634e487b7160e01b865260419052602485fd5b634e487b7160e01b855260418452602485fd5b604090600319011261001f576004359060243590565b6003548110156108a85760036000526005602060002091020190600090565b634e487b7160e01b600052603260045260246000fd5b6040519060a082018281106001600160401b038211176108dd57604052565b634e487b7160e01b600052604160045260246000fd5b9060046108fe6108be565b8354815260018401546001600160a01b0316602082015260028401546040820152600384015460ff1660608201529201546080830152565b1561093d57565b60405162461bcd60e51b815260206004820152600f60248201526e5461736b206f776e6572206f6e6c7960881b6044820152606490fd5b63ffffffff908116600019019190821161098a57565b634e487b7160e01b600052601160045260246000fd5b6109d56101746103df6109db93600060806109b96108be565b82815282602082015282604082015282606082015201526109de565b506108f3565b90565b600052600260205263ffffffff6040600020541680156109fb5790565b60405162461bcd60e51b815260206004820152600e60248201526d15185cdac81b9bdd08199bdd5b9960921b6044820152606490fdfea2646970667358221220ba68e2fff74abf361b7a1dffaf2c59c51f3b43479e62a745a31d328d72c172db64736f6c63430008180033",
  "linkReferences": {},
  "deployedLinkReferences": {}
}