{"contracts/HostContract.sol":{"MecaHostContract":{"abi":[{"inputs":[{"internalType":"uint256","name":"hostRegisterFee","type":"uint256"},{"internalType":"uint256","name":"hostInitialStake","type":"uint256"},{"internalType":"uint256","name":"failedTaskPenalty","type":"uint256"},{"internalType":"uint256","name":"taskRegisterFee","type":"uint256"}],"stateMutability":"nonpayable","type":"constructor"},{"stateMutability":"payable","type":"fallback"},{"inputs":[],"name":"FAILED_TASK_PENALTY","outputs":[{"internalType":"uint256","name":"","type":"uint256"}],"stateMutability":"view","type":"function"},{"inputs":[],"name":"HOST_INITIAL_STAKE","outputs":[{"internalType":"uint256","name":"","type":"uint256"}],"stateMutability":"view","type":"function"},{"inputs":[],"name":"HOST_REGISTER_FEE","outputs":[{"internalType":"uint256","name":"","type":"uint256"}],"stateMutability":"view","type":"function"},{"inputs":[],"name":"TASK_REGISTER_FEE","outputs":[{"internalType":"uint256","name":"","type":"uint256"}],"stateMutability":"view","type":"function"},{"inputs":[],"name":"addStake","outputs":[],"stateMutability":"payable","type":"function"},{"inputs":[{"internalType":"bytes32","name":"ipfsSha256","type":"bytes32"},{"internalType":"uint256","name":"blockTimeout","type":"uint256"},{"internalType":"uint256","name":"fee","type":"uint256"}],"name":"addTask","outputs":[],"stateMutability":"payable","type":"function"},{"inputs":[],"name":"clear","outputs":[],"stateMutability":"nonpayable","type":"function"},{"inputs":[],"name":"deleteHost","outputs":[],"stateMutability":"nonpayable","type":"function"},{"inputs":[{"internalType":"bytes32","name":"ipfsSha256","type":"bytes32"}],"name":"deleteTask","outputs":[],"stateMutability":"nonpayable","type":"function"},{"inputs":[{"internalType":"address","name":"hostAddress","type":"address"}],"name":"getHostBlockTimeoutLimit","outputs":[{"internalType":"uint256","name":"","type":"uint256"}],"stateMutability":"view","type":"function"},{"inputs":[{"internalType":"address","name":"hostAddress","type":"address"}],"name":"getHostPublicKey","outputs":[{"internalType":"bytes32[2]","name":"","type":"bytes32[2]"}],"stateMutability":"view","type":"function"},{"inputs":[{"internalType":"address","name":"hostAddress","type":"address"}],"name":"getHostStake","outputs":[{"internalType":"uint256","name":"","type":"uint256"}],"stateMutability":"view","type":"function"},{"inputs":[],"name":"getHosts","outputs":[{"components":[{"internalType":"address payable","name":"owner","type":"address"},{"internalType":"bytes32[2]","name":"eccPublicKey","type":"bytes32[2]"},{"internalType":"uint256","name":"blockTimeoutLimit","type":"uint256"},{"internalType":"uint256","name":"stake","type":"uint256"}],"internalType":"struct MecaHostAbstractContract.Host[]","name":"","type":"tuple[]"}],"stateMutability":"view","type":"function"},{"inputs":[{"internalType":"address","name":"hostAddress","type":"address"},{"internalType":"bytes32","name":"ipfsSha256","type":"bytes32"}],"name":"getTaskBlockTimeout","outputs":[{"internalType":"uint256","name":"","type":"uint256"}],"stateMutability":"view","type":"function"},{"inputs":[{"internalType":"address","name":"hostAddress","type":"address"},{"internalType":"bytes32","name":"ipfsSha256","type":"bytes32"}],"name":"getTaskFee","outputs":[{"internalType":"uint256","name":"","type":"uint256"}],"stateMutability":"view","type":"function"},{"inputs":[{"internalType":"uint256","name":"","type":"uint256"}],"name":"hosts","outputs":[{"internalType":"address payable","name":"owner","type":"address"},{"internalType":"uint256","name":"blockTimeoutLimit","type":"uint256"},{"internalType":"uint256","name":"stake","type":"uint256"}],"stateMutability":"view","type":"function"},{"inputs":[{"internalType":"address","name":"","type":"address"}],"name":"hostsIndex","outputs":[{"internalType":"uint32","name":"","type":"uint32"}],"stateMutability":"view","type":"function"},{"inputs":[],"name":"owner","outputs":[{"internalType":"address payable","name":"","type":"address"}],"stateMutability":"view","type":"function"},{"inputs":[{"internalType":"address","name":"hostAddress","type":"address"},{"internalType":"address","name":"userAddress","type":"address"}],"name":"penaltyForFailedTask","outputs":[],"stateMutability":"nonpayable","type":"function"},{"inputs":[{"internalType":"bytes32[2]","name":"publicKey","type":"bytes32[2]"},{"internalType":"uint256","name":"blockTimeoutLimit","type":"uint256"}],"name":"registerAsHost","outputs":[],"stateMutability":"payable","type":"function"},{"inputs":[],"name":"schedulerContractAddress","outputs":[{"internalType":"address","name":"","type":"address"}],"stateMutability":"view","type":"function"},{"inputs":[{"internalType":"address","name":"newSchedulerContractAddress","type":"address"}],"name":"setSchedulerContractAddress","outputs":[],"stateMutability":"nonpayable","type":"function"},{"inputs":[{"internalType":"uint256","name":"newBlockTimeoutLimit","type":"uint256"}],"name":"updateBlockTimeoutLimit","outputs":[],"stateMutability":"nonpayable","type":"function"},{"inputs":[{"internalType":"bytes32[2]","name":"newPublicKey","type":"bytes32[2]"}],"name":"updatePublicKey","outputs":[],"stateMutability":"nonpayable","type":"function"},{"inputs":[{"internalType":"bytes32","name":"ipfsSha256","type":"bytes32"},{"internalType":"uint256","name":"newBlockTimeout","type":"uint256"}],"name":"updateTaskBlockTimeout","outputs":[],"stateMutability":"nonpayable","type":"function"},{"inputs":[{"internalType":"bytes32","name":"ipfsSha256","type":"bytes32"},{"internalType":"uint256","name":"newFee","type":"uint256"}],"name":"updateTaskFee","outputs":[],"stateMutability":"nonpayable","type":"function"},{"inputs":[{"internalType":"uint256","name":"amount","type":"uint256"}],"name":"widthdrawStake","outputs":[],"stateMutability":"nonpayable","type":"function"},{"stateMutability":"payable","type":"receive"}],"evm":{"bytecode":{"linkReferences":{},"object":"610100346100cf57601f61117238819003918201601f19168301916001600160401b038311848410176100d4578084926080946040528339810103126100cf57805190602081015190606060408201519101519160018060a01b0319933285600054161760005560805260c05260e05260a0526001541660015560405161108790816100eb8239608051816102a0015260a0518181816101e1015281816104190152610d45015260c051818181610365015281816109480152610ba0015260e0518181816103e2015261088f0152f35b600080fd5b634e487b7160e01b600052604160045260246000fdfe608060409080825260049182361015610026575b505050361561002157600080fd5b600080fd5b600092833560e01c92836304beddcf14610d2e57508263052b12d214610b8557826320a1cc7b14610b5c57826326638d8714610afc5782633735b3c614610aac578263391d0b751461096b5782633a2dd2ce1461093057826352efea6e1461090857826357e1282e1461084657826358f644981461081a5782635a627dbc146107d65782635cea4b5f146105f9578263603d0299146105ab5782637c74e2ec1461058a5782638da5cb5b14610562578263906362301461052b5782639e89c6f3146104fa5782639f6e52ce146104d7578263a13f89f914610405578263a91a2182146103ca578263b0ea53401461038b578263b23e7a72146102c3578263b6b58dca14610288578263db88497c1461025f578263e24edcab1461022b578263e64f15a2146101aa57505063e9393c8614610161578080610013565b346101a75760203660031901126101a75761017a610d7e565b81546001600160a01b0391906101939083163314610e15565b1660018060a01b0319600154161760015580f35b80fd5b90915034610227576020366003190112610227573383526002602052818320903583526020528160018282208281550155818080807f000000000000000000000000000000000000000000000000000000000000000081811561021e575b3390f115610214575080f35b51903d90823e3d90fd5b506108fc610208565b8280fd5b83823461025b57602036600319011261025b578060209161025261024d610d7e565b610ef6565b01519051908152f35b5080fd5b83823461025b578160031936011261025b5760015490516001600160a01b039091168152602090f35b83823461025b578160031936011261025b57602090517f00000000000000000000000000000000000000000000000000000000000000008152f35b90915034610227576020366003190112610227578035908160606102e633610ef6565b015110158061034c575b15610318575082808083610305829533610f42565b81811561021e573390f115610214575080f35b606490602084519162461bcd60e51b8352820152600e60248201526d125b9d985b1a5908185b5bdd5b9d60921b6044820152fd5b5061036382606061035c33610ef6565b0151610e4e565b7f000000000000000000000000000000000000000000000000000000000000000011156102f0565b83823461025b57602036600319011261025b5760209163ffffffff9082906001600160a01b036103b9610d7e565b168152600385522054169051908152f35b83823461025b578160031936011261025b57602090517f00000000000000000000000000000000000000000000000000000000000000008152f35b9091506060366003190112610227578035907f00000000000000000000000000000000000000000000000000000000000000003403610498575081519161044b83610dfa565b6024358352602083019060443582523385526002602052808520838652602052808520546104945760019233865260026020528186209086526020528420925183555191015580f35b8480fd5b606490602084519162461bcd60e51b83528201526019602482015278135a5b9a5b5d5b481d185cdac8199959481c995c5d5a5c9959603a1b6044820152fd5b83823461025b57602036600319011261025b57602090606061025261024d610d7e565b83823461025b578060031936011261025b5760209061052361051a610d7e565b60243590610f9c565b519051908152f35b83903461025b57602036600319011261025b57600361055961055461054f33610fef565b610e71565b610d94565b50913591015580f35b83823461025b578160031936011261025b57905490516001600160a01b039091168152602090f35b83823461025b578060031936011261025b576020908161025261051a610d7e565b9150346102275736600319011261025b573660441161025b576105d361055461054f33610fef565b5090825b600281106105e3578380f35b60019060208335930192828286010155016105d7565b909150346102275782600319360112610227578161061633610ef6565b015161079f5761062533610fef565b908061063361055484610e71565b500154815490926000199182810190811161078c5761065190610d94565b5061065e61055483610e71565b91909161077a578085918303610734575b50505061067e61055482610e71565b5060018060a01b039054168652600360205284862063ffffffff8019921682825416179055338652848620908154169055815480156107215701906106c282610d94565b61070f57858155859291906003810160018083015b828110610703578689818080808d8c8c83818e828f5501555581811561021e573390f115610214575080f35b958655889581016106d7565b634e487b7160e01b8652858252602486fd5b634e487b7160e01b865260318352602486fd5b805483546001600160a01b0319166001600160a01b039190911617835581906107636001808301908601610f64565b60038101546003850155015491015538838161066f565b634e487b7160e01b8852878552602488fd5b634e487b7160e01b875260118452602487fd5b6020606492519162461bcd60e51b83528201526012602482015271486f73742063616e20676574207461736b7360701b6044820152fd5b83908160031936011261025b57806107f361055461054f33610fef565b500180549134830180931161080757505580f35b634e487b7160e01b845260119052602483fd5b83823461025b57600161082c36610d68565b929033855260026020528185209085526020528320015580f35b90915034610227578160031936011261022757610861610d7e565b906024356001600160a01b038181169291839003610904576001541633036108d057508380809381936108b57f00000000000000000000000000000000000000000000000000000000000000008093610f42565b8282156108c7575bf115610214575080f35b506108fc6108bd565b606490602085519162461bcd60e51b8352820152600e60248201526d5363686564756c6572206f6e6c7960901b6044820152fd5b8580fd5b83346101a757806003193601126101a75761092d60018060a01b038254163314610e15565b80f35b83823461025b578160031936011261025b57602090517f00000000000000000000000000000000000000000000000000000000000000008152f35b83823461025b578160031936011261025b5782546001600160401b0391828211610a99578051926005929081841b603f01601f1916850190811185821017610a8657829596949392528083526020918284018095885283882088915b848310610a5e5750505050508351938185019282865251809352808501939580915b8483106109f65786860387f35b909192939484885160018060a01b038151168352818101518284019086915b60028310610a485750505083810151606080850191909152015160808301529097019660a00194939260010191906109e9565b8151815289946001909301929182019101610a15565b8386600192610a72859d9c999a9b9d610e87565b8152019201920191909896959497986109c7565b634e487b7160e01b865260418752602486fd5b634e487b7160e01b845260418552602484fd5b9150346102275760203660031901126102275781359282548410156101a75750610ad7606093610d94565b509060018060a01b038254169260038301549201549181519384526020840152820152f35b5082346101a75760208060031936011261025b57906020610b32610b1e610d7e565b858051610b2a81610dfa565b369037610ef6565b01518351929091835b60028210610b47578585f35b82806001928651815201940191019092610b3b565b83823461025b57610b6c36610d68565b9190338452600260205281842090845260205282205580f35b915060603660031901126102275760449136604411610d2a577f00000000000000000000000000000000000000000000000000000000000000003410610cef57815190610bd182610dc9565b338252825193610be085610dfa565b81855b828210610cdf57505050602091602081019485528381016044358152606082019034825260018060a01b03808451168952600360205263ffffffff9586888b205416610cdb57855491600160401b831015610cc857610c49600193600181018955610d94565b969096610cb6575186546001600160a01b0319169116908117865598518694939291908b5b60028110610ca05750505050516003840155519101555416918352600360205282209063ffffffff1982541617905580f35b8151888201850155889650908201908301610c6e565b634e487b7160e01b8c528b885260248cfd5b634e487b7160e01b8b526041875260248bfd5b8980fd5b8135815260209182019101610be3565b6020606492519162461bcd60e51b83528201526016602482015275135a5b9a5b5d5b481cdd185ad9481c995c5d5a5c995960521b6044820152fd5b8380fd5b84903461025b578160031936011261025b576020907f00000000000000000000000000000000000000000000000000000000000000008152f35b6040906003190112610021576004359060243590565b600435906001600160a01b038216820361002157565b600454811015610db35760046000526005602060002091020190600090565b634e487b7160e01b600052603260045260246000fd5b608081019081106001600160401b03821117610de457604052565b634e487b7160e01b600052604160045260246000fd5b604081019081106001600160401b03821117610de457604052565b15610e1c57565b60405162461bcd60e51b815260206004820152600a6024820152694f776e6572206f6e6c7960b01b6044820152606490fd5b91908203918211610e5b57565b634e487b7160e01b600052601160045260246000fd5b63ffffffff9081166000190191908211610e5b57565b90604051610e9481610dc9565b82546001600160a01b031681526040519092839160018083016000835b60028210610ee2575050505060609181610ecc600493610dfa565b6020850152600381015460408501520154910152565b825481529183019190830190602001610eb1565b610f3961055461054f610f3f9360006060604051610f1381610dc9565b828152604051610f2281610dfa565b604036823760208201528260408201520152610fef565b50610e87565b90565b6004610f5661055461054f610f6094610fef565b5001918254610e4e565b9055565b90808214610f9857908154906000915b60028310610f825750505050565b6001809194019283549481840155019192610f74565b5050565b6040916020918351610fad81610dfa565b600080825293018390526001600160a01b0316825260026020908152838320918352522060405190600190610fe183610dfa565b805483520154602082015290565b6001600160a01b031660009081526003602052604090205463ffffffff1680156110165790565b60405162461bcd60e51b8152602060048201526013602482015272121bdcdd08191bd95cc81b9bdd08195e1a5cdd606a1b6044820152606490fdfea2646970667358221220eea09deb8a1aefd9c334bcc9631351af85b33b4d6c314cad251964d2b8c9416e64736f6c63430008180033","opcodes":"PUSH2 0x100 CALLVALUE PUSH2 0xCF JUMPI PUSH1 0x1F PUSH2 0x1172 CODESIZE DUP2 SWAP1 SUB SWAP2 DUP3 ADD PUSH1 0x1F NOT AND DUP4 ADD SWAP2 PUSH1 0x1 PUSH1 0x1 PUSH1 0x40 SHL SUB DUP4 GT DUP5 DUP5 LT OR PUSH2 0xD4 JUMPI DUP1 DUP5 SWAP3 PUSH1 0x80 SWAP5 PUSH1 0x40 MSTORE DUP4 CODECOPY DUP2 ADD SUB SLT PUSH2 0xCF JUMPI DUP1 MLOAD SWAP1 PUSH1 0x20 DUP2 ADD MLOAD SWAP1 PUSH1 0x60 PUSH1 0x40 DUP3 ADD MLOAD SWAP2 ADD MLOAD SWAP2 PUSH1 0x1 DUP1 PUSH1 0xA0 SHL SUB NOT SWAP4 ORIGIN DUP6 PUSH1 0x0 SLOAD AND OR PUSH1 0x0 SSTORE PUSH1 0x80 MSTORE PUSH1 0xC0 MSTORE PUSH1 0xE0 MSTORE PUSH1 0xA0 MSTORE PUSH1 0x1 SLOAD AND PUSH1 0x1 SSTORE PUSH1 0x40 MLOAD PUSH2 0x1087 SWAP1 DUP2 PUSH2 0xEB DUP3 CODECOPY PUSH1 0x80 MLOAD DUP2 PUSH2 0x2A0 ADD MSTORE PUSH1 0xA0 MLOAD DUP2 DUP2 DUP2 PUSH2 0x1E1 ADD MSTORE DUP2 DUP2 PUSH2 0x419 ADD MSTORE PUSH2 0xD45 ADD MSTORE PUSH1 0xC0 MLOAD DUP2 DUP2 DUP2 PUSH2 0x365 ADD MSTORE DUP2 DUP2 PUSH2 0x948 ADD MSTORE PUSH2 0xBA0 ADD MSTORE PUSH1 0xE0 MLOAD DUP2 DUP2 DUP2 PUSH2 0x3E2 ADD MSTORE PUSH2 0x88F ADD MSTORE RETURN JUMPDEST PUSH1 0x0 DUP1 REVERT JUMPDEST PUSH4 0x4E487B71 PUSH1 0xE0 SHL PUSH1 0x0 MSTORE PUSH1 0x41 PUSH1 0x4 MSTORE PUSH1 0x24 PUSH1 0x0 REVERT INVALID PUSH1 0x80 PUSH1 0x40 SWAP1 DUP1 DUP3 MSTORE PUSH1 0x4 SWAP2 DUP3 CALLDATASIZE LT ISZERO PUSH2 0x26 JUMPI JUMPDEST POP POP POP CALLDATASIZE ISZERO PUSH2 0x21 JUMPI PUSH1 0x0 DUP1 REVERT JUMPDEST PUSH1 0x0 DUP1 REVERT JUMPDEST PUSH1 0x0 SWAP3 DUP4 CALLDATALOAD PUSH1 0xE0 SHR SWAP3 DUP4 PUSH4 0x4BEDDCF EQ PUSH2 0xD2E JUMPI POP DUP3 PUSH4 0x52B12D2 EQ PUSH2 0xB85 JUMPI DUP3 PUSH4 0x20A1CC7B EQ PUSH2 0xB5C JUMPI DUP3 PUSH4 0x26638D87 EQ PUSH2 0xAFC JUMPI DUP3 PUSH4 0x3735B3C6 EQ PUSH2 0xAAC JUMPI DUP3 PUSH4 0x391D0B75 EQ PUSH2 0x96B JUMPI DUP3 PUSH4 0x3A2DD2CE EQ PUSH2 0x930 JUMPI DUP3 PUSH4 0x52EFEA6E EQ PUSH2 0x908 JUMPI DUP3 PUSH4 0x57E1282E EQ PUSH2 0x846 JUMPI DUP3 PUSH4 0x58F64498 EQ PUSH2 0x81A JUMPI DUP3 PUSH4 0x5A627DBC EQ PUSH2 0x7D6 JUMPI DUP3 PUSH4 0x5CEA4B5F EQ PUSH2 0x5F9 JUMPI DUP3 PUSH4 0x603D0299 EQ PUSH2 0x5AB JUMPI DUP3 PUSH4 0x7C74E2EC EQ PUSH2 0x58A JUMPI DUP3 PUSH4 0x8DA5CB5B EQ PUSH2 0x562 JUMPI DUP3 PUSH4 0x90636230 EQ PUSH2 0x52B JUMPI DUP3 PUSH4 0x9E89C6F3 EQ PUSH2 0x4FA JUMPI DUP3 PUSH4 0x9F6E52CE EQ PUSH2 0x4D7 JUMPI DUP3 PUSH4 0xA13F89F9 EQ PUSH2 0x405 JUMPI DUP3 PUSH4 0xA91A2182 EQ PUSH2 0x3CA JUMPI DUP3 PUSH4 0xB0EA5340 EQ PUSH2 0x38B JUMPI DUP3 PUSH4 0xB23E7A72 EQ PUSH2 0x2C3 JUMPI DUP3 PUSH4 0xB6B58DCA EQ PUSH2 0x288 JUMPI DUP3 PUSH4 0xDB88497C EQ PUSH2 0x25F JUMPI DUP3 PUSH4 0xE24EDCAB EQ PUSH2 0x22B JUMPI DUP3 PUSH4 0xE64F15A2 EQ PUSH2 0x1AA JUMPI POP POP PUSH4 0xE9393C86 EQ PUSH2 0x161 JUMPI DUP1 DUP1 PUSH2 0x13 JUMP JUMPDEST CALLVALUE PUSH2 0x1A7 JUMPI PUSH1 0x20 CALLDATASIZE PUSH1 0x3 NOT ADD SLT PUSH2 0x1A7 JUMPI PUSH2 0x17A PUSH2 0xD7E JUMP JUMPDEST DUP2 SLOAD PUSH1 0x1 PUSH1 0x1 PUSH1 0xA0 SHL SUB SWAP2 SWAP1 PUSH2 0x193 SWAP1 DUP4 AND CALLER EQ PUSH2 0xE15 JUMP JUMPDEST AND PUSH1 0x1 DUP1 PUSH1 0xA0 SHL SUB NOT PUSH1 0x1 SLOAD AND OR PUSH1 0x1 SSTORE DUP1 RETURN JUMPDEST DUP1 REVERT JUMPDEST SWAP1 SWAP2 POP CALLVALUE PUSH2 0x227 JUMPI PUSH1 0x20 CALLDATASIZE PUSH1 0x3 NOT ADD SLT PUSH2 0x227 JUMPI CALLER DUP4 MSTORE PUSH1 0x2 PUSH1 0x20 MSTORE DUP2 DUP4 KECCAK256 SWAP1 CALLDATALOAD DUP4 MSTORE PUSH1 0x20 MSTORE DUP2 PUSH1 0x1 DUP3 DUP3 KECCAK256 DUP3 DUP2 SSTORE ADD SSTORE DUP2 DUP1 DUP1 DUP1 PUSH32 0x0 DUP2 DUP2 ISZERO PUSH2 0x21E JUMPI JUMPDEST CALLER SWAP1 CALL ISZERO PUSH2 0x214 JUMPI POP DUP1 RETURN JUMPDEST MLOAD SWAP1 RETURNDATASIZE SWAP1 DUP3 RETURNDATACOPY RETURNDATASIZE SWAP1 REVERT JUMPDEST POP PUSH2 0x8FC PUSH2 0x208 JUMP JUMPDEST DUP3 DUP1 REVERT JUMPDEST DUP4 DUP3 CALLVALUE PUSH2 0x25B JUMPI PUSH1 0x20 CALLDATASIZE PUSH1 0x3 NOT ADD SLT PUSH2 0x25B JUMPI DUP1 PUSH1 0x20 SWAP2 PUSH2 0x252 PUSH2 0x24D PUSH2 0xD7E JUMP JUMPDEST PUSH2 0xEF6 JUMP JUMPDEST ADD MLOAD SWAP1 MLOAD SWAP1 DUP2 MSTORE RETURN JUMPDEST POP DUP1 REVERT JUMPDEST DUP4 DUP3 CALLVALUE PUSH2 0x25B JUMPI DUP2 PUSH1 0x3 NOT CALLDATASIZE ADD SLT PUSH2 0x25B JUMPI PUSH1 0x1 SLOAD SWAP1 MLOAD PUSH1 0x1 PUSH1 0x1 PUSH1 0xA0 SHL SUB SWAP1 SWAP2 AND DUP2 MSTORE PUSH1 0x20 SWAP1 RETURN JUMPDEST DUP4 DUP3 CALLVALUE PUSH2 0x25B JUMPI DUP2 PUSH1 0x3 NOT CALLDATASIZE ADD SLT PUSH2 0x25B JUMPI PUSH1 0x20 SWAP1 MLOAD PUSH32 0x0 DUP2 MSTORE RETURN JUMPDEST SWAP1 SWAP2 POP CALLVALUE PUSH2 0x227 JUMPI PUSH1 0x20 CALLDATASIZE PUSH1 0x3 NOT ADD SLT PUSH2 0x227 JUMPI DUP1 CALLDATALOAD SWAP1 DUP2 PUSH1 0x60 PUSH2 0x2E6 CALLER PUSH2 0xEF6 JUMP JUMPDEST ADD MLOAD LT ISZERO DUP1 PUSH2 0x34C JUMPI JUMPDEST ISZERO PUSH2 0x318 JUMPI POP DUP3 DUP1 DUP1 DUP4 PUSH2 0x305 DUP3 SWAP6 CALLER PUSH2 0xF42 JUMP JUMPDEST DUP2 DUP2 ISZERO PUSH2 0x21E JUMPI CALLER SWAP1 CALL ISZERO PUSH2 0x214 JUMPI POP DUP1 RETURN JUMPDEST PUSH1 0x64 SWAP1 PUSH1 0x20 DUP5 MLOAD SWAP2 PUSH3 0x461BCD PUSH1 0xE5 SHL DUP4 MSTORE DUP3 ADD MSTORE PUSH1 0xE PUSH1 0x24 DUP3 ADD MSTORE PUSH14 0x125B9D985B1A5908185B5BDD5B9D PUSH1 0x92 SHL PUSH1 0x44 DUP3 ADD MSTORE REVERT JUMPDEST POP PUSH2 0x363 DUP3 PUSH1 0x60 PUSH2 0x35C CALLER PUSH2 0xEF6 JUMP JUMPDEST ADD MLOAD PUSH2 0xE4E JUMP JUMPDEST PUSH32 0x0 GT ISZERO PUSH2 0x2F0 JUMP JUMPDEST DUP4 DUP3 CALLVALUE PUSH2 0x25B JUMPI PUSH1 0x20 CALLDATASIZE PUSH1 0x3 NOT ADD SLT PUSH2 0x25B JUMPI PUSH1 0x20 SWAP2 PUSH4 0xFFFFFFFF SWAP1 DUP3 SWAP1 PUSH1 0x1 PUSH1 0x1 PUSH1 0xA0 SHL SUB PUSH2 0x3B9 PUSH2 0xD7E JUMP JUMPDEST AND DUP2 MSTORE PUSH1 0x3 DUP6 MSTORE KECCAK256 SLOAD AND SWAP1 MLOAD SWAP1 DUP2 MSTORE RETURN JUMPDEST DUP4 DUP3 CALLVALUE PUSH2 0x25B JUMPI DUP2 PUSH1 0x3 NOT CALLDATASIZE ADD SLT PUSH2 0x25B JUMPI PUSH1 0x20 SWAP1 MLOAD PUSH32 0x0 DUP2 MSTORE RETURN JUMPDEST SWAP1 SWAP2 POP PUSH1 0x60 CALLDATASIZE PUSH1 0x3 NOT ADD SLT PUSH2 0x227 JUMPI DUP1 CALLDATALOAD SWAP1 PUSH32 0x0 CALLVALUE SUB PUSH2 0x498 JUMPI POP DUP2 MLOAD SWAP2 PUSH2 0x44B DUP4 PUSH2 0xDFA JUMP JUMPDEST PUSH1 0x24 CALLDATALOAD DUP4 MSTORE PUSH1 0x20 DUP4 ADD SWAP1 PUSH1 0x44 CALLDATALOAD DUP3 MSTORE CALLER DUP6 MSTORE PUSH1 0x2 PUSH1 0x20 MSTORE DUP1 DUP6 KECCAK256 DUP4 DUP7 MSTORE PUSH1 0x20 MSTORE DUP1 DUP6 KECCAK256 SLOAD PUSH2 0x494 JUMPI PUSH1 0x1 SWAP3 CALLER DUP7 MSTORE PUSH1 0x2 PUSH1 0x20 MSTORE DUP2 DUP7 KECCAK256 SWAP1 DUP7 MSTORE PUSH1 0x20 MSTORE DUP5 KECCAK256 SWAP3 MLOAD DUP4 SSTORE MLOAD SWAP2 ADD SSTORE DUP1 RETURN JUMPDEST DUP5 DUP1 REVERT JUMPDEST PUSH1 0x64 SWAP1 PUSH1 0x20 DUP5 MLOAD SWAP2 PUSH3 0x461BCD PUSH1 0xE5 SHL DUP4 MSTORE DUP3 ADD MSTORE PUSH1 0x19 PUSH1 0x24 DUP3 ADD MSTORE PUSH25 0x135A5B9A5B5D5B481D185CDAC8199959481C995C5D5A5C9959 PUSH1 0x3A SHL PUSH1 0x44 DUP3 ADD MSTORE REVERT JUMPDEST DUP4 DUP3 CALLVALUE PUSH2 0x25B JUMPI PUSH1 0x20 CALLDATASIZE PUSH1 0x3 NOT ADD SLT PUSH2 0x25B JUMPI PUSH1 0x20 SWAP1 PUSH1 0x60 PUSH2 0x252 PUSH2 0x24D PUSH2 0xD7E JUMP JUMPDEST DUP4 DUP3 CALLVALUE PUSH2 0x25B JUMPI DUP1 PUSH1 0x3 NOT CALLDATASIZE ADD SLT PUSH2 0x25B JUMPI PUSH1 0x20 SWAP1 PUSH2 0x523 PUSH2 0x51A PUSH2 0xD7E JUMP JUMPDEST PUSH1 0x24 CALLDATALOAD SWAP1 PUSH2 0xF9C JUMP JUMPDEST MLOAD SWAP1 MLOAD SWAP1 DUP2 MSTORE RETURN JUMPDEST DUP4 SWAP1 CALLVALUE PUSH2 0x25B JUMPI PUSH1 0x20 CALLDATASIZE PUSH1 0x3 NOT ADD SLT PUSH2 0x25B JUMPI PUSH1 0x3 PUSH2 0x559 PUSH2 0x554 PUSH2 0x54F CALLER PUSH2 0xFEF JUMP JUMPDEST PUSH2 0xE71 JUMP JUMPDEST PUSH2 0xD94 JUMP JUMPDEST POP SWAP2 CALLDATALOAD SWAP2 ADD SSTORE DUP1 RETURN JUMPDEST DUP4 DUP3 CALLVALUE PUSH2 0x25B JUMPI DUP2 PUSH1 0x3 NOT CALLDATASIZE ADD SLT PUSH2 0x25B JUMPI SWAP1 SLOAD SWAP1 MLOAD PUSH1 0x1 PUSH1 0x1 PUSH1 0xA0 SHL SUB SWAP1 SWAP2 AND DUP2 MSTORE PUSH1 0x20 SWAP1 RETURN JUMPDEST DUP4 DUP3 CALLVALUE PUSH2 0x25B JUMPI DUP1 PUSH1 0x3 NOT CALLDATASIZE ADD SLT PUSH2 0x25B JUMPI PUSH1 0x20 SWAP1 DUP2 PUSH2 0x252 PUSH2 0x51A PUSH2 0xD7E JUMP JUMPDEST SWAP2 POP CALLVALUE PUSH2 0x227 JUMPI CALLDATASIZE PUSH1 0x3 NOT ADD SLT PUSH2 0x25B JUMPI CALLDATASIZE PUSH1 0x44 GT PUSH2 0x25B JUMPI PUSH2 0x5D3 PUSH2 0x554 PUSH2 0x54F CALLER PUSH2 0xFEF JUMP JUMPDEST POP SWAP1 DUP3 JUMPDEST PUSH1 0x2 DUP2 LT PUSH2 0x5E3 JUMPI DUP4 DUP1 RETURN JUMPDEST PUSH1 0x1 SWAP1 PUSH1 0x20 DUP4 CALLDATALOAD SWAP4 ADD SWAP3 DUP3 DUP3 DUP7 ADD ADD SSTORE ADD PUSH2 0x5D7 JUMP JUMPDEST SWAP1 SWAP2 POP CALLVALUE PUSH2 0x227 JUMPI DUP3 PUSH1 0x3 NOT CALLDATASIZE ADD SLT PUSH2 0x227 JUMPI DUP2 PUSH2 0x616 CALLER PUSH2 0xEF6 JUMP JUMPDEST ADD MLOAD PUSH2 0x79F JUMPI PUSH2 0x625 CALLER PUSH2 0xFEF JUMP JUMPDEST SWAP1 DUP1 PUSH2 0x633 PUSH2 0x554 DUP5 PUSH2 0xE71 JUMP JUMPDEST POP ADD SLOAD DUP2 SLOAD SWAP1 SWAP3 PUSH1 0x0 NOT SWAP2 DUP3 DUP2 ADD SWAP1 DUP2 GT PUSH2 0x78C JUMPI PUSH2 0x651 SWAP1 PUSH2 0xD94 JUMP JUMPDEST POP PUSH2 0x65E PUSH2 0x554 DUP4 PUSH2 0xE71 JUMP JUMPDEST SWAP2 SWAP1 SWAP2 PUSH2 0x77A JUMPI DUP1 DUP6 SWAP2 DUP4 SUB PUSH2 0x734 JUMPI JUMPDEST POP POP POP PUSH2 0x67E PUSH2 0x554 DUP3 PUSH2 0xE71 JUMP JUMPDEST POP PUSH1 0x1 DUP1 PUSH1 0xA0 SHL SUB SWAP1 SLOAD AND DUP7 MSTORE PUSH1 0x3 PUSH1 0x20 MSTORE DUP5 DUP7 KECCAK256 PUSH4 0xFFFFFFFF DUP1 NOT SWAP3 AND DUP3 DUP3 SLOAD AND OR SWAP1 SSTORE CALLER DUP7 MSTORE DUP5 DUP7 KECCAK256 SWAP1 DUP2 SLOAD AND SWAP1 SSTORE DUP2 SLOAD DUP1 ISZERO PUSH2 0x721 JUMPI ADD SWAP1 PUSH2 0x6C2 DUP3 PUSH2 0xD94 JUMP JUMPDEST PUSH2 0x70F JUMPI DUP6 DUP2 SSTORE DUP6 SWAP3 SWAP2 SWAP1 PUSH1 0x3 DUP2 ADD PUSH1 0x1 DUP1 DUP4 ADD JUMPDEST DUP3 DUP2 LT PUSH2 0x703 JUMPI DUP7 DUP10 DUP2 DUP1 DUP1 DUP1 DUP14 DUP13 DUP13 DUP4 DUP2 DUP15 DUP3 DUP16 SSTORE ADD SSTORE SSTORE DUP2 DUP2 ISZERO PUSH2 0x21E JUMPI CALLER SWAP1 CALL ISZERO PUSH2 0x214 JUMPI POP DUP1 RETURN JUMPDEST SWAP6 DUP7 SSTORE DUP9 SWAP6 DUP2 ADD PUSH2 0x6D7 JUMP JUMPDEST PUSH4 0x4E487B71 PUSH1 0xE0 SHL DUP7 MSTORE DUP6 DUP3 MSTORE PUSH1 0x24 DUP7 REVERT JUMPDEST PUSH4 0x4E487B71 PUSH1 0xE0 SHL DUP7 MSTORE PUSH1 0x31 DUP4 MSTORE PUSH1 0x24 DUP7 REVERT JUMPDEST DUP1 SLOAD DUP4 SLOAD PUSH1 0x1 PUSH1 0x1 PUSH1 0xA0 SHL SUB NOT AND PUSH1 0x1 PUSH1 0x1 PUSH1 0xA0 SHL SUB SWAP2 SWAP1 SWAP2 AND OR DUP4 SSTORE DUP2 SWAP1 PUSH2 0x763 PUSH1 0x1 DUP1 DUP4 ADD SWAP1 DUP7 ADD PUSH2 0xF64 JUMP JUMPDEST PUSH1 0x3 DUP2 ADD SLOAD PUSH1 0x3 DUP6 ADD SSTORE ADD SLOAD SWAP2 ADD SSTORE CODESIZE DUP4 DUP2 PUSH2 0x66F JUMP JUMPDEST PUSH4 0x4E487B71 PUSH1 0xE0 SHL DUP9 MSTORE DUP8 DUP6 MSTORE PUSH1 0x24 DUP9 REVERT JUMPDEST PUSH4 0x4E487B71 PUSH1 0xE0 SHL DUP8 MSTORE PUSH1 0x11 DUP5 MSTORE PUSH1 0x24 DUP8 REVERT JUMPDEST PUSH1 0x20 PUSH1 0x64 SWAP3 MLOAD SWAP2 PUSH3 0x461BCD PUSH1 0xE5 SHL DUP4 MSTORE DUP3 ADD MSTORE PUSH1 0x12 PUSH1 0x24 DUP3 ADD MSTORE PUSH18 0x486F73742063616E20676574207461736B73 PUSH1 0x70 SHL PUSH1 0x44 DUP3 ADD MSTORE REVERT JUMPDEST DUP4 SWAP1 DUP2 PUSH1 0x3 NOT CALLDATASIZE ADD SLT PUSH2 0x25B JUMPI DUP1 PUSH2 0x7F3 PUSH2 0x554 PUSH2 0x54F CALLER PUSH2 0xFEF JUMP JUMPDEST POP ADD DUP1 SLOAD SWAP2 CALLVALUE DUP4 ADD DUP1 SWAP4 GT PUSH2 0x807 JUMPI POP SSTORE DUP1 RETURN JUMPDEST PUSH4 0x4E487B71 PUSH1 0xE0 SHL DUP5 MSTORE PUSH1 0x11 SWAP1 MSTORE PUSH1 0x24 DUP4 REVERT JUMPDEST DUP4 DUP3 CALLVALUE PUSH2 0x25B JUMPI PUSH1 0x1 PUSH2 0x82C CALLDATASIZE PUSH2 0xD68 JUMP JUMPDEST SWAP3 SWAP1 CALLER DUP6 MSTORE PUSH1 0x2 PUSH1 0x20 MSTORE DUP2 DUP6 KECCAK256 SWAP1 DUP6 MSTORE PUSH1 0x20 MSTORE DUP4 KECCAK256 ADD SSTORE DUP1 RETURN JUMPDEST SWAP1 SWAP2 POP CALLVALUE PUSH2 0x227 JUMPI DUP2 PUSH1 0x3 NOT CALLDATASIZE ADD SLT PUSH2 0x227 JUMPI PUSH2 0x861 PUSH2 0xD7E JUMP JUMPDEST SWAP1 PUSH1 0x24 CALLDATALOAD PUSH1 0x1 PUSH1 0x1 PUSH1 0xA0 SHL SUB DUP2 DUP2 AND SWAP3 SWAP2 DUP4 SWAP1 SUB PUSH2 0x904 JUMPI PUSH1 0x1 SLOAD AND CALLER SUB PUSH2 0x8D0 JUMPI POP DUP4 DUP1 DUP1 SWAP4 DUP2 SWAP4 PUSH2 0x8B5 PUSH32 0x0 DUP1 SWAP4 PUSH2 0xF42 JUMP JUMPDEST DUP3 DUP3 ISZERO PUSH2 0x8C7 JUMPI JUMPDEST CALL ISZERO PUSH2 0x214 JUMPI POP DUP1 RETURN JUMPDEST POP PUSH2 0x8FC PUSH2 0x8BD JUMP JUMPDEST PUSH1 0x64 SWAP1 PUSH1 0x20 DUP6 MLOAD SWAP2 PUSH3 0x461BCD PUSH1 0xE5 SHL DUP4 MSTORE DUP3 ADD MSTORE PUSH1 0xE PUSH1 0x24 DUP3 ADD MSTORE PUSH14 0x5363686564756C6572206F6E6C79 PUSH1 0x90 SHL PUSH1 0x44 DUP3 ADD MSTORE REVERT JUMPDEST DUP6 DUP1 REVERT JUMPDEST DUP4 CALLVALUE PUSH2 0x1A7 JUMPI DUP1 PUSH1 0x3 NOT CALLDATASIZE ADD SLT PUSH2 0x1A7 JUMPI PUSH2 0x92D PUSH1 0x1 DUP1 PUSH1 0xA0 SHL SUB DUP3 SLOAD AND CALLER EQ PUSH2 0xE15 JUMP JUMPDEST DUP1 RETURN JUMPDEST DUP4 DUP3 CALLVALUE PUSH2 0x25B JUMPI DUP2 PUSH1 0x3 NOT CALLDATASIZE ADD SLT PUSH2 0x25B JUMPI PUSH1 0x20 SWAP1 MLOAD PUSH32 0x0 DUP2 MSTORE RETURN JUMPDEST DUP4 DUP3 CALLVALUE PUSH2 0x25B JUMPI DUP2 PUSH1 0x3 NOT CALLDATASIZE ADD SLT PUSH2 0x25B JUMPI DUP3 SLOAD PUSH1 0x1 PUSH1 0x1 PUSH1 0x40 SHL SUB SWAP2 DUP3 DUP3 GT PUSH2 0xA99 JUMPI DUP1 MLOAD SWAP3 PUSH1 0x5 SWAP3 SWAP1 DUP2 DUP5 SHL PUSH1 0x3F ADD PUSH1 0x1F NOT AND DUP6 ADD SWAP1 DUP2 GT DUP6 DUP3 LT OR PUSH2 0xA86 JUMPI DUP3 SWAP6 SWAP7 SWAP5 SWAP4 SWAP3 MSTORE DUP1 DUP4 MSTORE PUSH1 0x20 SWAP2 DUP3 DUP5 ADD DUP1 SWAP6 DUP9 MSTORE DUP4 DUP9 KECCAK256 DUP9 SWAP2 JUMPDEST DUP5 DUP4 LT PUSH2 0xA5E JUMPI POP POP POP POP POP DUP4 MLOAD SWAP4 DUP2 DUP6 ADD SWAP3 DUP3 DUP7 MSTORE MLOAD DUP1 SWAP4 MSTORE DUP1 DUP6 ADD SWAP4 SWAP6 DUP1 SWAP2 JUMPDEST DUP5 DUP4 LT PUSH2 0x9F6 JUMPI DUP7 DUP7 SUB DUP8 RETURN JUMPDEST SWAP1 SWAP2 SWAP3 SWAP4 SWAP5 DUP5 DUP9 MLOAD PUSH1 0x1 DUP1 PUSH1 0xA0 SHL SUB DUP2 MLOAD AND DUP4 MSTORE DUP2 DUP2 ADD MLOAD DUP3 DUP5 ADD SWAP1 DUP7 SWAP2 JUMPDEST PUSH1 0x2 DUP4 LT PUSH2 0xA48 JUMPI POP POP POP DUP4 DUP2 ADD MLOAD PUSH1 0x60 DUP1 DUP6 ADD SWAP2 SWAP1 SWAP2 MSTORE ADD MLOAD PUSH1 0x80 DUP4 ADD MSTORE SWAP1 SWAP8 ADD SWAP7 PUSH1 0xA0 ADD SWAP5 SWAP4 SWAP3 PUSH1 0x1 ADD SWAP2 SWAP1 PUSH2 0x9E9 JUMP JUMPDEST DUP2 MLOAD DUP2 MSTORE DUP10 SWAP5 PUSH1 0x1 SWAP1 SWAP4 ADD SWAP3 SWAP2 DUP3 ADD SWAP2 ADD PUSH2 0xA15 JUMP JUMPDEST DUP4 DUP7 PUSH1 0x1 SWAP3 PUSH2 0xA72 DUP6 SWAP14 SWAP13 SWAP10 SWAP11 SWAP12 SWAP14 PUSH2 0xE87 JUMP JUMPDEST DUP2 MSTORE ADD SWAP3 ADD SWAP3 ADD SWAP2 SWAP1 SWAP9 SWAP7 SWAP6 SWAP5 SWAP8 SWAP9 PUSH2 0x9C7 JUMP JUMPDEST PUSH4 0x4E487B71 PUSH1 0xE0 SHL DUP7 MSTORE PUSH1 0x41 DUP8 MSTORE PUSH1 0x24 DUP7 REVERT JUMPDEST PUSH4 0x4E487B71 PUSH1 0xE0 SHL DUP5 MSTORE PUSH1 0x41 DUP6 MSTORE PUSH1 0x24 DUP5 REVERT JUMPDEST SWAP2 POP CALLVALUE PUSH2 0x227 JUMPI PUSH1 0x20 CALLDATASIZE PUSH1 0x3 NOT ADD SLT PUSH2 0x227 JUMPI DUP2 CALLDATALOAD SWAP3 DUP3 SLOAD DUP5 LT ISZERO PUSH2 0x1A7 JUMPI POP PUSH2 0xAD7 PUSH1 0x60 SWAP4 PUSH2 0xD94 JUMP JUMPDEST POP SWAP1 PUSH1 0x1 DUP1 PUSH1 0xA0 SHL SUB DUP3 SLOAD AND SWAP3 PUSH1 0x3 DUP4 ADD SLOAD SWAP3 ADD SLOAD SWAP2 DUP2 MLOAD SWAP4 DUP5 MSTORE PUSH1 0x20 DUP5 ADD MSTORE DUP3 ADD MSTORE RETURN JUMPDEST POP DUP3 CALLVALUE PUSH2 0x1A7 JUMPI PUSH1 0x20 DUP1 PUSH1 0x3 NOT CALLDATASIZE ADD SLT PUSH2 0x25B JUMPI SWAP1 PUSH1 0x20 PUSH2 0xB32 PUSH2 0xB1E PUSH2 0xD7E JUMP JUMPDEST DUP6 DUP1 MLOAD PUSH2 0xB2A DUP2 PUSH2 0xDFA JUMP JUMPDEST CALLDATASIZE SWAP1 CALLDATACOPY PUSH2 0xEF6 JUMP JUMPDEST ADD MLOAD DUP4 MLOAD SWAP3 SWAP1 SWAP2 DUP4 JUMPDEST PUSH1 0x2 DUP3 LT PUSH2 0xB47 JUMPI DUP6 DUP6 RETURN JUMPDEST DUP3 DUP1 PUSH1 0x1 SWAP3 DUP7 MLOAD DUP2 MSTORE ADD SWAP5 ADD SWAP2 ADD SWAP1 SWAP3 PUSH2 0xB3B JUMP JUMPDEST DUP4 DUP3 CALLVALUE PUSH2 0x25B JUMPI PUSH2 0xB6C CALLDATASIZE PUSH2 0xD68 JUMP JUMPDEST SWAP2 SWAP1 CALLER DUP5 MSTORE PUSH1 0x2 PUSH1 0x20 MSTORE DUP2 DUP5 KECCAK256 SWAP1 DUP5 MSTORE PUSH1 0x20 MSTORE DUP3 KECCAK256 SSTORE DUP1 RETURN JUMPDEST SWAP2 POP PUSH1 0x60 CALLDATASIZE PUSH1 0x3 NOT ADD SLT PUSH2 0x227 JUMPI PUSH1 0x44 SWAP2 CALLDATASIZE PUSH1 0x44 GT PUSH2 0xD2A JUMPI PUSH32 0x0 CALLVALUE LT PUSH2 0xCEF JUMPI DUP2 MLOAD SWAP1 PUSH2 0xBD1 DUP3 PUSH2 0xDC9 JUMP JUMPDEST CALLER DUP3 MSTORE DUP3 MLOAD SWAP4 PUSH2 0xBE0 DUP6 PUSH2 0xDFA JUMP JUMPDEST DUP2 DUP6 JUMPDEST DUP3 DUP3 LT PUSH2 0xCDF JUMPI POP POP POP PUSH1 0x20 SWAP2 PUSH1 0x20 DUP2 ADD SWAP5 DUP6 MSTORE DUP4 DUP2 ADD PUSH1 0x44 CALLDATALOAD DUP2 MSTORE PUSH1 0x60 DUP3 ADD SWAP1 CALLVALUE DUP3 MSTORE PUSH1 0x1 DUP1 PUSH1 0xA0 SHL SUB DUP1 DUP5 MLOAD AND DUP10 MSTORE PUSH1 0x3 PUSH1 0x20 MSTORE PUSH4 0xFFFFFFFF SWAP6 DUP7 DUP9 DUP12 KECCAK256 SLOAD AND PUSH2 0xCDB JUMPI DUP6 SLOAD SWAP2 PUSH1 0x1 PUSH1 0x40 SHL DUP4 LT ISZERO PUSH2 0xCC8 JUMPI PUSH2 0xC49 PUSH1 0x1 SWAP4 PUSH1 0x1 DUP2 ADD DUP10 SSTORE PUSH2 0xD94 JUMP JUMPDEST SWAP7 SWAP1 SWAP7 PUSH2 0xCB6 JUMPI MLOAD DUP7 SLOAD PUSH1 0x1 PUSH1 0x1 PUSH1 0xA0 SHL SUB NOT AND SWAP2 AND SWAP1 DUP2 OR DUP7 SSTORE SWAP9 MLOAD DUP7 SWAP5 SWAP4 SWAP3 SWAP2 SWAP1 DUP12 JUMPDEST PUSH1 0x2 DUP2 LT PUSH2 0xCA0 JUMPI POP POP POP POP MLOAD PUSH1 0x3 DUP5 ADD SSTORE MLOAD SWAP2 ADD SSTORE SLOAD AND SWAP2 DUP4 MSTORE PUSH1 0x3 PUSH1 0x20 MSTORE DUP3 KECCAK256 SWAP1 PUSH4 0xFFFFFFFF NOT DUP3 SLOAD AND OR SWAP1 SSTORE DUP1 RETURN JUMPDEST DUP2 MLOAD DUP9 DUP3 ADD DUP6 ADD SSTORE DUP9 SWAP7 POP SWAP1 DUP3 ADD SWAP1 DUP4 ADD PUSH2 0xC6E JUMP JUMPDEST PUSH4 0x4E487B71 PUSH1 0xE0 SHL DUP13 MSTORE DUP12 DUP9 MSTORE PUSH1 0x24 DUP13 REVERT JUMPDEST PUSH4 0x4E487B71 PUSH1 0xE0 SHL DUP12 MSTORE PUSH1 0x41 DUP8 MSTORE PUSH1 0x24 DUP12 REVERT JUMPDEST DUP10 DUP1 REVERT JUMPDEST DUP2 CALLDATALOAD DUP2 MSTORE PUSH1 0x20 SWAP2 DUP3 ADD SWAP2 ADD PUSH2 0xBE3 JUMP JUMPDEST PUSH1 0x20 PUSH1 0x64 SWAP3 MLOAD SWAP2 PUSH3 0x461BCD PUSH1 0xE5 SHL DUP4 MSTORE DUP3 ADD MSTORE PUSH1 0x16 PUSH1 0x24 DUP3 ADD MSTORE PUSH22 0x135A5B9A5B5D5B481CDD185AD9481C995C5D5A5C9959 PUSH1 0x52 SHL PUSH1 0x44 DUP3 ADD MSTORE REVERT JUMPDEST DUP4 DUP1 REVERT JUMPDEST DUP5 SWAP1 CALLVALUE PUSH2 0x25B JUMPI DUP2 PUSH1 0x3 NOT CALLDATASIZE ADD SLT PUSH2 0x25B JUMPI PUSH1 0x20 SWAP1 PUSH32 0x0 DUP2 MSTORE RETURN JUMPDEST PUSH1 0x40 SWAP1 PUSH1 0x3 NOT ADD SLT PUSH2 0x21 JUMPI PUSH1 0x4 CALLDATALOAD SWAP1 PUSH1 0x24 CALLDATALOAD SWAP1 JUMP JUMPDEST PUSH1 0x4 CALLDATALOAD SWAP1 PUSH1 0x1 PUSH1 0x1 PUSH1 0xA0 SHL SUB DUP3 AND DUP3 SUB PUSH2 0x21 JUMPI JUMP JUMPDEST PUSH1 0x4 SLOAD DUP2 LT ISZERO PUSH2 0xDB3 JUMPI PUSH1 0x4 PUSH1 0x0 MSTORE PUSH1 0x5 PUSH1 0x20 PUSH1 0x0 KECCAK256 SWAP2 MUL ADD SWAP1 PUSH1 0x0 SWAP1 JUMP JUMPDEST PUSH4 0x4E487B71 PUSH1 0xE0 SHL PUSH1 0x0 MSTORE PUSH1 0x32 PUSH1 0x4 MSTORE PUSH1 0x24 PUSH1 0x0 REVERT JUMPDEST PUSH1 0x80 DUP2 ADD SWAP1 DUP2 LT PUSH1 0x1 PUSH1 0x1 PUSH1 0x40 SHL SUB DUP3 GT OR PUSH2 0xDE4 JUMPI PUSH1 0x40 MSTORE JUMP JUMPDEST PUSH4 0x4E487B71 PUSH1 0xE0 SHL PUSH1 0x0 MSTORE PUSH1 0x41 PUSH1 0x4 MSTORE PUSH1 0x24 PUSH1 0x0 REVERT JUMPDEST PUSH1 0x40 DUP2 ADD SWAP1 DUP2 LT PUSH1 0x1 PUSH1 0x1 PUSH1 0x40 SHL SUB DUP3 GT OR PUSH2 0xDE4 JUMPI PUSH1 0x40 MSTORE JUMP JUMPDEST ISZERO PUSH2 0xE1C JUMPI JUMP JUMPDEST PUSH1 0x40 MLOAD PUSH3 0x461BCD PUSH1 0xE5 SHL DUP2 MSTORE PUSH1 0x20 PUSH1 0x4 DUP3 ADD MSTORE PUSH1 0xA PUSH1 0x24 DUP3 ADD MSTORE PUSH10 0x4F776E6572206F6E6C79 PUSH1 0xB0 SHL PUSH1 0x44 DUP3 ADD MSTORE PUSH1 0x64 SWAP1 REVERT JUMPDEST SWAP2 SWAP1 DUP3 SUB SWAP2 DUP3 GT PUSH2 0xE5B JUMPI JUMP JUMPDEST PUSH4 0x4E487B71 PUSH1 0xE0 SHL PUSH1 0x0 MSTORE PUSH1 0x11 PUSH1 0x4 MSTORE PUSH1 0x24 PUSH1 0x0 REVERT JUMPDEST PUSH4 0xFFFFFFFF SWAP1 DUP2 AND PUSH1 0x0 NOT ADD SWAP2 SWAP1 DUP3 GT PUSH2 0xE5B JUMPI JUMP JUMPDEST SWAP1 PUSH1 0x40 MLOAD PUSH2 0xE94 DUP2 PUSH2 0xDC9 JUMP JUMPDEST DUP3 SLOAD PUSH1 0x1 PUSH1 0x1 PUSH1 0xA0 SHL SUB AND DUP2 MSTORE PUSH1 0x40 MLOAD SWAP1 SWAP3 DUP4 SWAP2 PUSH1 0x1 DUP1 DUP4 ADD PUSH1 0x0 DUP4 JUMPDEST PUSH1 0x2 DUP3 LT PUSH2 0xEE2 JUMPI POP POP POP POP PUSH1 0x60 SWAP2 DUP2 PUSH2 0xECC PUSH1 0x4 SWAP4 PUSH2 0xDFA JUMP JUMPDEST PUSH1 0x20 DUP6 ADD MSTORE PUSH1 0x3 DUP2 ADD SLOAD PUSH1 0x40 DUP6 ADD MSTORE ADD SLOAD SWAP2 ADD MSTORE JUMP JUMPDEST DUP3 SLOAD DUP2 MSTORE SWAP2 DUP4 ADD SWAP2 SWAP1 DUP4 ADD SWAP1 PUSH1 0x20 ADD PUSH2 0xEB1 JUMP JUMPDEST PUSH2 0xF39 PUSH2 0x554 PUSH2 0x54F PUSH2 0xF3F SWAP4 PUSH1 0x0 PUSH1 0x60 PUSH1 0x40 MLOAD PUSH2 0xF13 DUP2 PUSH2 0xDC9 JUMP JUMPDEST DUP3 DUP2 MSTORE PUSH1 0x40 MLOAD PUSH2 0xF22 DUP2 PUSH2 0xDFA JUMP JUMPDEST PUSH1 0x40 CALLDATASIZE DUP3 CALLDATACOPY PUSH1 0x20 DUP3 ADD MSTORE DUP3 PUSH1 0x40 DUP3 ADD MSTORE ADD MSTORE PUSH2 0xFEF JUMP JUMPDEST POP PUSH2 0xE87 JUMP JUMPDEST SWAP1 JUMP JUMPDEST PUSH1 0x4 PUSH2 0xF56 PUSH2 0x554 PUSH2 0x54F PUSH2 0xF60 SWAP5 PUSH2 0xFEF JUMP JUMPDEST POP ADD SWAP2 DUP3 SLOAD PUSH2 0xE4E JUMP JUMPDEST SWAP1 SSTORE JUMP JUMPDEST SWAP1 DUP1 DUP3 EQ PUSH2 0xF98 JUMPI SWAP1 DUP2 SLOAD SWAP1 PUSH1 0x0 SWAP2 JUMPDEST PUSH1 0x2 DUP4 LT PUSH2 0xF82 JUMPI POP POP POP POP JUMP JUMPDEST PUSH1 0x1 DUP1 SWAP2 SWAP5 ADD SWAP3 DUP4 SLOAD SWAP5 DUP2 DUP5 ADD SSTORE ADD SWAP2 SWAP3 PUSH2 0xF74 JUMP JUMPDEST POP POP JUMP JUMPDEST PUSH1 0x40 SWAP2 PUSH1 0x20 SWAP2 DUP4 MLOAD PUSH2 0xFAD DUP2 PUSH2 0xDFA JUMP JUMPDEST PUSH1 0x0 DUP1 DUP3 MSTORE SWAP4 ADD DUP4 SWAP1 MSTORE PUSH1 0x1 PUSH1 0x1 PUSH1 0xA0 SHL SUB AND DUP3 MSTORE PUSH1 0x2 PUSH1 0x20 SWAP1 DUP2 MSTORE DUP4 DUP4 KECCAK256 SWAP2 DUP4 MSTORE MSTORE KECCAK256 PUSH1 0x40 MLOAD SWAP1 PUSH1 0x1 SWAP1 PUSH2 0xFE1 DUP4 PUSH2 0xDFA JUMP JUMPDEST DUP1 SLOAD DUP4 MSTORE ADD SLOAD PUSH1 0x20 DUP3 ADD MSTORE SWAP1 JUMP JUMPDEST PUSH1 0x1 PUSH1 0x1 PUSH1 0xA0 SHL SUB AND PUSH1 0x0 SWAP1 DUP2 MSTORE PUSH1 0x3 PUSH1 0x20 MSTORE PUSH1 0x40 SWAP1 KECCAK256 SLOAD PUSH4 0xFFFFFFFF AND DUP1 ISZERO PUSH2 0x1016 JUMPI SWAP1 JUMP JUMPDEST PUSH1 0x40 MLOAD PUSH3 0x461BCD PUSH1 0xE5 SHL DUP2 MSTORE PUSH1 0x20 PUSH1 0x4 DUP3 ADD MSTORE PUSH1 0x13 PUSH1 0x24 DUP3 ADD MSTORE PUSH19 0x121BDCDD08191BD95CC81B9BDD08195E1A5CDD PUSH1 0x6A SHL PUSH1 0x44 DUP3 ADD MSTORE PUSH1 0x64 SWAP1 REVERT INVALID LOG2 PUSH5 0x6970667358 0x22 SLT KECCAK256 0xEE LOG0 SWAP14 0xEB DUP11 BYTE 0xEF 0xD9 0xC3 CALLVALUE 0xBC 0xC9 PUSH4 0x1351AF85 0xB3 EXTCODESIZE 0x4D PUSH13 0x314CAD251964D2B8C9416E6473 PUSH16 0x6C634300081800330000000000000000 "},"methodIdentifiers":{"FAILED_TASK_PENALTY()":"a91a2182","HOST_INITIAL_STAKE()":"3a2dd2ce","HOST_REGISTER_FEE()":"b6b58dca","TASK_REGISTER_FEE()":"04beddcf","addStake()":"5a627dbc","addTask(bytes32,uint256,uint256)":"a13f89f9","clear()":"52efea6e","deleteHost()":"5cea4b5f","deleteTask(bytes32)":"e64f15a2","getHostBlockTimeoutLimit(address)":"e24edcab","getHostPublicKey(address)":"26638d87","getHostStake(address)":"9f6e52ce","getHosts()":"391d0b75","getTaskBlockTimeout(address,bytes32)":"9e89c6f3","getTaskFee(address,bytes32)":"7c74e2ec","hosts(uint256)":"3735b3c6","hostsIndex(address)":"b0ea5340","owner()":"8da5cb5b","penaltyForFailedTask(address,address)":"57e1282e","registerAsHost(bytes32[2],uint256)":"052b12d2","schedulerContractAddress()":"db88497c","setSchedulerContractAddress(address)":"e9393c86","updateBlockTimeoutLimit(uint256)":"90636230","updatePublicKey(bytes32[2])":"603d0299","updateTaskBlockTimeout(bytes32,uint256)":"20a1cc7b","updateTaskFee(bytes32,uint256)":"58f64498","widthdrawStake(uint256)":"b23e7a72"}}}}}