{"contracts/SchedulerContract.sol":{"MecaSchedulerContract":{"abi":[{"inputs":[{"internalType":"uint256","name":"schedulerFee","type":"uint256"}],"stateMutability":"nonpayable","type":"constructor"},{"stateMutability":"payable","type":"fallback"},{"inputs":[],"name":"SCHEDULER_FEE","outputs":[{"internalType":"uint256","name":"","type":"uint256"}],"stateMutability":"view","type":"function"},{"inputs":[],"name":"clear","outputs":[],"stateMutability":"nonpayable","type":"function"},{"inputs":[{"internalType":"bytes32","name":"taskId","type":"bytes32"}],"name":"finishTask","outputs":[],"stateMutability":"nonpayable","type":"function"},{"inputs":[],"name":"getHostContract","outputs":[{"internalType":"address","name":"","type":"address"}],"stateMutability":"view","type":"function"},{"inputs":[{"internalType":"address","name":"hostAddress","type":"address"}],"name":"getHostFirstAvailableBlock","outputs":[{"internalType":"uint256","name":"","type":"uint256"}],"stateMutability":"view","type":"function"},{"inputs":[],"name":"getTaskContract","outputs":[{"internalType":"address","name":"","type":"address"}],"stateMutability":"view","type":"function"},{"inputs":[],"name":"getTowerContract","outputs":[{"internalType":"address","name":"","type":"address"}],"stateMutability":"view","type":"function"},{"inputs":[{"internalType":"address","name":"towerAddress","type":"address"}],"name":"getTowerCurrentSize","outputs":[{"internalType":"uint256","name":"","type":"uint256"}],"stateMutability":"view","type":"function"},{"inputs":[{"internalType":"address","name":"","type":"address"}],"name":"hostsEndBlock","outputs":[{"internalType":"uint256","name":"","type":"uint256"}],"stateMutability":"view","type":"function"},{"inputs":[],"name":"owner","outputs":[{"internalType":"address payable","name":"","type":"address"}],"stateMutability":"view","type":"function"},{"inputs":[{"internalType":"bytes32","name":"","type":"bytes32"}],"name":"runningTasks","outputs":[{"internalType":"bytes32","name":"ipfsSha256","type":"bytes32"},{"internalType":"bytes32","name":"inputHash","type":"bytes32"},{"internalType":"uint256","name":"size","type":"uint256"},{"internalType":"address","name":"towerAddress","type":"address"},{"internalType":"address","name":"hostAddress","type":"address"},{"internalType":"address","name":"owner","type":"address"},{"internalType":"uint256","name":"startBlock","type":"uint256"},{"internalType":"uint256","name":"blockTimeout","type":"uint256"},{"components":[{"internalType":"uint256","name":"tower","type":"uint256"},{"internalType":"uint256","name":"host","type":"uint256"},{"internalType":"uint256","name":"scheduler","type":"uint256"},{"internalType":"uint256","name":"task","type":"uint256"},{"internalType":"uint256","name":"insurance","type":"uint256"}],"internalType":"struct MecaSchedulerAbstractContract.RunningTaskFee","name":"fee","type":"tuple"}],"stateMutability":"view","type":"function"},{"inputs":[],"name":"schedulerFlag","outputs":[{"internalType":"bool","name":"","type":"bool"}],"stateMutability":"view","type":"function"},{"inputs":[],"name":"schedulerNonce","outputs":[{"internalType":"uint256","name":"","type":"uint256"}],"stateMutability":"view","type":"function"},{"inputs":[{"internalType":"address","name":"towerAddress","type":"address"},{"internalType":"address","name":"hostAddress","type":"address"},{"internalType":"bytes32","name":"ipfsSha256","type":"bytes32"},{"internalType":"bytes32","name":"inputHash","type":"bytes32"}],"name":"sendTask","outputs":[],"stateMutability":"payable","type":"function"},{"inputs":[{"internalType":"address","name":"newHostContract","type":"address"}],"name":"setHostContract","outputs":[],"stateMutability":"nonpayable","type":"function"},{"inputs":[{"internalType":"bool","name":"newSchedulerFlag","type":"bool"}],"name":"setSchedulerFlag","outputs":[],"stateMutability":"nonpayable","type":"function"},{"inputs":[{"internalType":"address","name":"newTaskContract","type":"address"}],"name":"setTaskContract","outputs":[],"stateMutability":"nonpayable","type":"function"},{"inputs":[{"internalType":"address","name":"newTowerContract","type":"address"}],"name":"setTowerContract","outputs":[],"stateMutability":"nonpayable","type":"function"},{"inputs":[{"internalType":"address","name":"","type":"address"}],"name":"towersSize","outputs":[{"internalType":"uint256","name":"","type":"uint256"}],"stateMutability":"view","type":"function"},{"stateMutability":"payable","type":"receive"}],"evm":{"bytecode":{"linkReferences":{},"object":"60a0346100a157601f61112038819003918201601f19168301916001600160401b038311848410176100a6578084926020946040528339810103126100a1575160018060a01b031990328260005416176000556080528060015416600155806002541660025560035416600355600060045560ff196005541660055560405161106390816100bd823960805181818161062a015281816109030152610a820152f35b600080fd5b634e487b7160e01b600052604160045260246000fdfe6080806040526004361015610020575b50361561001b57600080fd5b600080fd5b60003560e01c90816277285b14610ec5575080630182d79e14610e8b5780630efda04f14610e62578063191a1fa514610e3f5780631b1fb71b146107695780632e9269151461072f5780634b95fb06146106e657806352efea6e146106be57806357de12a81461067857806366041a731461064d5780636735f2d614610612578063781d102a146102ed5780638c57c521146102a45780638da5cb5b1461027b578063a074f11e14610252578063abc1e7eb1461018d578063b5c0ca5a14610164578063b64d963d1461011b5763dce83940146100fd573861000f565b3461001b57600036600319011261001b576020600454604051908152f35b3461001b57602036600319011261001b57610134610efb565b6000546001600160a01b03919061014e9083163314610fcd565b1660018060a01b03196003541617600355600080f35b3461001b57600036600319011261001b576001546040516001600160a01b039091168152602090f35b3461001b57602036600319011261001b5760043560005260066020526101a060406000206080815491600181015490600281015460018060a01b0380600384015416908060048501541690600585015416916006850154936101f6600860078801549701610f69565b96604051998a5260208a0152604089015260608801528587015260a086015260c085015260e084015280516101008401526020810151610120840152604081015161014084015260608101516101608401520151610180820152f35b3461001b57600036600319011261001b576002546040516001600160a01b039091168152602090f35b3461001b57600036600319011261001b576000546040516001600160a01b039091168152602090f35b3461001b57602036600319011261001b576102bd610efb565b6000546001600160a01b0391906102d79083163314610fcd565b1660018060a01b03196002541617600255600080f35b3461001b5760208060031936011261001b5760043560405161030e81610f2c565b60008152600083820152600060408201526000606082015260006080820152600060a0820152600060c0820152600060e082015261010090816040519161035483610f11565b60008352600086840152600060408401526000606084015260006080840152015281600052600683526040600020906040519161039083610f2c565b805483526001810154858401526002810154604084015260018060a01b03938460038301541660608501908152858060048501541693608087019485526103fb6008836005840154169260a08a01938452600681015460c08b0152600781015460e08b015201610f69565b958701958652511633036105c25781600052600687526040600020918660036002850154940154166000526007885260406000209283549081039081116105ac578760009493859493859493859455835260068b5282600c6040822082815582600182015582600282015582600382015582600482015582600582015582600682015582600782015582600882015582600982015582600a82015582600b82015501555116865151908282156105a3575bf11561053f5760008080868194511688865101519082821561059a575bf11561053f576000808080608085510151818115610591575b3390f11561053f57838360025416925160246040518095819363f5108acf60e01b835260048301525afa91821561053f57600092610555575b50600093508392839260608493510151918391831561054b575b1690f11561053f57005b6040513d6000823e3d90fd5b6108fc9250610535565b8092508491943d831161058a575b61056d8183610f48565b8101031261001b575191818316830361001b57600092908361051b565b503d610563565b506108fc6104e2565b506108fc6104c9565b506108fc6104ac565b634e487b7160e01b600052601160045260246000fd5b60405162461bcd60e51b815260048101889052602260248201527f4f6e6c7920746865206f776e65722063616e2066696e69736820746865207461604482015261736b60f01b6064820152608490fd5b3461001b57600036600319011261001b5760206040517f00000000000000000000000000000000000000000000000000000000000000008152f35b3461001b57602036600319011261001b57602061067061066b610efb565b611006565b604051908152f35b3461001b57602036600319011261001b5760043580151580910361001b576106ab60018060a01b03600054163314610fcd565b60ff801960055416911617600555600080f35b3461001b57600036600319011261001b576106e460018060a01b03600054163314610fcd565b005b3461001b57602036600319011261001b576106ff610efb565b6000546001600160a01b0391906107199083163314610fcd565b1660018060a01b03196001541617600155600080f35b3461001b57602036600319011261001b576001600160a01b03610750610efb565b1660005260086020526020604060002054604051908152f35b608036600319011261001b5761077d610efb565b6024356001600160a01b038116900361001b5760ff6005541615610e0357600254604051636802756f60e11b8152604435600482015291906001600160a01b0316602083602481845afa92831561053f57600093610dce575b5091602060249360405194858092638b90363b60e01b825260443560048301525afa92831561053f57600093610d9a575b50600154604051639e89c6f360e01b81526001600160a01b0390911691906020818061083b60443560243560048401610fa5565b0381865afa90811561053f57600091610d68575b50600354604051636daed56f60e11b81526001600160a01b03868116600483015260248201889052604482018490529095911690602086606481855afa95861561053f57600096610d34575b50604051631f1d38bb60e21b815290602082806108c060443560243560048401610fa5565b0381895afa91821561053f57600092610d00575b50600a6108ea886108e58589610fc0565b610fc0565b0495610928876108e56109018b6108e5888c610fc0565b7f000000000000000000000000000000000000000000000000000000000000000090610fc0565b3403610ccd57604051630917c3e560e31b81526001600160a01b038316600482015293602090859060249082905afa93841561053f57600094610c98575b5060405163e24edcab60e01b8152602480356001600160a01b03166004830152909491602091869182905afa93841561053f57600094610c64575b506109ad602435611006565b936109c26109bb8787610fc0565b9143610fc0565b10610c155760018060a01b03821660005260076020526109e789604060002054610fc0565b11610bd457600454956040519560018060601b0319808460601b16602089015260243560601b16603488015260443560488801526064356068880152876088880152608887528660c08101106001600160401b0360c089011117610bbe5760c0870160405286516020880120936001890189116105ac57600c99600160809a01600455610a7660c08a01610f11565b60c089015260e08801527f000000000000000000000000000000000000000000000000000000000000000061010088015261012087015261014086015260405197610ac089610f2c565b604435895260643560208a015260408901908152606089019160018060a01b031682528689019060018060a01b0360243516825260a08a019333855260c08b0195865260e08b0196875260c06101008c01980188526000526006602052602060406000209a80518c55015160018b01555160028a0155600389019160018060a01b039051169160018060a01b03199283825416179055600489019060018060a01b0390511682825416179055600588019160018060a01b03905116908254161790555160068601555160078501555180516008850155602081015160098501556040810151600a8501556060810151600b8501550151910155600080f35b634e487b7160e01b600052604160045260246000fd5b60405162461bcd60e51b8152602060048201526019602482015278151bddd95c881cda5e99481b1a5b5a5d08195e18d959591959603a1b6044820152606490fd5b60405162461bcd60e51b815260206004820152602160248201527f486f737420626c6f636b2074696d656f7574206c696d697420657863656564656044820152601960fa1b6064820152608490fd5b9093506020813d602011610c90575b81610c8060209383610f48565b8101031261001b575192896109a1565b3d9150610c73565b93506020843d602011610cc5575b81610cb360209383610f48565b8101031261001b579251926020610966565b3d9150610ca6565b60405162461bcd60e51b815260206004820152600b60248201526a57726f6e672066756e647360a81b6044820152606490fd5b9091506020813d602011610d2c575b81610d1c60209383610f48565b8101031261001b575190886108d4565b3d9150610d0f565b9095506020813d602011610d60575b81610d5060209383610f48565b8101031261001b5751948761089b565b3d9150610d43565b90506020813d602011610d92575b81610d8360209383610f48565b8101031261001b57518561084f565b3d9150610d76565b9092506020813d602011610dc6575b81610db660209383610f48565b8101031261001b57519183610807565b3d9150610da9565b92506020833d602011610dfb575b81610de960209383610f48565b8101031261001b5791519160206107d6565b3d9150610ddc565b60405162461bcd60e51b81526020600482015260146024820152735363686564756c6572206e6f742061637469766560601b6044820152606490fd5b3461001b57600036600319011261001b57602060ff600554166040519015158152f35b3461001b57600036600319011261001b576003546040516001600160a01b039091168152602090f35b3461001b57602036600319011261001b576001600160a01b03610eac610efb565b1660005260076020526020604060002054604051908152f35b3461001b57602036600319011261001b576020906001600160a01b03610ee9610efb565b16600052600782526040600020548152f35b600435906001600160a01b038216820361001b57565b60a081019081106001600160401b03821117610bbe57604052565b61012081019081106001600160401b03821117610bbe57604052565b90601f801991011681019081106001600160401b03821117610bbe57604052565b90604051610f7681610f11565b608060048294805484526001810154602085015260028101546040850152600381015460608501520154910152565b6001600160a01b039091168152602081019190915260400190565b919082018092116105ac57565b15610fd457565b60405162461bcd60e51b815260206004820152600a6024820152694f776e6572206f6e6c7960b01b6044820152606490fd5b6001600160a01b03166000908152600860205260409020544381106110285790565b50439056fea2646970667358221220f3d99851ae2836eb174702a60db4db024625818919cf329fdff588c476c7971e64736f6c63430008180033","opcodes":"PUSH1 0xA0 CALLVALUE PUSH2 0xA1 JUMPI PUSH1 0x1F PUSH2 0x1120 CODESIZE DUP2 SWAP1 SUB SWAP2 DUP3 ADD PUSH1 0x1F NOT AND DUP4 ADD SWAP2 PUSH1 0x1 PUSH1 0x1 PUSH1 0x40 SHL SUB DUP4 GT DUP5 DUP5 LT OR PUSH2 0xA6 JUMPI DUP1 DUP5 SWAP3 PUSH1 0x20 SWAP5 PUSH1 0x40 MSTORE DUP4 CODECOPY DUP2 ADD SUB SLT PUSH2 0xA1 JUMPI MLOAD PUSH1 0x1 DUP1 PUSH1 0xA0 SHL SUB NOT SWAP1 ORIGIN DUP3 PUSH1 0x0 SLOAD AND OR PUSH1 0x0 SSTORE PUSH1 0x80 MSTORE DUP1 PUSH1 0x1 SLOAD AND PUSH1 0x1 SSTORE DUP1 PUSH1 0x2 SLOAD AND PUSH1 0x2 SSTORE PUSH1 0x3 SLOAD AND PUSH1 0x3 SSTORE PUSH1 0x0 PUSH1 0x4 SSTORE PUSH1 0xFF NOT PUSH1 0x5 SLOAD AND PUSH1 0x5 SSTORE PUSH1 0x40 MLOAD PUSH2 0x1063 SWAP1 DUP2 PUSH2 0xBD DUP3 CODECOPY PUSH1 0x80 MLOAD DUP2 DUP2 DUP2 PUSH2 0x62A ADD MSTORE DUP2 DUP2 PUSH2 0x903 ADD MSTORE PUSH2 0xA82 ADD MSTORE RETURN JUMPDEST PUSH1 0x0 DUP1 REVERT JUMPDEST PUSH4 0x4E487B71 PUSH1 0xE0 SHL PUSH1 0x0 MSTORE PUSH1 0x41 PUSH1 0x4 MSTORE PUSH1 0x24 PUSH1 0x0 REVERT INVALID PUSH1 0x80 DUP1 PUSH1 0x40 MSTORE PUSH1 0x4 CALLDATASIZE LT ISZERO PUSH2 0x20 JUMPI JUMPDEST POP CALLDATASIZE ISZERO PUSH2 0x1B JUMPI PUSH1 0x0 DUP1 REVERT JUMPDEST PUSH1 0x0 DUP1 REVERT JUMPDEST PUSH1 0x0 CALLDATALOAD PUSH1 0xE0 SHR SWAP1 DUP2 PUSH3 0x77285B EQ PUSH2 0xEC5 JUMPI POP DUP1 PUSH4 0x182D79E EQ PUSH2 0xE8B JUMPI DUP1 PUSH4 0xEFDA04F EQ PUSH2 0xE62 JUMPI DUP1 PUSH4 0x191A1FA5 EQ PUSH2 0xE3F JUMPI DUP1 PUSH4 0x1B1FB71B EQ PUSH2 0x769 JUMPI DUP1 PUSH4 0x2E926915 EQ PUSH2 0x72F JUMPI DUP1 PUSH4 0x4B95FB06 EQ PUSH2 0x6E6 JUMPI DUP1 PUSH4 0x52EFEA6E EQ PUSH2 0x6BE JUMPI DUP1 PUSH4 0x57DE12A8 EQ PUSH2 0x678 JUMPI DUP1 PUSH4 0x66041A73 EQ PUSH2 0x64D JUMPI DUP1 PUSH4 0x6735F2D6 EQ PUSH2 0x612 JUMPI DUP1 PUSH4 0x781D102A EQ PUSH2 0x2ED JUMPI DUP1 PUSH4 0x8C57C521 EQ PUSH2 0x2A4 JUMPI DUP1 PUSH4 0x8DA5CB5B EQ PUSH2 0x27B JUMPI DUP1 PUSH4 0xA074F11E EQ PUSH2 0x252 JUMPI DUP1 PUSH4 0xABC1E7EB EQ PUSH2 0x18D JUMPI DUP1 PUSH4 0xB5C0CA5A EQ PUSH2 0x164 JUMPI DUP1 PUSH4 0xB64D963D EQ PUSH2 0x11B JUMPI PUSH4 0xDCE83940 EQ PUSH2 0xFD JUMPI CODESIZE PUSH2 0xF JUMP JUMPDEST CALLVALUE PUSH2 0x1B JUMPI PUSH1 0x0 CALLDATASIZE PUSH1 0x3 NOT ADD SLT PUSH2 0x1B JUMPI PUSH1 0x20 PUSH1 0x4 SLOAD PUSH1 0x40 MLOAD SWAP1 DUP2 MSTORE RETURN JUMPDEST CALLVALUE PUSH2 0x1B JUMPI PUSH1 0x20 CALLDATASIZE PUSH1 0x3 NOT ADD SLT PUSH2 0x1B JUMPI PUSH2 0x134 PUSH2 0xEFB JUMP JUMPDEST PUSH1 0x0 SLOAD PUSH1 0x1 PUSH1 0x1 PUSH1 0xA0 SHL SUB SWAP2 SWAP1 PUSH2 0x14E SWAP1 DUP4 AND CALLER EQ PUSH2 0xFCD JUMP JUMPDEST AND PUSH1 0x1 DUP1 PUSH1 0xA0 SHL SUB NOT PUSH1 0x3 SLOAD AND OR PUSH1 0x3 SSTORE PUSH1 0x0 DUP1 RETURN JUMPDEST CALLVALUE PUSH2 0x1B JUMPI PUSH1 0x0 CALLDATASIZE PUSH1 0x3 NOT ADD SLT PUSH2 0x1B JUMPI PUSH1 0x1 SLOAD PUSH1 0x40 MLOAD PUSH1 0x1 PUSH1 0x1 PUSH1 0xA0 SHL SUB SWAP1 SWAP2 AND DUP2 MSTORE PUSH1 0x20 SWAP1 RETURN JUMPDEST CALLVALUE PUSH2 0x1B JUMPI PUSH1 0x20 CALLDATASIZE PUSH1 0x3 NOT ADD SLT PUSH2 0x1B JUMPI PUSH1 0x4 CALLDATALOAD PUSH1 0x0 MSTORE PUSH1 0x6 PUSH1 0x20 MSTORE PUSH2 0x1A0 PUSH1 0x40 PUSH1 0x0 KECCAK256 PUSH1 0x80 DUP2 SLOAD SWAP2 PUSH1 0x1 DUP2 ADD SLOAD SWAP1 PUSH1 0x2 DUP2 ADD SLOAD PUSH1 0x1 DUP1 PUSH1 0xA0 SHL SUB DUP1 PUSH1 0x3 DUP5 ADD SLOAD AND SWAP1 DUP1 PUSH1 0x4 DUP6 ADD SLOAD AND SWAP1 PUSH1 0x5 DUP6 ADD SLOAD AND SWAP2 PUSH1 0x6 DUP6 ADD SLOAD SWAP4 PUSH2 0x1F6 PUSH1 0x8 PUSH1 0x7 DUP9 ADD SLOAD SWAP8 ADD PUSH2 0xF69 JUMP JUMPDEST SWAP7 PUSH1 0x40 MLOAD SWAP10 DUP11 MSTORE PUSH1 0x20 DUP11 ADD MSTORE PUSH1 0x40 DUP10 ADD MSTORE PUSH1 0x60 DUP9 ADD MSTORE DUP6 DUP8 ADD MSTORE PUSH1 0xA0 DUP7 ADD MSTORE PUSH1 0xC0 DUP6 ADD MSTORE PUSH1 0xE0 DUP5 ADD MSTORE DUP1 MLOAD PUSH2 0x100 DUP5 ADD MSTORE PUSH1 0x20 DUP2 ADD MLOAD PUSH2 0x120 DUP5 ADD MSTORE PUSH1 0x40 DUP2 ADD MLOAD PUSH2 0x140 DUP5 ADD MSTORE PUSH1 0x60 DUP2 ADD MLOAD PUSH2 0x160 DUP5 ADD MSTORE ADD MLOAD PUSH2 0x180 DUP3 ADD MSTORE RETURN JUMPDEST CALLVALUE PUSH2 0x1B JUMPI PUSH1 0x0 CALLDATASIZE PUSH1 0x3 NOT ADD SLT PUSH2 0x1B JUMPI PUSH1 0x2 SLOAD PUSH1 0x40 MLOAD PUSH1 0x1 PUSH1 0x1 PUSH1 0xA0 SHL SUB SWAP1 SWAP2 AND DUP2 MSTORE PUSH1 0x20 SWAP1 RETURN JUMPDEST CALLVALUE PUSH2 0x1B JUMPI PUSH1 0x0 CALLDATASIZE PUSH1 0x3 NOT ADD SLT PUSH2 0x1B JUMPI PUSH1 0x0 SLOAD PUSH1 0x40 MLOAD PUSH1 0x1 PUSH1 0x1 PUSH1 0xA0 SHL SUB SWAP1 SWAP2 AND DUP2 MSTORE PUSH1 0x20 SWAP1 RETURN JUMPDEST CALLVALUE PUSH2 0x1B JUMPI PUSH1 0x20 CALLDATASIZE PUSH1 0x3 NOT ADD SLT PUSH2 0x1B JUMPI PUSH2 0x2BD PUSH2 0xEFB JUMP JUMPDEST PUSH1 0x0 SLOAD PUSH1 0x1 PUSH1 0x1 PUSH1 0xA0 SHL SUB SWAP2 SWAP1 PUSH2 0x2D7 SWAP1 DUP4 AND CALLER EQ PUSH2 0xFCD JUMP JUMPDEST AND PUSH1 0x1 DUP1 PUSH1 0xA0 SHL SUB NOT PUSH1 0x2 SLOAD AND OR PUSH1 0x2 SSTORE PUSH1 0x0 DUP1 RETURN JUMPDEST CALLVALUE PUSH2 0x1B JUMPI PUSH1 0x20 DUP1 PUSH1 0x3 NOT CALLDATASIZE ADD SLT PUSH2 0x1B JUMPI PUSH1 0x4 CALLDATALOAD PUSH1 0x40 MLOAD PUSH2 0x30E DUP2 PUSH2 0xF2C JUMP JUMPDEST PUSH1 0x0 DUP2 MSTORE PUSH1 0x0 DUP4 DUP3 ADD MSTORE PUSH1 0x0 PUSH1 0x40 DUP3 ADD MSTORE PUSH1 0x0 PUSH1 0x60 DUP3 ADD MSTORE PUSH1 0x0 PUSH1 0x80 DUP3 ADD MSTORE PUSH1 0x0 PUSH1 0xA0 DUP3 ADD MSTORE PUSH1 0x0 PUSH1 0xC0 DUP3 ADD MSTORE PUSH1 0x0 PUSH1 0xE0 DUP3 ADD MSTORE PUSH2 0x100 SWAP1 DUP2 PUSH1 0x40 MLOAD SWAP2 PUSH2 0x354 DUP4 PUSH2 0xF11 JUMP JUMPDEST PUSH1 0x0 DUP4 MSTORE PUSH1 0x0 DUP7 DUP5 ADD MSTORE PUSH1 0x0 PUSH1 0x40 DUP5 ADD MSTORE PUSH1 0x0 PUSH1 0x60 DUP5 ADD MSTORE PUSH1 0x0 PUSH1 0x80 DUP5 ADD MSTORE ADD MSTORE DUP2 PUSH1 0x0 MSTORE PUSH1 0x6 DUP4 MSTORE PUSH1 0x40 PUSH1 0x0 KECCAK256 SWAP1 PUSH1 0x40 MLOAD SWAP2 PUSH2 0x390 DUP4 PUSH2 0xF2C JUMP JUMPDEST DUP1 SLOAD DUP4 MSTORE PUSH1 0x1 DUP2 ADD SLOAD DUP6 DUP5 ADD MSTORE PUSH1 0x2 DUP2 ADD SLOAD PUSH1 0x40 DUP5 ADD MSTORE PUSH1 0x1 DUP1 PUSH1 0xA0 SHL SUB SWAP4 DUP5 PUSH1 0x3 DUP4 ADD SLOAD AND PUSH1 0x60 DUP6 ADD SWAP1 DUP2 MSTORE DUP6 DUP1 PUSH1 0x4 DUP6 ADD SLOAD AND SWAP4 PUSH1 0x80 DUP8 ADD SWAP5 DUP6 MSTORE PUSH2 0x3FB PUSH1 0x8 DUP4 PUSH1 0x5 DUP5 ADD SLOAD AND SWAP3 PUSH1 0xA0 DUP11 ADD SWAP4 DUP5 MSTORE PUSH1 0x6 DUP2 ADD SLOAD PUSH1 0xC0 DUP12 ADD MSTORE PUSH1 0x7 DUP2 ADD SLOAD PUSH1 0xE0 DUP12 ADD MSTORE ADD PUSH2 0xF69 JUMP JUMPDEST SWAP6 DUP8 ADD SWAP6 DUP7 MSTORE MLOAD AND CALLER SUB PUSH2 0x5C2 JUMPI DUP2 PUSH1 0x0 MSTORE PUSH1 0x6 DUP8 MSTORE PUSH1 0x40 PUSH1 0x0 KECCAK256 SWAP2 DUP7 PUSH1 0x3 PUSH1 0x2 DUP6 ADD SLOAD SWAP5 ADD SLOAD AND PUSH1 0x0 MSTORE PUSH1 0x7 DUP9 MSTORE PUSH1 0x40 PUSH1 0x0 KECCAK256 SWAP3 DUP4 SLOAD SWAP1 DUP2 SUB SWAP1 DUP2 GT PUSH2 0x5AC JUMPI DUP8 PUSH1 0x0 SWAP5 SWAP4 DUP6 SWAP5 SWAP4 DUP6 SWAP5 SWAP4 DUP6 SWAP5 SSTORE DUP4 MSTORE PUSH1 0x6 DUP12 MSTORE DUP3 PUSH1 0xC PUSH1 0x40 DUP3 KECCAK256 DUP3 DUP2 SSTORE DUP3 PUSH1 0x1 DUP3 ADD SSTORE DUP3 PUSH1 0x2 DUP3 ADD SSTORE DUP3 PUSH1 0x3 DUP3 ADD SSTORE DUP3 PUSH1 0x4 DUP3 ADD SSTORE DUP3 PUSH1 0x5 DUP3 ADD SSTORE DUP3 PUSH1 0x6 DUP3 ADD SSTORE DUP3 PUSH1 0x7 DUP3 ADD SSTORE DUP3 PUSH1 0x8 DUP3 ADD SSTORE DUP3 PUSH1 0x9 DUP3 ADD SSTORE DUP3 PUSH1 0xA DUP3 ADD SSTORE DUP3 PUSH1 0xB DUP3 ADD SSTORE ADD SSTORE MLOAD AND DUP7 MLOAD MLOAD SWAP1 DUP3 DUP3 ISZERO PUSH2 0x5A3 JUMPI JUMPDEST CALL ISZERO PUSH2 0x53F JUMPI PUSH1 0x0 DUP1 DUP1 DUP7 DUP2 SWAP5 MLOAD AND DUP9 DUP7 MLOAD ADD MLOAD SWAP1 DUP3 DUP3 ISZERO PUSH2 0x59A JUMPI JUMPDEST CALL ISZERO PUSH2 0x53F JUMPI PUSH1 0x0 DUP1 DUP1 DUP1 PUSH1 0x80 DUP6 MLOAD ADD MLOAD DUP2 DUP2 ISZERO PUSH2 0x591 JUMPI JUMPDEST CALLER SWAP1 CALL ISZERO PUSH2 0x53F JUMPI DUP4 DUP4 PUSH1 0x2 SLOAD AND SWAP3 MLOAD PUSH1 0x24 PUSH1 0x40 MLOAD DUP1 SWAP6 DUP2 SWAP4 PUSH4 0xF5108ACF PUSH1 0xE0 SHL DUP4 MSTORE PUSH1 0x4 DUP4 ADD MSTORE GAS STATICCALL SWAP2 DUP3 ISZERO PUSH2 0x53F JUMPI PUSH1 0x0 SWAP3 PUSH2 0x555 JUMPI JUMPDEST POP PUSH1 0x0 SWAP4 POP DUP4 SWAP3 DUP4 SWAP3 PUSH1 0x60 DUP5 SWAP4 MLOAD ADD MLOAD SWAP2 DUP4 SWAP2 DUP4 ISZERO PUSH2 0x54B JUMPI JUMPDEST AND SWAP1 CALL ISZERO PUSH2 0x53F JUMPI STOP JUMPDEST PUSH1 0x40 MLOAD RETURNDATASIZE PUSH1 0x0 DUP3 RETURNDATACOPY RETURNDATASIZE SWAP1 REVERT JUMPDEST PUSH2 0x8FC SWAP3 POP PUSH2 0x535 JUMP JUMPDEST DUP1 SWAP3 POP DUP5 SWAP2 SWAP5 RETURNDATASIZE DUP4 GT PUSH2 0x58A JUMPI JUMPDEST PUSH2 0x56D DUP2 DUP4 PUSH2 0xF48 JUMP JUMPDEST DUP2 ADD SUB SLT PUSH2 0x1B JUMPI MLOAD SWAP2 DUP2 DUP4 AND DUP4 SUB PUSH2 0x1B JUMPI PUSH1 0x0 SWAP3 SWAP1 DUP4 PUSH2 0x51B JUMP JUMPDEST POP RETURNDATASIZE PUSH2 0x563 JUMP JUMPDEST POP PUSH2 0x8FC PUSH2 0x4E2 JUMP JUMPDEST POP PUSH2 0x8FC PUSH2 0x4C9 JUMP JUMPDEST POP PUSH2 0x8FC PUSH2 0x4AC JUMP JUMPDEST PUSH4 0x4E487B71 PUSH1 0xE0 SHL PUSH1 0x0 MSTORE PUSH1 0x11 PUSH1 0x4 MSTORE PUSH1 0x24 PUSH1 0x0 REVERT JUMPDEST PUSH1 0x40 MLOAD PUSH3 0x461BCD PUSH1 0xE5 SHL DUP2 MSTORE PUSH1 0x4 DUP2 ADD DUP9 SWAP1 MSTORE PUSH1 0x22 PUSH1 0x24 DUP3 ADD MSTORE PUSH32 0x4F6E6C7920746865206F776E65722063616E2066696E69736820746865207461 PUSH1 0x44 DUP3 ADD MSTORE PUSH2 0x736B PUSH1 0xF0 SHL PUSH1 0x64 DUP3 ADD MSTORE PUSH1 0x84 SWAP1 REVERT JUMPDEST CALLVALUE PUSH2 0x1B JUMPI PUSH1 0x0 CALLDATASIZE PUSH1 0x3 NOT ADD SLT PUSH2 0x1B JUMPI PUSH1 0x20 PUSH1 0x40 MLOAD PUSH32 0x0 DUP2 MSTORE RETURN JUMPDEST CALLVALUE PUSH2 0x1B JUMPI PUSH1 0x20 CALLDATASIZE PUSH1 0x3 NOT ADD SLT PUSH2 0x1B JUMPI PUSH1 0x20 PUSH2 0x670 PUSH2 0x66B PUSH2 0xEFB JUMP JUMPDEST PUSH2 0x1006 JUMP JUMPDEST PUSH1 0x40 MLOAD SWAP1 DUP2 MSTORE RETURN JUMPDEST CALLVALUE PUSH2 0x1B JUMPI PUSH1 0x20 CALLDATASIZE PUSH1 0x3 NOT ADD SLT PUSH2 0x1B JUMPI PUSH1 0x4 CALLDATALOAD DUP1 ISZERO ISZERO DUP1 SWAP2 SUB PUSH2 0x1B JUMPI PUSH2 0x6AB PUSH1 0x1 DUP1 PUSH1 0xA0 SHL SUB PUSH1 0x0 SLOAD AND CALLER EQ PUSH2 0xFCD JUMP JUMPDEST PUSH1 0xFF DUP1 NOT PUSH1 0x5 SLOAD AND SWAP2 AND OR PUSH1 0x5 SSTORE PUSH1 0x0 DUP1 RETURN JUMPDEST CALLVALUE PUSH2 0x1B JUMPI PUSH1 0x0 CALLDATASIZE PUSH1 0x3 NOT ADD SLT PUSH2 0x1B JUMPI PUSH2 0x6E4 PUSH1 0x1 DUP1 PUSH1 0xA0 SHL SUB PUSH1 0x0 SLOAD AND CALLER EQ PUSH2 0xFCD JUMP JUMPDEST STOP JUMPDEST CALLVALUE PUSH2 0x1B JUMPI PUSH1 0x20 CALLDATASIZE PUSH1 0x3 NOT ADD SLT PUSH2 0x1B JUMPI PUSH2 0x6FF PUSH2 0xEFB JUMP JUMPDEST PUSH1 0x0 SLOAD PUSH1 0x1 PUSH1 0x1 PUSH1 0xA0 SHL SUB SWAP2 SWAP1 PUSH2 0x719 SWAP1 DUP4 AND CALLER EQ PUSH2 0xFCD JUMP JUMPDEST AND PUSH1 0x1 DUP1 PUSH1 0xA0 SHL SUB NOT PUSH1 0x1 SLOAD AND OR PUSH1 0x1 SSTORE PUSH1 0x0 DUP1 RETURN JUMPDEST CALLVALUE PUSH2 0x1B JUMPI PUSH1 0x20 CALLDATASIZE PUSH1 0x3 NOT ADD SLT PUSH2 0x1B JUMPI PUSH1 0x1 PUSH1 0x1 PUSH1 0xA0 SHL SUB PUSH2 0x750 PUSH2 0xEFB JUMP JUMPDEST AND PUSH1 0x0 MSTORE PUSH1 0x8 PUSH1 0x20 MSTORE PUSH1 0x20 PUSH1 0x40 PUSH1 0x0 KECCAK256 SLOAD PUSH1 0x40 MLOAD SWAP1 DUP2 MSTORE RETURN JUMPDEST PUSH1 0x80 CALLDATASIZE PUSH1 0x3 NOT ADD SLT PUSH2 0x1B JUMPI PUSH2 0x77D PUSH2 0xEFB JUMP JUMPDEST PUSH1 0x24 CALLDATALOAD PUSH1 0x1 PUSH1 0x1 PUSH1 0xA0 SHL SUB DUP2 AND SWAP1 SUB PUSH2 0x1B JUMPI PUSH1 0xFF PUSH1 0x5 SLOAD AND ISZERO PUSH2 0xE03 JUMPI PUSH1 0x2 SLOAD PUSH1 0x40 MLOAD PUSH4 0x6802756F PUSH1 0xE1 SHL DUP2 MSTORE PUSH1 0x44 CALLDATALOAD PUSH1 0x4 DUP3 ADD MSTORE SWAP2 SWAP1 PUSH1 0x1 PUSH1 0x1 PUSH1 0xA0 SHL SUB AND PUSH1 0x20 DUP4 PUSH1 0x24 DUP2 DUP5 GAS STATICCALL SWAP3 DUP4 ISZERO PUSH2 0x53F JUMPI PUSH1 0x0 SWAP4 PUSH2 0xDCE JUMPI JUMPDEST POP SWAP2 PUSH1 0x20 PUSH1 0x24 SWAP4 PUSH1 0x40 MLOAD SWAP5 DUP6 DUP1 SWAP3 PUSH4 0x8B90363B PUSH1 0xE0 SHL DUP3 MSTORE PUSH1 0x44 CALLDATALOAD PUSH1 0x4 DUP4 ADD MSTORE GAS STATICCALL SWAP3 DUP4 ISZERO PUSH2 0x53F JUMPI PUSH1 0x0 SWAP4 PUSH2 0xD9A JUMPI JUMPDEST POP PUSH1 0x1 SLOAD PUSH1 0x40 MLOAD PUSH4 0x9E89C6F3 PUSH1 0xE0 SHL DUP2 MSTORE PUSH1 0x1 PUSH1 0x1 PUSH1 0xA0 SHL SUB SWAP1 SWAP2 AND SWAP2 SWAP1 PUSH1 0x20 DUP2 DUP1 PUSH2 0x83B PUSH1 0x44 CALLDATALOAD PUSH1 0x24 CALLDATALOAD PUSH1 0x4 DUP5 ADD PUSH2 0xFA5 JUMP JUMPDEST SUB DUP2 DUP7 GAS STATICCALL SWAP1 DUP2 ISZERO PUSH2 0x53F JUMPI PUSH1 0x0 SWAP2 PUSH2 0xD68 JUMPI JUMPDEST POP PUSH1 0x3 SLOAD PUSH1 0x40 MLOAD PUSH4 0x6DAED56F PUSH1 0xE1 SHL DUP2 MSTORE PUSH1 0x1 PUSH1 0x1 PUSH1 0xA0 SHL SUB DUP7 DUP2 AND PUSH1 0x4 DUP4 ADD MSTORE PUSH1 0x24 DUP3 ADD DUP9 SWAP1 MSTORE PUSH1 0x44 DUP3 ADD DUP5 SWAP1 MSTORE SWAP1 SWAP6 SWAP2 AND SWAP1 PUSH1 0x20 DUP7 PUSH1 0x64 DUP2 DUP6 GAS STATICCALL SWAP6 DUP7 ISZERO PUSH2 0x53F JUMPI PUSH1 0x0 SWAP7 PUSH2 0xD34 JUMPI JUMPDEST POP PUSH1 0x40 MLOAD PUSH4 0x1F1D38BB PUSH1 0xE2 SHL DUP2 MSTORE SWAP1 PUSH1 0x20 DUP3 DUP1 PUSH2 0x8C0 PUSH1 0x44 CALLDATALOAD PUSH1 0x24 CALLDATALOAD PUSH1 0x4 DUP5 ADD PUSH2 0xFA5 JUMP JUMPDEST SUB DUP2 DUP10 GAS STATICCALL SWAP2 DUP3 ISZERO PUSH2 0x53F JUMPI PUSH1 0x0 SWAP3 PUSH2 0xD00 JUMPI JUMPDEST POP PUSH1 0xA PUSH2 0x8EA DUP9 PUSH2 0x8E5 DUP6 DUP10 PUSH2 0xFC0 JUMP JUMPDEST PUSH2 0xFC0 JUMP JUMPDEST DIV SWAP6 PUSH2 0x928 DUP8 PUSH2 0x8E5 PUSH2 0x901 DUP12 PUSH2 0x8E5 DUP9 DUP13 PUSH2 0xFC0 JUMP JUMPDEST PUSH32 0x0 SWAP1 PUSH2 0xFC0 JUMP JUMPDEST CALLVALUE SUB PUSH2 0xCCD JUMPI PUSH1 0x40 MLOAD PUSH4 0x917C3E5 PUSH1 0xE3 SHL DUP2 MSTORE PUSH1 0x1 PUSH1 0x1 PUSH1 0xA0 SHL SUB DUP4 AND PUSH1 0x4 DUP3 ADD MSTORE SWAP4 PUSH1 0x20 SWAP1 DUP6 SWAP1 PUSH1 0x24 SWAP1 DUP3 SWAP1 GAS STATICCALL SWAP4 DUP5 ISZERO PUSH2 0x53F JUMPI PUSH1 0x0 SWAP5 PUSH2 0xC98 JUMPI JUMPDEST POP PUSH1 0x40 MLOAD PUSH4 0xE24EDCAB PUSH1 0xE0 SHL DUP2 MSTORE PUSH1 0x24 DUP1 CALLDATALOAD PUSH1 0x1 PUSH1 0x1 PUSH1 0xA0 SHL SUB AND PUSH1 0x4 DUP4 ADD MSTORE SWAP1 SWAP5 SWAP2 PUSH1 0x20 SWAP2 DUP7 SWAP2 DUP3 SWAP1 GAS STATICCALL SWAP4 DUP5 ISZERO PUSH2 0x53F JUMPI PUSH1 0x0 SWAP5 PUSH2 0xC64 JUMPI JUMPDEST POP PUSH2 0x9AD PUSH1 0x24 CALLDATALOAD PUSH2 0x1006 JUMP JUMPDEST SWAP4 PUSH2 0x9C2 PUSH2 0x9BB DUP8 DUP8 PUSH2 0xFC0 JUMP JUMPDEST SWAP2 NUMBER PUSH2 0xFC0 JUMP JUMPDEST LT PUSH2 0xC15 JUMPI PUSH1 0x1 DUP1 PUSH1 0xA0 SHL SUB DUP3 AND PUSH1 0x0 MSTORE PUSH1 0x7 PUSH1 0x20 MSTORE PUSH2 0x9E7 DUP10 PUSH1 0x40 PUSH1 0x0 KECCAK256 SLOAD PUSH2 0xFC0 JUMP JUMPDEST GT PUSH2 0xBD4 JUMPI PUSH1 0x4 SLOAD SWAP6 PUSH1 0x40 MLOAD SWAP6 PUSH1 0x1 DUP1 PUSH1 0x60 SHL SUB NOT DUP1 DUP5 PUSH1 0x60 SHL AND PUSH1 0x20 DUP10 ADD MSTORE PUSH1 0x24 CALLDATALOAD PUSH1 0x60 SHL AND PUSH1 0x34 DUP9 ADD MSTORE PUSH1 0x44 CALLDATALOAD PUSH1 0x48 DUP9 ADD MSTORE PUSH1 0x64 CALLDATALOAD PUSH1 0x68 DUP9 ADD MSTORE DUP8 PUSH1 0x88 DUP9 ADD MSTORE PUSH1 0x88 DUP8 MSTORE DUP7 PUSH1 0xC0 DUP2 ADD LT PUSH1 0x1 PUSH1 0x1 PUSH1 0x40 SHL SUB PUSH1 0xC0 DUP10 ADD GT OR PUSH2 0xBBE JUMPI PUSH1 0xC0 DUP8 ADD PUSH1 0x40 MSTORE DUP7 MLOAD PUSH1 0x20 DUP9 ADD KECCAK256 SWAP4 PUSH1 0x1 DUP10 ADD DUP10 GT PUSH2 0x5AC JUMPI PUSH1 0xC SWAP10 PUSH1 0x1 PUSH1 0x80 SWAP11 ADD PUSH1 0x4 SSTORE PUSH2 0xA76 PUSH1 0xC0 DUP11 ADD PUSH2 0xF11 JUMP JUMPDEST PUSH1 0xC0 DUP10 ADD MSTORE PUSH1 0xE0 DUP9 ADD MSTORE PUSH32 0x0 PUSH2 0x100 DUP9 ADD MSTORE PUSH2 0x120 DUP8 ADD MSTORE PUSH2 0x140 DUP7 ADD MSTORE PUSH1 0x40 MLOAD SWAP8 PUSH2 0xAC0 DUP10 PUSH2 0xF2C JUMP JUMPDEST PUSH1 0x44 CALLDATALOAD DUP10 MSTORE PUSH1 0x64 CALLDATALOAD PUSH1 0x20 DUP11 ADD MSTORE PUSH1 0x40 DUP10 ADD SWAP1 DUP2 MSTORE PUSH1 0x60 DUP10 ADD SWAP2 PUSH1 0x1 DUP1 PUSH1 0xA0 SHL SUB AND DUP3 MSTORE DUP7 DUP10 ADD SWAP1 PUSH1 0x1 DUP1 PUSH1 0xA0 SHL SUB PUSH1 0x24 CALLDATALOAD AND DUP3 MSTORE PUSH1 0xA0 DUP11 ADD SWAP4 CALLER DUP6 MSTORE PUSH1 0xC0 DUP12 ADD SWAP6 DUP7 MSTORE PUSH1 0xE0 DUP12 ADD SWAP7 DUP8 MSTORE PUSH1 0xC0 PUSH2 0x100 DUP13 ADD SWAP9 ADD DUP9 MSTORE PUSH1 0x0 MSTORE PUSH1 0x6 PUSH1 0x20 MSTORE PUSH1 0x20 PUSH1 0x40 PUSH1 0x0 KECCAK256 SWAP11 DUP1 MLOAD DUP13 SSTORE ADD MLOAD PUSH1 0x1 DUP12 ADD SSTORE MLOAD PUSH1 0x2 DUP11 ADD SSTORE PUSH1 0x3 DUP10 ADD SWAP2 PUSH1 0x1 DUP1 PUSH1 0xA0 SHL SUB SWAP1 MLOAD AND SWAP2 PUSH1 0x1 DUP1 PUSH1 0xA0 SHL SUB NOT SWAP3 DUP4 DUP3 SLOAD AND OR SWAP1 SSTORE PUSH1 0x4 DUP10 ADD SWAP1 PUSH1 0x1 DUP1 PUSH1 0xA0 SHL SUB SWAP1 MLOAD AND DUP3 DUP3 SLOAD AND OR SWAP1 SSTORE PUSH1 0x5 DUP9 ADD SWAP2 PUSH1 0x1 DUP1 PUSH1 0xA0 SHL SUB SWAP1 MLOAD AND SWAP1 DUP3 SLOAD AND OR SWAP1 SSTORE MLOAD PUSH1 0x6 DUP7 ADD SSTORE MLOAD PUSH1 0x7 DUP6 ADD SSTORE MLOAD DUP1 MLOAD PUSH1 0x8 DUP6 ADD SSTORE PUSH1 0x20 DUP2 ADD MLOAD PUSH1 0x9 DUP6 ADD SSTORE PUSH1 0x40 DUP2 ADD MLOAD PUSH1 0xA DUP6 ADD SSTORE PUSH1 0x60 DUP2 ADD MLOAD PUSH1 0xB DUP6 ADD SSTORE ADD MLOAD SWAP2 ADD SSTORE PUSH1 0x0 DUP1 RETURN JUMPDEST PUSH4 0x4E487B71 PUSH1 0xE0 SHL PUSH1 0x0 MSTORE PUSH1 0x41 PUSH1 0x4 MSTORE PUSH1 0x24 PUSH1 0x0 REVERT JUMPDEST PUSH1 0x40 MLOAD PUSH3 0x461BCD PUSH1 0xE5 SHL DUP2 MSTORE PUSH1 0x20 PUSH1 0x4 DUP3 ADD MSTORE PUSH1 0x19 PUSH1 0x24 DUP3 ADD MSTORE PUSH25 0x151BDDD95C881CDA5E99481B1A5B5A5D08195E18D959591959 PUSH1 0x3A SHL PUSH1 0x44 DUP3 ADD MSTORE PUSH1 0x64 SWAP1 REVERT JUMPDEST PUSH1 0x40 MLOAD PUSH3 0x461BCD PUSH1 0xE5 SHL DUP2 MSTORE PUSH1 0x20 PUSH1 0x4 DUP3 ADD MSTORE PUSH1 0x21 PUSH1 0x24 DUP3 ADD MSTORE PUSH32 0x486F737420626C6F636B2074696D656F7574206C696D69742065786365656465 PUSH1 0x44 DUP3 ADD MSTORE PUSH1 0x19 PUSH1 0xFA SHL PUSH1 0x64 DUP3 ADD MSTORE PUSH1 0x84 SWAP1 REVERT JUMPDEST SWAP1 SWAP4 POP PUSH1 0x20 DUP2 RETURNDATASIZE PUSH1 0x20 GT PUSH2 0xC90 JUMPI JUMPDEST DUP2 PUSH2 0xC80 PUSH1 0x20 SWAP4 DUP4 PUSH2 0xF48 JUMP JUMPDEST DUP2 ADD SUB SLT PUSH2 0x1B JUMPI MLOAD SWAP3 DUP10 PUSH2 0x9A1 JUMP JUMPDEST RETURNDATASIZE SWAP2 POP PUSH2 0xC73 JUMP JUMPDEST SWAP4 POP PUSH1 0x20 DUP5 RETURNDATASIZE PUSH1 0x20 GT PUSH2 0xCC5 JUMPI JUMPDEST DUP2 PUSH2 0xCB3 PUSH1 0x20 SWAP4 DUP4 PUSH2 0xF48 JUMP JUMPDEST DUP2 ADD SUB SLT PUSH2 0x1B JUMPI SWAP3 MLOAD SWAP3 PUSH1 0x20 PUSH2 0x966 JUMP JUMPDEST RETURNDATASIZE SWAP2 POP PUSH2 0xCA6 JUMP JUMPDEST PUSH1 0x40 MLOAD PUSH3 0x461BCD PUSH1 0xE5 SHL DUP2 MSTORE PUSH1 0x20 PUSH1 0x4 DUP3 ADD MSTORE PUSH1 0xB PUSH1 0x24 DUP3 ADD MSTORE PUSH11 0x57726F6E672066756E6473 PUSH1 0xA8 SHL PUSH1 0x44 DUP3 ADD MSTORE PUSH1 0x64 SWAP1 REVERT JUMPDEST SWAP1 SWAP2 POP PUSH1 0x20 DUP2 RETURNDATASIZE PUSH1 0x20 GT PUSH2 0xD2C JUMPI JUMPDEST DUP2 PUSH2 0xD1C PUSH1 0x20 SWAP4 DUP4 PUSH2 0xF48 JUMP JUMPDEST DUP2 ADD SUB SLT PUSH2 0x1B JUMPI MLOAD SWAP1 DUP9 PUSH2 0x8D4 JUMP JUMPDEST RETURNDATASIZE SWAP2 POP PUSH2 0xD0F JUMP JUMPDEST SWAP1 SWAP6 POP PUSH1 0x20 DUP2 RETURNDATASIZE PUSH1 0x20 GT PUSH2 0xD60 JUMPI JUMPDEST DUP2 PUSH2 0xD50 PUSH1 0x20 SWAP4 DUP4 PUSH2 0xF48 JUMP JUMPDEST DUP2 ADD SUB SLT PUSH2 0x1B JUMPI MLOAD SWAP5 DUP8 PUSH2 0x89B JUMP JUMPDEST RETURNDATASIZE SWAP2 POP PUSH2 0xD43 JUMP JUMPDEST SWAP1 POP PUSH1 0x20 DUP2 RETURNDATASIZE PUSH1 0x20 GT PUSH2 0xD92 JUMPI JUMPDEST DUP2 PUSH2 0xD83 PUSH1 0x20 SWAP4 DUP4 PUSH2 0xF48 JUMP JUMPDEST DUP2 ADD SUB SLT PUSH2 0x1B JUMPI MLOAD DUP6 PUSH2 0x84F JUMP JUMPDEST RETURNDATASIZE SWAP2 POP PUSH2 0xD76 JUMP JUMPDEST SWAP1 SWAP3 POP PUSH1 0x20 DUP2 RETURNDATASIZE PUSH1 0x20 GT PUSH2 0xDC6 JUMPI JUMPDEST DUP2 PUSH2 0xDB6 PUSH1 0x20 SWAP4 DUP4 PUSH2 0xF48 JUMP JUMPDEST DUP2 ADD SUB SLT PUSH2 0x1B JUMPI MLOAD SWAP2 DUP4 PUSH2 0x807 JUMP JUMPDEST RETURNDATASIZE SWAP2 POP PUSH2 0xDA9 JUMP JUMPDEST SWAP3 POP PUSH1 0x20 DUP4 RETURNDATASIZE PUSH1 0x20 GT PUSH2 0xDFB JUMPI JUMPDEST DUP2 PUSH2 0xDE9 PUSH1 0x20 SWAP4 DUP4 PUSH2 0xF48 JUMP JUMPDEST DUP2 ADD SUB SLT PUSH2 0x1B JUMPI SWAP2 MLOAD SWAP2 PUSH1 0x20 PUSH2 0x7D6 JUMP JUMPDEST RETURNDATASIZE SWAP2 POP PUSH2 0xDDC JUMP JUMPDEST PUSH1 0x40 MLOAD PUSH3 0x461BCD PUSH1 0xE5 SHL DUP2 MSTORE PUSH1 0x20 PUSH1 0x4 DUP3 ADD MSTORE PUSH1 0x14 PUSH1 0x24 DUP3 ADD MSTORE PUSH20 0x5363686564756C6572206E6F7420616374697665 PUSH1 0x60 SHL PUSH1 0x44 DUP3 ADD MSTORE PUSH1 0x64 SWAP1 REVERT JUMPDEST CALLVALUE PUSH2 0x1B JUMPI PUSH1 0x0 CALLDATASIZE PUSH1 0x3 NOT ADD SLT PUSH2 0x1B JUMPI PUSH1 0x20 PUSH1 0xFF PUSH1 0x5 SLOAD AND PUSH1 0x40 MLOAD SWAP1 ISZERO ISZERO DUP2 MSTORE RETURN JUMPDEST CALLVALUE PUSH2 0x1B JUMPI PUSH1 0x0 CALLDATASIZE PUSH1 0x3 NOT ADD SLT PUSH2 0x1B JUMPI PUSH1 0x3 SLOAD PUSH1 0x40 MLOAD PUSH1 0x1 PUSH1 0x1 PUSH1 0xA0 SHL SUB SWAP1 SWAP2 AND DUP2 MSTORE PUSH1 0x20 SWAP1 RETURN JUMPDEST CALLVALUE PUSH2 0x1B JUMPI PUSH1 0x20 CALLDATASIZE PUSH1 0x3 NOT ADD SLT PUSH2 0x1B JUMPI PUSH1 0x1 PUSH1 0x1 PUSH1 0xA0 SHL SUB PUSH2 0xEAC PUSH2 0xEFB JUMP JUMPDEST AND PUSH1 0x0 MSTORE PUSH1 0x7 PUSH1 0x20 MSTORE PUSH1 0x20 PUSH1 0x40 PUSH1 0x0 KECCAK256 SLOAD PUSH1 0x40 MLOAD SWAP1 DUP2 MSTORE RETURN JUMPDEST CALLVALUE PUSH2 0x1B JUMPI PUSH1 0x20 CALLDATASIZE PUSH1 0x3 NOT ADD SLT PUSH2 0x1B JUMPI PUSH1 0x20 SWAP1 PUSH1 0x1 PUSH1 0x1 PUSH1 0xA0 SHL SUB PUSH2 0xEE9 PUSH2 0xEFB JUMP JUMPDEST AND PUSH1 0x0 MSTORE PUSH1 0x7 DUP3 MSTORE PUSH1 0x40 PUSH1 0x0 KECCAK256 SLOAD DUP2 MSTORE RETURN JUMPDEST PUSH1 0x4 CALLDATALOAD SWAP1 PUSH1 0x1 PUSH1 0x1 PUSH1 0xA0 SHL SUB DUP3 AND DUP3 SUB PUSH2 0x1B JUMPI JUMP JUMPDEST PUSH1 0xA0 DUP2 ADD SWAP1 DUP2 LT PUSH1 0x1 PUSH1 0x1 PUSH1 0x40 SHL SUB DUP3 GT OR PUSH2 0xBBE JUMPI PUSH1 0x40 MSTORE JUMP JUMPDEST PUSH2 0x120 DUP2 ADD SWAP1 DUP2 LT PUSH1 0x1 PUSH1 0x1 PUSH1 0x40 SHL SUB DUP3 GT OR PUSH2 0xBBE JUMPI PUSH1 0x40 MSTORE JUMP JUMPDEST SWAP1 PUSH1 0x1F DUP1 NOT SWAP2 ADD AND DUP2 ADD SWAP1 DUP2 LT PUSH1 0x1 PUSH1 0x1 PUSH1 0x40 SHL SUB DUP3 GT OR PUSH2 0xBBE JUMPI PUSH1 0x40 MSTORE JUMP JUMPDEST SWAP1 PUSH1 0x40 MLOAD PUSH2 0xF76 DUP2 PUSH2 0xF11 JUMP JUMPDEST PUSH1 0x80 PUSH1 0x4 DUP3 SWAP5 DUP1 SLOAD DUP5 MSTORE PUSH1 0x1 DUP2 ADD SLOAD PUSH1 0x20 DUP6 ADD MSTORE PUSH1 0x2 DUP2 ADD SLOAD PUSH1 0x40 DUP6 ADD MSTORE PUSH1 0x3 DUP2 ADD SLOAD PUSH1 0x60 DUP6 ADD MSTORE ADD SLOAD SWAP2 ADD MSTORE JUMP JUMPDEST PUSH1 0x1 PUSH1 0x1 PUSH1 0xA0 SHL SUB SWAP1 SWAP2 AND DUP2 MSTORE PUSH1 0x20 DUP2 ADD SWAP2 SWAP1 SWAP2 MSTORE PUSH1 0x40 ADD SWAP1 JUMP JUMPDEST SWAP2 SWAP1 DUP3 ADD DUP1 SWAP3 GT PUSH2 0x5AC JUMPI JUMP JUMPDEST ISZERO PUSH2 0xFD4 JUMPI JUMP JUMPDEST PUSH1 0x40 MLOAD PUSH3 0x461BCD PUSH1 0xE5 SHL DUP2 MSTORE PUSH1 0x20 PUSH1 0x4 DUP3 ADD MSTORE PUSH1 0xA PUSH1 0x24 DUP3 ADD MSTORE PUSH10 0x4F776E6572206F6E6C79 PUSH1 0xB0 SHL PUSH1 0x44 DUP3 ADD MSTORE PUSH1 0x64 SWAP1 REVERT JUMPDEST PUSH1 0x1 PUSH1 0x1 PUSH1 0xA0 SHL SUB AND PUSH1 0x0 SWAP1 DUP2 MSTORE PUSH1 0x8 PUSH1 0x20 MSTORE PUSH1 0x40 SWAP1 KECCAK256 SLOAD NUMBER DUP2 LT PUSH2 0x1028 JUMPI SWAP1 JUMP JUMPDEST POP NUMBER SWAP1 JUMP INVALID LOG2 PUSH5 0x6970667358 0x22 SLT KECCAK256 RETURN 0xD9 SWAP9 MLOAD 0xAE 0x28 CALLDATASIZE 0xEB OR SELFBALANCE MUL 0xA6 0xD 0xB4 0xDB MUL CHAINID 0x25 DUP2 DUP10 NOT 0xCF ORIGIN SWAP16 0xDF CREATE2 DUP9 0xC4 PUSH23 0xC7971E64736F6C63430008180033000000000000000000 "},"methodIdentifiers":{"SCHEDULER_FEE()":"6735f2d6","clear()":"52efea6e","finishTask(bytes32)":"781d102a","getHostContract()":"b5c0ca5a","getHostFirstAvailableBlock(address)":"66041a73","getTaskContract()":"a074f11e","getTowerContract()":"0efda04f","getTowerCurrentSize(address)":"0182d79e","hostsEndBlock(address)":"2e926915","owner()":"8da5cb5b","runningTasks(bytes32)":"abc1e7eb","schedulerFlag()":"191a1fa5","schedulerNonce()":"dce83940","sendTask(address,address,bytes32,bytes32)":"1b1fb71b","setHostContract(address)":"4b95fb06","setSchedulerFlag(bool)":"57de12a8","setTaskContract(address)":"8c57c521","setTowerContract(address)":"b64d963d","towersSize(address)":"0077285b"}}}}}