{"contracts/TaskContract.sol":{"MecaTaskContract":{"abi":[{"inputs":[{"internalType":"uint256","name":"taskAdditionFee","type":"uint256"}],"stateMutability":"nonpayable","type":"constructor"},{"stateMutability":"payable","type":"fallback"},{"inputs":[],"name":"TASK_ADDITION_FEE","outputs":[{"internalType":"uint256","name":"","type":"uint256"}],"stateMutability":"view","type":"function"},{"inputs":[{"internalType":"bytes32","name":"ipfsSha256","type":"bytes32"},{"internalType":"uint256","name":"fee","type":"uint256"},{"internalType":"uint8","name":"computingType","type":"uint8"},{"internalType":"uint256","name":"size","type":"uint256"}],"name":"addTask","outputs":[],"stateMutability":"payable","type":"function"},{"inputs":[],"name":"clear","outputs":[],"stateMutability":"nonpayable","type":"function"},{"inputs":[{"internalType":"bytes32","name":"ipfsSha256","type":"bytes32"}],"name":"deleteTask","outputs":[],"stateMutability":"nonpayable","type":"function"},{"inputs":[{"internalType":"bytes32","name":"ipfsSha256","type":"bytes32"}],"name":"getTaskComputingType","outputs":[{"internalType":"uint8","name":"","type":"uint8"}],"stateMutability":"view","type":"function"},{"inputs":[{"internalType":"bytes32","name":"ipfsSha256","type":"bytes32"}],"name":"getTaskFee","outputs":[{"internalType":"uint256","name":"","type":"uint256"}],"stateMutability":"view","type":"function"},{"inputs":[{"internalType":"bytes32","name":"ipfsSha256","type":"bytes32"}],"name":"getTaskOwner","outputs":[{"internalType":"address","name":"","type":"address"}],"stateMutability":"view","type":"function"},{"inputs":[{"internalType":"bytes32","name":"ipfsSha256","type":"bytes32"}],"name":"getTaskSize","outputs":[{"internalType":"uint256","name":"","type":"uint256"}],"stateMutability":"view","type":"function"},{"inputs":[],"name":"getTasks","outputs":[{"components":[{"internalType":"bytes32","name":"ipfsSha256","type":"bytes32"},{"internalType":"address payable","name":"owner","type":"address"},{"internalType":"uint256","name":"fee","type":"uint256"},{"internalType":"uint8","name":"computingType","type":"uint8"},{"internalType":"uint256","name":"size","type":"uint256"}],"internalType":"struct MecaTaskAbstractContract.Task[]","name":"","type":"tuple[]"}],"stateMutability":"view","type":"function"},{"inputs":[],"name":"owner","outputs":[{"internalType":"address payable","name":"","type":"address"}],"stateMutability":"view","type":"function"},{"inputs":[{"internalType":"uint256","name":"","type":"uint256"}],"name":"tasks","outputs":[{"internalType":"bytes32","name":"ipfsSha256","type":"bytes32"},{"internalType":"address payable","name":"owner","type":"address"},{"internalType":"uint256","name":"fee","type":"uint256"},{"internalType":"uint8","name":"computingType","type":"uint8"},{"internalType":"uint256","name":"size","type":"uint256"}],"stateMutability":"view","type":"function"},{"inputs":[{"internalType":"bytes32","name":"","type":"bytes32"}],"name":"tasks_index","outputs":[{"internalType":"uint32","name":"","type":"uint32"}],"stateMutability":"view","type":"function"},{"inputs":[{"internalType":"bytes32","name":"ipfsSha256","type":"bytes32"},{"internalType":"uint256","name":"newFee","type":"uint256"}],"name":"updateTaskFee","outputs":[],"stateMutability":"nonpayable","type":"function"},{"inputs":[{"internalType":"bytes32","name":"ipfsSha256","type":"bytes32"},{"internalType":"address","name":"newOwner","type":"address"}],"name":"updateTaskOwner","outputs":[],"stateMutability":"nonpayable","type":"function"},{"inputs":[{"internalType":"bytes32","name":"ipfsSha256","type":"bytes32"},{"internalType":"uint256","name":"newSize","type":"uint256"}],"name":"updateTaskSize","outputs":[],"stateMutability":"nonpayable","type":"function"},{"stateMutability":"payable","type":"receive"}],"evm":{"bytecode":{"linkReferences":{},"object":"60803461006357601f610ae638819003918201601f19168301916001600160401b03831184841017610068578084926020946040528339810103126100635751600080546001600160a01b03191632179055600155604051610a67908161007f8239f35b600080fd5b634e487b7160e01b600052604160045260246000fdfe60806040818152600480361015610024575b505050361561001f57600080fd5b600080fd5b600092833560e01c90816304a87e381461073b575080630c5163a71461070e578063269a4482146106ef57806333490116146106cb57806343e201c01461057c5780634723218d1461051e5780634b093f9c1461050457806352efea6e146103ea57806358f64498146103a85780638b90363b146103865780638d9776721461031e5780638da5cb5b146102f6578063d004eade146102c9578063e64f15a21461010a5763f5108acf03610011573461010657602036600319011261010657602092506001600160a01b039083906100fc90356109a0565b0151169051908152f35b8280fd5b509190346102c55760203660031901126102c5576001600160a01b038335610141826020610137846109a0565b0151163314610936565b61014a816109de565b600380549091600019918281019081116102b25761016790610889565b5061017961017483610974565b610889565b9190916102a057808a918303610257575b50505061019961017482610974565b50548752600260205285872063ffffffff8019921682825416179055838752858720908154169055815480156102445701906101d482610889565b610232578695946020610206889687968796878e8882809a5582600182015582600282015582848201550155556109a0565b01511660015490828215610229575bf11561021f575080f35b51903d90823e3d90fd5b506108fc610215565b634e487b7160e01b8752868852602487fd5b634e487b7160e01b875260318852602487fd5b808291548455600184018960018301541660018060a01b03198254161790556002810154600285015586840160ff888301541660ff19825416179055015491015538888161018a565b634e487b7160e01b8952888a52602489fd5b634e487b7160e01b885260118952602488fd5b5080fd5b5091346102f35760203660031901126102f35750806102ea602093356109a0565b01519051908152f35b80fd5b5050346102c557816003193601126102c557905490516001600160a01b039091168152602090f35b509034610106576020366003190112610106578135926003548410156102f3575061034a60a093610889565b50805492600180861b036001830154169260028301549160ff600385015416930154938151958652602086015284015260608301526080820152f35b5091346102f35760203660031901126102f3575060806102ea602093356109a0565b83346102f3576103df60026103e46101746103c236610873565b94906103da6001600160a01b036020610137846109a0565b6109de565b610974565b50015580f35b50903461010657826003193601126101065782546001600160a01b031633036104d457825b6003548110156104425780610425600192610889565b505485526002602052828520805463ffffffff191690550161040f565b5050600390600354908360035581610458578380f35b600592826005029260058404036104c157600385527fc2575a0e9e593c00f959f8c92f12db2869c3395a3b0502d05e2516446f71f85b928301925b8381106104a05750508380f35b80868692558660018201558660028201558683820155868482015501610493565b634e487b7160e01b855260118252602485fd5b906020606492519162461bcd60e51b8352820152600a6024820152694f776e6572206f6e6c7960b01b6044820152fd5b8382346102c5576103df906103e46101746103c236610873565b509034610106573660031901126102c5576024356001600160a01b03818116923591839003610578576101746103df836103da6105629460206101376001986109a0565b500180546001600160a01b031916909117905580f35b8380fd5b50906080366003190112610106578135916044359060ff82168092036106c7576001543403610695576105ad6108be565b90848252602082019433865284830193602435855260608401908152608084019160643583528852600260205263ffffffff9485878a20541661069157600354600160401b81101561067e578060016106099201600355610889565b95909561066c575197888655600186019060018060a01b0390511660018060a01b031982541617905551600285015560ff6003850191511660ff198254161790555191015560035416918352600260205282209063ffffffff1982541617905580f35b634e487b7160e01b8a5289855260248afd5b634e487b7160e01b8a526041855260248afd5b8880fd5b606490602084519162461bcd60e51b8352820152600c60248201526b119959481c995c5d5a5c995960a21b6044820152fd5b8480fd5b5091346102f35760203660031901126102f3575060ff60606100fc602094356109a0565b5050346102c557816003193601126102c5576020906001549051908152f35b5034610106576020366003190112610106578160209363ffffffff92358152600285522054169051908152f35b84929150346101065782600319360112610106576003546001600160401b038082116108605760059382851b603f01601f191684019182118483101761084d57508552808252600384526020938483019390929190837fc2575a0e9e593c00f959f8c92f12db2869c3395a3b0502d05e2516446f71f85b865b848310610829575050505050845193808501918186525180925285850193925b8281106107e15785850386f35b835180518652808301516001600160a01b031686840152878101518887015260608082015160ff16908701526080908101519086015260a090940193928101926001016107d4565b838960019261083b859c999a9c6108f3565b815201920192019190979594976107b4565b634e487b7160e01b865260419052602485fd5b634e487b7160e01b855260418452602485fd5b604090600319011261001f576004359060243590565b6003548110156108a85760036000526005602060002091020190600090565b634e487b7160e01b600052603260045260246000fd5b6040519060a082018281106001600160401b038211176108dd57604052565b634e487b7160e01b600052604160045260246000fd5b9060046108fe6108be565b8354815260018401546001600160a01b0316602082015260028401546040820152600384015460ff1660608201529201546080830152565b1561093d57565b60405162461bcd60e51b815260206004820152600f60248201526e5461736b206f776e6572206f6e6c7960881b6044820152606490fd5b63ffffffff908116600019019190821161098a57565b634e487b7160e01b600052601160045260246000fd5b6109d56101746103df6109db93600060806109b96108be565b82815282602082015282604082015282606082015201526109de565b506108f3565b90565b600052600260205263ffffffff6040600020541680156109fb5790565b60405162461bcd60e51b815260206004820152600e60248201526d15185cdac81b9bdd08199bdd5b9960921b6044820152606490fdfea2646970667358221220ba68e2fff74abf361b7a1dffaf2c59c51f3b43479e62a745a31d328d72c172db64736f6c63430008180033","opcodes":"PUSH1 0x80 CALLVALUE PUSH2 0x63 JUMPI PUSH1 0x1F PUSH2 0xAE6 CODESIZE DUP2 SWAP1 SUB SWAP2 DUP3 ADD PUSH1 0x1F NOT AND DUP4 ADD SWAP2 PUSH1 0x1 PUSH1 0x1 PUSH1 0x40 SHL SUB DUP4 GT DUP5 DUP5 LT OR PUSH2 0x68 JUMPI DUP1 DUP5 SWAP3 PUSH1 0x20 SWAP5 PUSH1 0x40 MSTORE DUP4 CODECOPY DUP2 ADD SUB SLT PUSH2 0x63 JUMPI MLOAD PUSH1 0x0 DUP1 SLOAD PUSH1 0x1 PUSH1 0x1 PUSH1 0xA0 SHL SUB NOT AND ORIGIN OR SWAP1 SSTORE PUSH1 0x1 SSTORE PUSH1 0x40 MLOAD PUSH2 0xA67 SWAP1 DUP2 PUSH2 0x7F DUP3 CODECOPY RETURN JUMPDEST PUSH1 0x0 DUP1 REVERT JUMPDEST PUSH4 0x4E487B71 PUSH1 0xE0 SHL PUSH1 0x0 MSTORE PUSH1 0x41 PUSH1 0x4 MSTORE PUSH1 0x24 PUSH1 0x0 REVERT INVALID PUSH1 0x80 PUSH1 0x40 DUP2 DUP2 MSTORE PUSH1 0x4 DUP1 CALLDATASIZE LT ISZERO PUSH2 0x24 JUMPI JUMPDEST POP POP POP CALLDATASIZE ISZERO PUSH2 0x1F JUMPI PUSH1 0x0 DUP1 REVERT JUMPDEST PUSH1 0x0 DUP1 REVERT JUMPDEST PUSH1 0x0 SWAP3 DUP4 CALLDATALOAD PUSH1 0xE0 SHR SWAP1 DUP2 PUSH4 0x4A87E38 EQ PUSH2 0x73B JUMPI POP DUP1 PUSH4 0xC5163A7 EQ PUSH2 0x70E JUMPI DUP1 PUSH4 0x269A4482 EQ PUSH2 0x6EF JUMPI DUP1 PUSH4 0x33490116 EQ PUSH2 0x6CB JUMPI DUP1 PUSH4 0x43E201C0 EQ PUSH2 0x57C JUMPI DUP1 PUSH4 0x4723218D EQ PUSH2 0x51E JUMPI DUP1 PUSH4 0x4B093F9C EQ PUSH2 0x504 JUMPI DUP1 PUSH4 0x52EFEA6E EQ PUSH2 0x3EA JUMPI DUP1 PUSH4 0x58F64498 EQ PUSH2 0x3A8 JUMPI DUP1 PUSH4 0x8B90363B EQ PUSH2 0x386 JUMPI DUP1 PUSH4 0x8D977672 EQ PUSH2 0x31E JUMPI DUP1 PUSH4 0x8DA5CB5B EQ PUSH2 0x2F6 JUMPI DUP1 PUSH4 0xD004EADE EQ PUSH2 0x2C9 JUMPI DUP1 PUSH4 0xE64F15A2 EQ PUSH2 0x10A JUMPI PUSH4 0xF5108ACF SUB PUSH2 0x11 JUMPI CALLVALUE PUSH2 0x106 JUMPI PUSH1 0x20 CALLDATASIZE PUSH1 0x3 NOT ADD SLT PUSH2 0x106 JUMPI PUSH1 0x20 SWAP3 POP PUSH1 0x1 PUSH1 0x1 PUSH1 0xA0 SHL SUB SWAP1 DUP4 SWAP1 PUSH2 0xFC SWAP1 CALLDATALOAD PUSH2 0x9A0 JUMP JUMPDEST ADD MLOAD AND SWAP1 MLOAD SWAP1 DUP2 MSTORE RETURN JUMPDEST DUP3 DUP1 REVERT JUMPDEST POP SWAP2 SWAP1 CALLVALUE PUSH2 0x2C5 JUMPI PUSH1 0x20 CALLDATASIZE PUSH1 0x3 NOT ADD SLT PUSH2 0x2C5 JUMPI PUSH1 0x1 PUSH1 0x1 PUSH1 0xA0 SHL SUB DUP4 CALLDATALOAD PUSH2 0x141 DUP3 PUSH1 0x20 PUSH2 0x137 DUP5 PUSH2 0x9A0 JUMP JUMPDEST ADD MLOAD AND CALLER EQ PUSH2 0x936 JUMP JUMPDEST PUSH2 0x14A DUP2 PUSH2 0x9DE JUMP JUMPDEST PUSH1 0x3 DUP1 SLOAD SWAP1 SWAP2 PUSH1 0x0 NOT SWAP2 DUP3 DUP2 ADD SWAP1 DUP2 GT PUSH2 0x2B2 JUMPI PUSH2 0x167 SWAP1 PUSH2 0x889 JUMP JUMPDEST POP PUSH2 0x179 PUSH2 0x174 DUP4 PUSH2 0x974 JUMP JUMPDEST PUSH2 0x889 JUMP JUMPDEST SWAP2 SWAP1 SWAP2 PUSH2 0x2A0 JUMPI DUP1 DUP11 SWAP2 DUP4 SUB PUSH2 0x257 JUMPI JUMPDEST POP POP POP PUSH2 0x199 PUSH2 0x174 DUP3 PUSH2 0x974 JUMP JUMPDEST POP SLOAD DUP8 MSTORE PUSH1 0x2 PUSH1 0x20 MSTORE DUP6 DUP8 KECCAK256 PUSH4 0xFFFFFFFF DUP1 NOT SWAP3 AND DUP3 DUP3 SLOAD AND OR SWAP1 SSTORE DUP4 DUP8 MSTORE DUP6 DUP8 KECCAK256 SWAP1 DUP2 SLOAD AND SWAP1 SSTORE DUP2 SLOAD DUP1 ISZERO PUSH2 0x244 JUMPI ADD SWAP1 PUSH2 0x1D4 DUP3 PUSH2 0x889 JUMP JUMPDEST PUSH2 0x232 JUMPI DUP7 SWAP6 SWAP5 PUSH1 0x20 PUSH2 0x206 DUP9 SWAP7 DUP8 SWAP7 DUP8 SWAP7 DUP8 DUP15 DUP9 DUP3 DUP1 SWAP11 SSTORE DUP3 PUSH1 0x1 DUP3 ADD SSTORE DUP3 PUSH1 0x2 DUP3 ADD SSTORE DUP3 DUP5 DUP3 ADD SSTORE ADD SSTORE SSTORE PUSH2 0x9A0 JUMP JUMPDEST ADD MLOAD AND PUSH1 0x1 SLOAD SWAP1 DUP3 DUP3 ISZERO PUSH2 0x229 JUMPI JUMPDEST CALL ISZERO PUSH2 0x21F JUMPI POP DUP1 RETURN JUMPDEST MLOAD SWAP1 RETURNDATASIZE SWAP1 DUP3 RETURNDATACOPY RETURNDATASIZE SWAP1 REVERT JUMPDEST POP PUSH2 0x8FC PUSH2 0x215 JUMP JUMPDEST PUSH4 0x4E487B71 PUSH1 0xE0 SHL DUP8 MSTORE DUP7 DUP9 MSTORE PUSH1 0x24 DUP8 REVERT JUMPDEST PUSH4 0x4E487B71 PUSH1 0xE0 SHL DUP8 MSTORE PUSH1 0x31 DUP9 MSTORE PUSH1 0x24 DUP8 REVERT JUMPDEST DUP1 DUP3 SWAP2 SLOAD DUP5 SSTORE PUSH1 0x1 DUP5 ADD DUP10 PUSH1 0x1 DUP4 ADD SLOAD AND PUSH1 0x1 DUP1 PUSH1 0xA0 SHL SUB NOT DUP3 SLOAD AND OR SWAP1 SSTORE PUSH1 0x2 DUP2 ADD SLOAD PUSH1 0x2 DUP6 ADD SSTORE DUP7 DUP5 ADD PUSH1 0xFF DUP9 DUP4 ADD SLOAD AND PUSH1 0xFF NOT DUP3 SLOAD AND OR SWAP1 SSTORE ADD SLOAD SWAP2 ADD SSTORE CODESIZE DUP9 DUP2 PUSH2 0x18A JUMP JUMPDEST PUSH4 0x4E487B71 PUSH1 0xE0 SHL DUP10 MSTORE DUP9 DUP11 MSTORE PUSH1 0x24 DUP10 REVERT JUMPDEST PUSH4 0x4E487B71 PUSH1 0xE0 SHL DUP9 MSTORE PUSH1 0x11 DUP10 MSTORE PUSH1 0x24 DUP9 REVERT JUMPDEST POP DUP1 REVERT JUMPDEST POP SWAP2 CALLVALUE PUSH2 0x2F3 JUMPI PUSH1 0x20 CALLDATASIZE PUSH1 0x3 NOT ADD SLT PUSH2 0x2F3 JUMPI POP DUP1 PUSH2 0x2EA PUSH1 0x20 SWAP4 CALLDATALOAD PUSH2 0x9A0 JUMP JUMPDEST ADD MLOAD SWAP1 MLOAD SWAP1 DUP2 MSTORE RETURN JUMPDEST DUP1 REVERT JUMPDEST POP POP CALLVALUE PUSH2 0x2C5 JUMPI DUP2 PUSH1 0x3 NOT CALLDATASIZE ADD SLT PUSH2 0x2C5 JUMPI SWAP1 SLOAD SWAP1 MLOAD PUSH1 0x1 PUSH1 0x1 PUSH1 0xA0 SHL SUB SWAP1 SWAP2 AND DUP2 MSTORE PUSH1 0x20 SWAP1 RETURN JUMPDEST POP SWAP1 CALLVALUE PUSH2 0x106 JUMPI PUSH1 0x20 CALLDATASIZE PUSH1 0x3 NOT ADD SLT PUSH2 0x106 JUMPI DUP2 CALLDATALOAD SWAP3 PUSH1 0x3 SLOAD DUP5 LT ISZERO PUSH2 0x2F3 JUMPI POP PUSH2 0x34A PUSH1 0xA0 SWAP4 PUSH2 0x889 JUMP JUMPDEST POP DUP1 SLOAD SWAP3 PUSH1 0x1 DUP1 DUP7 SHL SUB PUSH1 0x1 DUP4 ADD SLOAD AND SWAP3 PUSH1 0x2 DUP4 ADD SLOAD SWAP2 PUSH1 0xFF PUSH1 0x3 DUP6 ADD SLOAD AND SWAP4 ADD SLOAD SWAP4 DUP2 MLOAD SWAP6 DUP7 MSTORE PUSH1 0x20 DUP7 ADD MSTORE DUP5 ADD MSTORE PUSH1 0x60 DUP4 ADD MSTORE PUSH1 0x80 DUP3 ADD MSTORE RETURN JUMPDEST POP SWAP2 CALLVALUE PUSH2 0x2F3 JUMPI PUSH1 0x20 CALLDATASIZE PUSH1 0x3 NOT ADD SLT PUSH2 0x2F3 JUMPI POP PUSH1 0x80 PUSH2 0x2EA PUSH1 0x20 SWAP4 CALLDATALOAD PUSH2 0x9A0 JUMP JUMPDEST DUP4 CALLVALUE PUSH2 0x2F3 JUMPI PUSH2 0x3DF PUSH1 0x2 PUSH2 0x3E4 PUSH2 0x174 PUSH2 0x3C2 CALLDATASIZE PUSH2 0x873 JUMP JUMPDEST SWAP5 SWAP1 PUSH2 0x3DA PUSH1 0x1 PUSH1 0x1 PUSH1 0xA0 SHL SUB PUSH1 0x20 PUSH2 0x137 DUP5 PUSH2 0x9A0 JUMP JUMPDEST PUSH2 0x9DE JUMP JUMPDEST PUSH2 0x974 JUMP JUMPDEST POP ADD SSTORE DUP1 RETURN JUMPDEST POP SWAP1 CALLVALUE PUSH2 0x106 JUMPI DUP3 PUSH1 0x3 NOT CALLDATASIZE ADD SLT PUSH2 0x106 JUMPI DUP3 SLOAD PUSH1 0x1 PUSH1 0x1 PUSH1 0xA0 SHL SUB AND CALLER SUB PUSH2 0x4D4 JUMPI DUP3 JUMPDEST PUSH1 0x3 SLOAD DUP2 LT ISZERO PUSH2 0x442 JUMPI DUP1 PUSH2 0x425 PUSH1 0x1 SWAP3 PUSH2 0x889 JUMP JUMPDEST POP SLOAD DUP6 MSTORE PUSH1 0x2 PUSH1 0x20 MSTORE DUP3 DUP6 KECCAK256 DUP1 SLOAD PUSH4 0xFFFFFFFF NOT AND SWAP1 SSTORE ADD PUSH2 0x40F JUMP JUMPDEST POP POP PUSH1 0x3 SWAP1 PUSH1 0x3 SLOAD SWAP1 DUP4 PUSH1 0x3 SSTORE DUP2 PUSH2 0x458 JUMPI DUP4 DUP1 RETURN JUMPDEST PUSH1 0x5 SWAP3 DUP3 PUSH1 0x5 MUL SWAP3 PUSH1 0x5 DUP5 DIV SUB PUSH2 0x4C1 JUMPI PUSH1 0x3 DUP6 MSTORE PUSH32 0xC2575A0E9E593C00F959F8C92F12DB2869C3395A3B0502D05E2516446F71F85B SWAP3 DUP4 ADD SWAP3 JUMPDEST DUP4 DUP2 LT PUSH2 0x4A0 JUMPI POP POP DUP4 DUP1 RETURN JUMPDEST DUP1 DUP7 DUP7 SWAP3 SSTORE DUP7 PUSH1 0x1 DUP3 ADD SSTORE DUP7 PUSH1 0x2 DUP3 ADD SSTORE DUP7 DUP4 DUP3 ADD SSTORE DUP7 DUP5 DUP3 ADD SSTORE ADD PUSH2 0x493 JUMP JUMPDEST PUSH4 0x4E487B71 PUSH1 0xE0 SHL DUP6 MSTORE PUSH1 0x11 DUP3 MSTORE PUSH1 0x24 DUP6 REVERT JUMPDEST SWAP1 PUSH1 0x20 PUSH1 0x64 SWAP3 MLOAD SWAP2 PUSH3 0x461BCD PUSH1 0xE5 SHL DUP4 MSTORE DUP3 ADD MSTORE PUSH1 0xA PUSH1 0x24 DUP3 ADD MSTORE PUSH10 0x4F776E6572206F6E6C79 PUSH1 0xB0 SHL PUSH1 0x44 DUP3 ADD MSTORE REVERT JUMPDEST DUP4 DUP3 CALLVALUE PUSH2 0x2C5 JUMPI PUSH2 0x3DF SWAP1 PUSH2 0x3E4 PUSH2 0x174 PUSH2 0x3C2 CALLDATASIZE PUSH2 0x873 JUMP JUMPDEST POP SWAP1 CALLVALUE PUSH2 0x106 JUMPI CALLDATASIZE PUSH1 0x3 NOT ADD SLT PUSH2 0x2C5 JUMPI PUSH1 0x24 CALLDATALOAD PUSH1 0x1 PUSH1 0x1 PUSH1 0xA0 SHL SUB DUP2 DUP2 AND SWAP3 CALLDATALOAD SWAP2 DUP4 SWAP1 SUB PUSH2 0x578 JUMPI PUSH2 0x174 PUSH2 0x3DF DUP4 PUSH2 0x3DA PUSH2 0x562 SWAP5 PUSH1 0x20 PUSH2 0x137 PUSH1 0x1 SWAP9 PUSH2 0x9A0 JUMP JUMPDEST POP ADD DUP1 SLOAD PUSH1 0x1 PUSH1 0x1 PUSH1 0xA0 SHL SUB NOT AND SWAP1 SWAP2 OR SWAP1 SSTORE DUP1 RETURN JUMPDEST DUP4 DUP1 REVERT JUMPDEST POP SWAP1 PUSH1 0x80 CALLDATASIZE PUSH1 0x3 NOT ADD SLT PUSH2 0x106 JUMPI DUP2 CALLDATALOAD SWAP2 PUSH1 0x44 CALLDATALOAD SWAP1 PUSH1 0xFF DUP3 AND DUP1 SWAP3 SUB PUSH2 0x6C7 JUMPI PUSH1 0x1 SLOAD CALLVALUE SUB PUSH2 0x695 JUMPI PUSH2 0x5AD PUSH2 0x8BE JUMP JUMPDEST SWAP1 DUP5 DUP3 MSTORE PUSH1 0x20 DUP3 ADD SWAP5 CALLER DUP7 MSTORE DUP5 DUP4 ADD SWAP4 PUSH1 0x24 CALLDATALOAD DUP6 MSTORE PUSH1 0x60 DUP5 ADD SWAP1 DUP2 MSTORE PUSH1 0x80 DUP5 ADD SWAP2 PUSH1 0x64 CALLDATALOAD DUP4 MSTORE DUP9 MSTORE PUSH1 0x2 PUSH1 0x20 MSTORE PUSH4 0xFFFFFFFF SWAP5 DUP6 DUP8 DUP11 KECCAK256 SLOAD AND PUSH2 0x691 JUMPI PUSH1 0x3 SLOAD PUSH1 0x1 PUSH1 0x40 SHL DUP2 LT ISZERO PUSH2 0x67E JUMPI DUP1 PUSH1 0x1 PUSH2 0x609 SWAP3 ADD PUSH1 0x3 SSTORE PUSH2 0x889 JUMP JUMPDEST SWAP6 SWAP1 SWAP6 PUSH2 0x66C JUMPI MLOAD SWAP8 DUP9 DUP7 SSTORE PUSH1 0x1 DUP7 ADD SWAP1 PUSH1 0x1 DUP1 PUSH1 0xA0 SHL SUB SWAP1 MLOAD AND PUSH1 0x1 DUP1 PUSH1 0xA0 SHL SUB NOT DUP3 SLOAD AND OR SWAP1 SSTORE MLOAD PUSH1 0x2 DUP6 ADD SSTORE PUSH1 0xFF PUSH1 0x3 DUP6 ADD SWAP2 MLOAD AND PUSH1 0xFF NOT DUP3 SLOAD AND OR SWAP1 SSTORE MLOAD SWAP2 ADD SSTORE PUSH1 0x3 SLOAD AND SWAP2 DUP4 MSTORE PUSH1 0x2 PUSH1 0x20 MSTORE DUP3 KECCAK256 SWAP1 PUSH4 0xFFFFFFFF NOT DUP3 SLOAD AND OR SWAP1 SSTORE DUP1 RETURN JUMPDEST PUSH4 0x4E487B71 PUSH1 0xE0 SHL DUP11 MSTORE DUP10 DUP6 MSTORE PUSH1 0x24 DUP11 REVERT JUMPDEST PUSH4 0x4E487B71 PUSH1 0xE0 SHL DUP11 MSTORE PUSH1 0x41 DUP6 MSTORE PUSH1 0x24 DUP11 REVERT JUMPDEST DUP9 DUP1 REVERT JUMPDEST PUSH1 0x64 SWAP1 PUSH1 0x20 DUP5 MLOAD SWAP2 PUSH3 0x461BCD PUSH1 0xE5 SHL DUP4 MSTORE DUP3 ADD MSTORE PUSH1 0xC PUSH1 0x24 DUP3 ADD MSTORE PUSH12 0x119959481C995C5D5A5C9959 PUSH1 0xA2 SHL PUSH1 0x44 DUP3 ADD MSTORE REVERT JUMPDEST DUP5 DUP1 REVERT JUMPDEST POP SWAP2 CALLVALUE PUSH2 0x2F3 JUMPI PUSH1 0x20 CALLDATASIZE PUSH1 0x3 NOT ADD SLT PUSH2 0x2F3 JUMPI POP PUSH1 0xFF PUSH1 0x60 PUSH2 0xFC PUSH1 0x20 SWAP5 CALLDATALOAD PUSH2 0x9A0 JUMP JUMPDEST POP POP CALLVALUE PUSH2 0x2C5 JUMPI DUP2 PUSH1 0x3 NOT CALLDATASIZE ADD SLT PUSH2 0x2C5 JUMPI PUSH1 0x20 SWAP1 PUSH1 0x1 SLOAD SWAP1 MLOAD SWAP1 DUP2 MSTORE RETURN JUMPDEST POP CALLVALUE PUSH2 0x106 JUMPI PUSH1 0x20 CALLDATASIZE PUSH1 0x3 NOT ADD SLT PUSH2 0x106 JUMPI DUP2 PUSH1 0x20 SWAP4 PUSH4 0xFFFFFFFF SWAP3 CALLDATALOAD DUP2 MSTORE PUSH1 0x2 DUP6 MSTORE KECCAK256 SLOAD AND SWAP1 MLOAD SWAP1 DUP2 MSTORE RETURN JUMPDEST DUP5 SWAP3 SWAP2 POP CALLVALUE PUSH2 0x106 JUMPI DUP3 PUSH1 0x3 NOT CALLDATASIZE ADD SLT PUSH2 0x106 JUMPI PUSH1 0x3 SLOAD PUSH1 0x1 PUSH1 0x1 PUSH1 0x40 SHL SUB DUP1 DUP3 GT PUSH2 0x860 JUMPI PUSH1 0x5 SWAP4 DUP3 DUP6 SHL PUSH1 0x3F ADD PUSH1 0x1F NOT AND DUP5 ADD SWAP2 DUP3 GT DUP5 DUP4 LT OR PUSH2 0x84D JUMPI POP DUP6 MSTORE DUP1 DUP3 MSTORE PUSH1 0x3 DUP5 MSTORE PUSH1 0x20 SWAP4 DUP5 DUP4 ADD SWAP4 SWAP1 SWAP3 SWAP2 SWAP1 DUP4 PUSH32 0xC2575A0E9E593C00F959F8C92F12DB2869C3395A3B0502D05E2516446F71F85B DUP7 JUMPDEST DUP5 DUP4 LT PUSH2 0x829 JUMPI POP POP POP POP POP DUP5 MLOAD SWAP4 DUP1 DUP6 ADD SWAP2 DUP2 DUP7 MSTORE MLOAD DUP1 SWAP3 MSTORE DUP6 DUP6 ADD SWAP4 SWAP3 JUMPDEST DUP3 DUP2 LT PUSH2 0x7E1 JUMPI DUP6 DUP6 SUB DUP7 RETURN JUMPDEST DUP4 MLOAD DUP1 MLOAD DUP7 MSTORE DUP1 DUP4 ADD MLOAD PUSH1 0x1 PUSH1 0x1 PUSH1 0xA0 SHL SUB AND DUP7 DUP5 ADD MSTORE DUP8 DUP2 ADD MLOAD DUP9 DUP8 ADD MSTORE PUSH1 0x60 DUP1 DUP3 ADD MLOAD PUSH1 0xFF AND SWAP1 DUP8 ADD MSTORE PUSH1 0x80 SWAP1 DUP2 ADD MLOAD SWAP1 DUP7 ADD MSTORE PUSH1 0xA0 SWAP1 SWAP5 ADD SWAP4 SWAP3 DUP2 ADD SWAP3 PUSH1 0x1 ADD PUSH2 0x7D4 JUMP JUMPDEST DUP4 DUP10 PUSH1 0x1 SWAP3 PUSH2 0x83B DUP6 SWAP13 SWAP10 SWAP11 SWAP13 PUSH2 0x8F3 JUMP JUMPDEST DUP2 MSTORE ADD SWAP3 ADD SWAP3 ADD SWAP2 SWAP1 SWAP8 SWAP6 SWAP5 SWAP8 PUSH2 0x7B4 JUMP JUMPDEST PUSH4 0x4E487B71 PUSH1 0xE0 SHL DUP7 MSTORE PUSH1 0x41 SWAP1 MSTORE PUSH1 0x24 DUP6 REVERT JUMPDEST PUSH4 0x4E487B71 PUSH1 0xE0 SHL DUP6 MSTORE PUSH1 0x41 DUP5 MSTORE PUSH1 0x24 DUP6 REVERT JUMPDEST PUSH1 0x40 SWAP1 PUSH1 0x3 NOT ADD SLT PUSH2 0x1F JUMPI PUSH1 0x4 CALLDATALOAD SWAP1 PUSH1 0x24 CALLDATALOAD SWAP1 JUMP JUMPDEST PUSH1 0x3 SLOAD DUP2 LT ISZERO PUSH2 0x8A8 JUMPI PUSH1 0x3 PUSH1 0x0 MSTORE PUSH1 0x5 PUSH1 0x20 PUSH1 0x0 KECCAK256 SWAP2 MUL ADD SWAP1 PUSH1 0x0 SWAP1 JUMP JUMPDEST PUSH4 0x4E487B71 PUSH1 0xE0 SHL PUSH1 0x0 MSTORE PUSH1 0x32 PUSH1 0x4 MSTORE PUSH1 0x24 PUSH1 0x0 REVERT JUMPDEST PUSH1 0x40 MLOAD SWAP1 PUSH1 0xA0 DUP3 ADD DUP3 DUP2 LT PUSH1 0x1 PUSH1 0x1 PUSH1 0x40 SHL SUB DUP3 GT OR PUSH2 0x8DD JUMPI PUSH1 0x40 MSTORE JUMP JUMPDEST PUSH4 0x4E487B71 PUSH1 0xE0 SHL PUSH1 0x0 MSTORE PUSH1 0x41 PUSH1 0x4 MSTORE PUSH1 0x24 PUSH1 0x0 REVERT JUMPDEST SWAP1 PUSH1 0x4 PUSH2 0x8FE PUSH2 0x8BE JUMP JUMPDEST DUP4 SLOAD DUP2 MSTORE PUSH1 0x1 DUP5 ADD SLOAD PUSH1 0x1 PUSH1 0x1 PUSH1 0xA0 SHL SUB AND PUSH1 0x20 DUP3 ADD MSTORE PUSH1 0x2 DUP5 ADD SLOAD PUSH1 0x40 DUP3 ADD MSTORE PUSH1 0x3 DUP5 ADD SLOAD PUSH1 0xFF AND PUSH1 0x60 DUP3 ADD MSTORE SWAP3 ADD SLOAD PUSH1 0x80 DUP4 ADD MSTORE JUMP JUMPDEST ISZERO PUSH2 0x93D JUMPI JUMP JUMPDEST PUSH1 0x40 MLOAD PUSH3 0x461BCD PUSH1 0xE5 SHL DUP2 MSTORE PUSH1 0x20 PUSH1 0x4 DUP3 ADD MSTORE PUSH1 0xF PUSH1 0x24 DUP3 ADD MSTORE PUSH15 0x5461736B206F776E6572206F6E6C79 PUSH1 0x88 SHL PUSH1 0x44 DUP3 ADD MSTORE PUSH1 0x64 SWAP1 REVERT JUMPDEST PUSH4 0xFFFFFFFF SWAP1 DUP2 AND PUSH1 0x0 NOT ADD SWAP2 SWAP1 DUP3 GT PUSH2 0x98A JUMPI JUMP JUMPDEST PUSH4 0x4E487B71 PUSH1 0xE0 SHL PUSH1 0x0 MSTORE PUSH1 0x11 PUSH1 0x4 MSTORE PUSH1 0x24 PUSH1 0x0 REVERT JUMPDEST PUSH2 0x9D5 PUSH2 0x174 PUSH2 0x3DF PUSH2 0x9DB SWAP4 PUSH1 0x0 PUSH1 0x80 PUSH2 0x9B9 PUSH2 0x8BE JUMP JUMPDEST DUP3 DUP2 MSTORE DUP3 PUSH1 0x20 DUP3 ADD MSTORE DUP3 PUSH1 0x40 DUP3 ADD MSTORE DUP3 PUSH1 0x60 DUP3 ADD MSTORE ADD MSTORE PUSH2 0x9DE JUMP JUMPDEST POP PUSH2 0x8F3 JUMP JUMPDEST SWAP1 JUMP JUMPDEST PUSH1 0x0 MSTORE PUSH1 0x2 PUSH1 0x20 MSTORE PUSH4 0xFFFFFFFF PUSH1 0x40 PUSH1 0x0 KECCAK256 SLOAD AND DUP1 ISZERO PUSH2 0x9FB JUMPI SWAP1 JUMP JUMPDEST PUSH1 0x40 MLOAD PUSH3 0x461BCD PUSH1 0xE5 SHL DUP2 MSTORE PUSH1 0x20 PUSH1 0x4 DUP3 ADD MSTORE PUSH1 0xE PUSH1 0x24 DUP3 ADD MSTORE PUSH14 0x15185CDAC81B9BDD08199BDD5B99 PUSH1 0x92 SHL PUSH1 0x44 DUP3 ADD MSTORE PUSH1 0x64 SWAP1 REVERT INVALID LOG2 PUSH5 0x6970667358 0x22 SLT KECCAK256 0xBA PUSH9 0xE2FFF74ABF361B7A1D SELFDESTRUCT 0xAF 0x2C MSIZE 0xC5 0x1F EXTCODESIZE NUMBER SELFBALANCE SWAP15 PUSH3 0xA745A3 SAR ORIGIN DUP14 PUSH19 0xC172DB64736F6C634300081800330000000000 "},"methodIdentifiers":{"TASK_ADDITION_FEE()":"269a4482","addTask(bytes32,uint256,uint8,uint256)":"43e201c0","clear()":"52efea6e","deleteTask(bytes32)":"e64f15a2","getTaskComputingType(bytes32)":"33490116","getTaskFee(bytes32)":"d004eade","getTaskOwner(bytes32)":"f5108acf","getTaskSize(bytes32)":"8b90363b","getTasks()":"04a87e38","owner()":"8da5cb5b","tasks(uint256)":"8d977672","tasks_index(bytes32)":"0c5163a7","updateTaskFee(bytes32,uint256)":"58f64498","updateTaskOwner(bytes32,address)":"4723218d","updateTaskSize(bytes32,uint256)":"4b093f9c"}}}}}