{"contracts/TowerContract.sol":{"MecaTowerContract":{"abi":[{"inputs":[{"internalType":"uint256","name":"towerInitialStake","type":"uint256"},{"internalType":"uint256","name":"hostRequestFee","type":"uint256"},{"internalType":"uint256","name":"failedTaskPenalty","type":"uint256"}],"stateMutability":"nonpayable","type":"constructor"},{"stateMutability":"payable","type":"fallback"},{"inputs":[],"name":"FAILED_TASK_PENALTY","outputs":[{"internalType":"uint256","name":"","type":"uint256"}],"stateMutability":"view","type":"function"},{"inputs":[],"name":"HOST_REQUEST_FEE","outputs":[{"internalType":"uint256","name":"","type":"uint256"}],"stateMutability":"view","type":"function"},{"inputs":[],"name":"TOWER_INITIAL_STAKE","outputs":[{"internalType":"uint256","name":"","type":"uint256"}],"stateMutability":"view","type":"function"},{"inputs":[{"internalType":"address","name":"hostAddress","type":"address"}],"name":"acceptHost","outputs":[],"stateMutability":"nonpayable","type":"function"},{"inputs":[],"name":"addStake","outputs":[],"stateMutability":"payable","type":"function"},{"inputs":[],"name":"clear","outputs":[],"stateMutability":"nonpayable","type":"function"},{"inputs":[{"internalType":"address","name":"hostAddress","type":"address"}],"name":"deleteHost","outputs":[],"stateMutability":"nonpayable","type":"function"},{"inputs":[],"name":"deleteTower","outputs":[],"stateMutability":"nonpayable","type":"function"},{"inputs":[{"internalType":"address","name":"towerAddress","type":"address"},{"internalType":"uint256","name":"size","type":"uint256"},{"internalType":"uint256","name":"blockTimeoutLimit","type":"uint256"}],"name":"getTowerFee","outputs":[{"internalType":"uint256","name":"","type":"uint256"}],"stateMutability":"view","type":"function"},{"inputs":[{"internalType":"address","name":"towerAddress","type":"address"}],"name":"getTowerHosts","outputs":[{"internalType":"address[]","name":"","type":"address[]"}],"stateMutability":"view","type":"function"},{"inputs":[{"internalType":"address","name":"towerAddress","type":"address"}],"name":"getTowerPendingHosts","outputs":[{"internalType":"address[]","name":"","type":"address[]"}],"stateMutability":"view","type":"function"},{"inputs":[{"internalType":"address","name":"towerAddress","type":"address"}],"name":"getTowerPublicConnection","outputs":[{"internalType":"string","name":"","type":"string"}],"stateMutability":"view","type":"function"},{"inputs":[{"internalType":"address","name":"towerAddress","type":"address"}],"name":"getTowerSizeLimit","outputs":[{"internalType":"uint256","name":"","type":"uint256"}],"stateMutability":"view","type":"function"},{"inputs":[{"internalType":"address","name":"towerAddress","type":"address"}],"name":"getTowerStake","outputs":[{"internalType":"uint256","name":"","type":"uint256"}],"stateMutability":"view","type":"function"},{"inputs":[],"name":"getTowers","outputs":[{"components":[{"internalType":"address payable","name":"owner","type":"address"},{"internalType":"uint256","name":"sizeLimit","type":"uint256"},{"internalType":"string","name":"publicConnection","type":"string"},{"internalType":"uint8","name":"feeType","type":"uint8"},{"internalType":"uint256","name":"fee","type":"uint256"},{"internalType":"uint256","name":"stake","type":"uint256"}],"internalType":"struct MecaTowerAbstractContract.Tower[]","name":"","type":"tuple[]"}],"stateMutability":"view","type":"function"},{"inputs":[],"name":"owner","outputs":[{"internalType":"address payable","name":"","type":"address"}],"stateMutability":"view","type":"function"},{"inputs":[{"internalType":"address","name":"towerAddress","type":"address"},{"internalType":"address","name":"userAddress","type":"address"}],"name":"penaltyForFailedTask","outputs":[],"stateMutability":"nonpayable","type":"function"},{"inputs":[{"internalType":"uint256","name":"sizeLimit","type":"uint256"},{"internalType":"string","name":"publicConnection","type":"string"},{"internalType":"uint256","name":"fee","type":"uint256"},{"internalType":"uint8","name":"feeType","type":"uint8"}],"name":"registerAsTower","outputs":[],"stateMutability":"payable","type":"function"},{"inputs":[{"internalType":"address","name":"towerAddress","type":"address"}],"name":"registerMeForTower","outputs":[],"stateMutability":"payable","type":"function"},{"inputs":[{"internalType":"address","name":"hostAddress","type":"address"}],"name":"rejectHost","outputs":[],"stateMutability":"nonpayable","type":"function"},{"inputs":[],"name":"schedulerContractAddress","outputs":[{"internalType":"address","name":"","type":"address"}],"stateMutability":"view","type":"function"},{"inputs":[{"internalType":"address","name":"newSchedulerContractAddress","type":"address"}],"name":"setSchedulerContractAddress","outputs":[],"stateMutability":"nonpayable","type":"function"},{"inputs":[{"internalType":"address","name":"","type":"address"},{"internalType":"uint256","name":"","type":"uint256"}],"name":"towerActiveHosts","outputs":[{"internalType":"address","name":"","type":"address"}],"stateMutability":"view","type":"function"},{"inputs":[{"internalType":"address","name":"","type":"address"},{"internalType":"uint256","name":"","type":"uint256"}],"name":"towerPendingHosts","outputs":[{"internalType":"address","name":"","type":"address"}],"stateMutability":"view","type":"function"},{"inputs":[{"internalType":"uint256","name":"","type":"uint256"}],"name":"towers","outputs":[{"internalType":"address payable","name":"owner","type":"address"},{"internalType":"uint256","name":"sizeLimit","type":"uint256"},{"internalType":"string","name":"publicConnection","type":"string"},{"internalType":"uint8","name":"feeType","type":"uint8"},{"internalType":"uint256","name":"fee","type":"uint256"},{"internalType":"uint256","name":"stake","type":"uint256"}],"stateMutability":"view","type":"function"},{"inputs":[{"internalType":"address","name":"","type":"address"}],"name":"towersIndex","outputs":[{"internalType":"uint32","name":"","type":"uint32"}],"stateMutability":"view","type":"function"},{"inputs":[{"internalType":"uint8","name":"newFeeType","type":"uint8"},{"internalType":"uint256","name":"newFee","type":"uint256"}],"name":"updateFee","outputs":[],"stateMutability":"nonpayable","type":"function"},{"inputs":[{"internalType":"string","name":"newPublicConnection","type":"string"}],"name":"updatePublicConnection","outputs":[],"stateMutability":"nonpayable","type":"function"},{"inputs":[{"internalType":"uint256","name":"newSizeLimit","type":"uint256"}],"name":"updateSizeLimit","outputs":[],"stateMutability":"nonpayable","type":"function"},{"inputs":[{"internalType":"uint256","name":"amount","type":"uint256"}],"name":"withdrawStake","outputs":[],"stateMutability":"nonpayable","type":"function"},{"stateMutability":"payable","type":"receive"}],"evm":{"bytecode":{"linkReferences":{},"object":"60e0346100ca57601f611c3c38819003918201601f19168301916001600160401b038311848410176100cf578084926060946040528339810103126100ca57805190604060208201519101519060018060a01b0319923284600054161760005560805260a05260c05260015416600155604051611b5690816100e682396080518181816101e501528181610ce60152610e8a015260a0518181816107d00152818161087701528181610bcd01528181610cab0152610dbf015260c0518181816107840152610a100152f35b600080fd5b634e487b7160e01b600052604160045260246000fdfe6080604052600436101561001e575b361561001957600080fd5b600080fd5b60003560e01c806314ac563f14610f7e5780631b149c7314610f355780631bb6582114610eb757806325d5971f14610e31578063264632ce14610d8157806347fa822f14610d2857806348be1f2814610d095780634ee850cf14610cce57806350a6ab5614610c9357806352efea6e14610ba157806354efc17414610a8557806357e1282e146109cb5780635a627dbc1461099d57806366b89b201461097b5780637052a5e514610922578063818a3a8f146108f85780638d39e55d146108615780638da5cb5b14610838578063920372d914610816578063940f736f146107a7578063a91a21821461076c578063aaeed52914610730578063b1f2d6ac146106f0578063c435bdec14610662578063db5daade1461062f578063db88497c14610606578063e9393c86146105bd578063f6291f2514610530578063f7d04456146101a55763fcdc8b8e0361000e57346100195760203660031901126100195761019761019261018d33611abd565b6113d0565b611169565b506001600435910155600080f35b6080366003190112610019576024356001600160401b038111610019576101d0903690600401611073565b906064359060ff82168092036100195761020c7f00000000000000000000000000000000000000000000000000000000000000003410156112cb565b60405191610219836111c2565b338352602083019360043585526001600160401b03811161046e576040519261024c601f8301601f1916602001856111f8565b81845236828201116100195781600092602092838701378401015260408301918252606083015260443560808301523460a083015260018060a01b03825116600052600260205263ffffffff6040600020541661001957600354600160401b81101561046e578060016102c29201600355611169565b93909361051a57825184546001600160a01b0319166001600160a01b03919091161784555160018401555180519092906001600160401b03811161046e5761031a816103116002850154611188565b600285016113fd565b6020601f82116001146104ac57819061033e9394956000926104a1575b5050611442565b60028201555b6003810160ff60608401511660ff1982541617905560808201516004820155600560a083015191015563ffffffff6003541660018060a01b03825116600052600260205260406000209063ffffffff198254161790556040516103a6816111dd565b600080825282516001600160a01b031681526005602052604090208151916001600160401b03831161046e576020906103df848461160c565b0190600052602060002060005b8381106104845760405185610400826111dd565b600080835290516001600160a01b03168152600460205260409020815190916001600160401b03821161046e5760209061043a838561160c565b019160005260206000209160005b82811061045157005b81516001600160a01b031681850155602090910190600101610448565b634e487b7160e01b600052604160045260246000fd5b82516001600160a01b0316818301556020909201916001016103ec565b015190508580610337565b6002830160005260206000209060005b601f19841681106105025750600193949583601f198116106104e9575b505050811b016002820155610344565b015160001960f88460031b161c191690558480806104d9565b9091602060018192858a0151815501930191016104bc565b634e487b7160e01b600052600060045260246000fd5b34610019576020366003190112610019576004356003548110156100195761055790611169565b5060018060a01b0381541660018201549161057460028201611219565b60ff600383015416916105a960056004830154920154926040519687968752602087015260c0604087015260c0860190611129565b926060850152608084015260a08301520390f35b34610019576020366003190112610019576105d66110a0565b6000546001600160a01b0391906105f09083163314611323565b1660018060a01b03196001541617600155600080f35b34610019576000366003190112610019576001546040516001600160a01b039091168152602090f35b3461001957606036600319011261001957602061065a61064d6110a0565b604435906024359061135c565b604051908152f35b3461001957602080600319360112610019576001600160a01b03806106856110a0565b1660005260056020526040600020916040518092602085549283815201946000526020600020926000915b8383106106d7576106d3866106c7818a03826111f8565b604051918291826110e4565b0390f35b84548116875295810195600194850194909201916106b0565b34610019576020366003190112610019576001600160a01b036107116110a0565b166000526002602052602063ffffffff60406000205416604051908152f35b34610019576020366003190112610019576106d360406107566107516110a0565b6114b1565b0151604051918291602083526020830190611129565b346100195760003660031901126100195760206040517f00000000000000000000000000000000000000000000000000000000000000008152f35b34610019576020366003190112610019576107c96107c36110a0565b33611a19565b60008080807f000000000000000000000000000000000000000000000000000000000000000081811561080d575b3390f11561080157005b6040513d6000823e3d90fd5b506108fc6107f7565b34610019576020366003190112610019576107c96108326110a0565b33611968565b34610019576000366003190112610019576000546040516001600160a01b039091168152602090f35b6020366003190112610019576108756110a0565b7f000000000000000000000000000000000000000000000000000000000000000034036108bc5760018060a01b031660005260046020526108ba336040600020611945565b005b60405162461bcd60e51b8152602060048201526014602482015273135a5b9a5b5d5b48199959481c995c5d5a5c995960621b6044820152606490fd5b3461001957602036600319011261001957602060a06109186107516110a0565b0151604051908152f35b346100195760403660031901126100195760043560ff811680910361001957600361096c61019261095233611abd565b61095e610192826113d0565b5060046024359101556113d0565b5001805460ff19169091179055005b34610019576020366003190112610019576108ba6109976110a0565b3361186d565b60003660031901126100195760056109ba61019261018d33611abd565b50016109c73482546112be565b9055005b34610019576040366003190112610019576109e46110a0565b6024356001600160a01b038181169182900361001957600154163303610a4f5760008080938193610a367f000000000000000000000000000000000000000000000000000000000000000080936114f7565b828215610a46575bf11561080157005b506108fc610a3e565b60405162461bcd60e51b815260206004820152600e60248201526d5363686564756c6572206f6e6c7960901b6044820152606490fd5b34610019576000366003190112610019576003546001600160401b03811161046e57602060405191610abc828260051b01846111f8565b80835281830190816003600052836000206000915b838310610b7e5750505050604051918083019381845251809452604083019360408160051b85010192916000955b828710610b0c5785850386f35b909192938280600192603f19898203018552875190610b4d60c0868060a01b0384511683528484015185840152604084015190806040850152830190611129565b91606060ff8183015116908301526080808201519083015260a0809101519101529601920196019592919092610aff565b600686600192610b90859a999a611455565b815201920192019190959495610ad1565b34610019576000366003190112610019576000546001600160a01b0390610bcb9082163314611323565b7f00000000000000000000000000000000000000000000000000000000000000005b60035480156108ba576000198101908111610c7d57610c446005610c1083611169565b500154610c3e84610c3987610c3181610c2889611169565b50541697611169565b505416611640565b611310565b906112be565b8015918215610c56575b505050610bed565b6000928392839283928390610c74575bf11561080157828080610c4e565b506108fc610c66565b634e487b7160e01b600052601160045260246000fd5b346100195760003660031901126100195760206040517f00000000000000000000000000000000000000000000000000000000000000008152f35b346100195760003660031901126100195760206040517f00000000000000000000000000000000000000000000000000000000000000008152f35b34610019576020366003190112610019576020806109186107516110a0565b3461001957604036600319011261001957610d416110a0565b6024359060018060a01b0380911660005260056020526040600020805483101561001957602092610d71916110b6565b9190546040519260031b1c168152f35b3461001957600036600319011261001957610d9b336114b1565b6020810151610df55760008080610de460a082950151610c3e610dbd33611640565b7f000000000000000000000000000000000000000000000000000000000000000090611310565b81811561080d573390f11561080157005b60405162461bcd60e51b8152602060048201526014602482015273053697a65206c696d6974206d75737420626520360641b6044820152606490fd5b346100195760203660031901126100195760008080806004358060a0610e56336114b1565b0151101580610e73575b610e69906112cb565b610de481336114f7565b50610e6960a0610e82336114b1565b0151610eae837f00000000000000000000000000000000000000000000000000000000000000006112be565b11159050610e60565b3461001957602080600319360112610019576001600160a01b0380610eda6110a0565b1660005260046020526040600020916040518092602085549283815201946000526020600020926000915b838310610f1c576106d3866106c7818a03826111f8565b8454811687529581019560019485019490920191610f05565b3461001957604036600319011261001957610f4e6110a0565b6024359060018060a01b0380911660005260046020526040600020805483101561001957602092610d71916110b6565b3461001957602080600319360112610019576001600160401b0360043581811161001957610fb0903690600401611073565b906002610fc261019261018d33611abd565b500192821161046e57610fdf82610fd98554611188565b856113fd565b600093601f831160011461100e57506109c792938291600092611003575050611442565b013590508480610337565b90601f19831694846000526020600020926000905b87821061105b575050836001959610611041575b505050811b019055005b0135600019600384901b60f8161c19169055838080611037565b80600184968294958701358155019501920190611023565b9181601f84011215610019578235916001600160401b038311610019576020838186019501011161001957565b600435906001600160a01b038216820361001957565b80548210156110ce5760005260206000200190600090565b634e487b7160e01b600052603260045260246000fd5b602090602060408183019282815285518094520193019160005b82811061110c575050505090565b83516001600160a01b0316855293810193928101926001016110fe565b919082519283825260005b848110611155575050826000602080949584010152601f8019910116010190565b602081830181015184830182015201611134565b6003548110156110ce5760036000526006602060002091020190600090565b90600182811c921680156111b8575b60208310146111a257565b634e487b7160e01b600052602260045260246000fd5b91607f1691611197565b60c081019081106001600160401b0382111761046e57604052565b602081019081106001600160401b0382111761046e57604052565b90601f801991011681019081106001600160401b0382111761046e57604052565b9060405191826000825461122c81611188565b9081845260209460019160018116908160001461129c575060011461125d575b50505061125b925003836111f8565b565b600090815285812095935091905b81831061128457505061125b935082010138808061124c565b8554888401850152948501948794509183019161126b565b9250505061125b94925060ff191682840152151560051b82010138808061124c565b91908201809211610c7d57565b156112d257565b60405162461bcd60e51b8152602060048201526016602482015275135a5b9a5b5d5b481cdd185ad9481c995c5d5a5c995960521b6044820152606490fd5b81810292918115918404141715610c7d57565b1561132a57565b60405162461bcd60e51b815260206004820152600a6024820152694f776e6572206f6e6c7960b01b6044820152606490fd5b611365906114b1565b90608060ff6060840151169201519282156000146113835750505090565b6001839492931460001461139f575061139c9250611310565b90565b9192600281036113b4575061139c9250611310565b6003036113c85761139c92610c3991611310565b505050600090565b63ffffffff9081166000190191908211610c7d57565b8181106113f1575050565b600081556001016113e6565b9190601f811161140c57505050565b61125b926000526020600020906020601f840160051c83019310611438575b601f0160051c01906113e6565b909150819061142b565b8160011b916000199060031b1c19161790565b90604051611462816111c2565b82546001600160a01b031681526001830154602082015291829060a09060059061148e60028201611219565b604085015260ff6003820154166060850152600481015460808501520154910152565b6114f161019261018d61139c93600060a06040516114ce816111c2565b828152826020820152606060408201528260608201528260808201520152611abd565b50611455565b61150861019261018d600593611abd565b50018054918203918211610c7d5755565b908082146115e45761152b8154611188565b906001600160401b03821161046e5761154882610fd98554611188565b600090601f83116001146115795761156a92916000918361156e575050611442565b9055565b015490503880610337565b815260208082208483528183209291601f1985169083905b8282106115cb5750509084600195949392106115b2575b505050811b019055565b015460001960f88460031b161c191690553880806115a8565b8495819295850154815560018091019601940190611591565b5050565b805460008255806115f7575050565b61125b916000526020600020908101906113e6565b90600160401b811161046e5781549080835581811061162a57505050565b61125b92600052602060002091820191016113e6565b61164990611abd565b6116586114f1610192836113d0565b90600380549060001991828101908111610c7d5761167590611169565b50611682610192856113d0565b91909161051a578082036117c5575b505061169f610192846113d0565b509160018060a01b038093541693600094855260026020526040852063ffffffff801992168282541617905583865116855260408520908154169055815480156117b15701906116ee82611169565b61179d579160409391856005858261139c99975582600182015582600282016117178154611188565b80611761575b5050848201558260048201550155558085511682526004602052828220549481815116835260056020526117528484206115e8565b511681526004602052206115e8565b82601f8211600114611779575050555b82388061171d565b9091808252611796601f602084209401871c8401600185016113e6565b5555611771565b634e487b7160e01b85526004859052602485fd5b634e487b7160e01b85526031600452602485fd5b805482546001600160a01b0319166001600160a01b03919091161782556001808201549083015560059081906118016002808301908601611519565b84840160ff868301541660ff198254161790556004810154600485015501549101553880611691565b8054801561185757600019019061184182826110b6565b81549060018060a01b039060031b1b1916905555565b634e487b7160e01b600052603160045260246000fd5b9060005b60018060a01b03808416806000526005602081815260409283600020805487101561193a57866118a0916110b6565b905460039691871b1c8116888216146118c157505050505050600101611871565b9295919497508093965060005284845285600020918254906000198201918211610c7d5761125b986118f96119109361192e966110b6565b9054911b1c169184600052868652876000206110b6565b90919060018060a01b038084549260031b9316831b921b1916179055565b6000525260002061182a565b505050505050505050565b80549190600160401b83101561046e578261191091600161125b950181556110b6565b919060005b60018060a01b0380851680600052600490602090828252604093846000208054871015611a0d578661199e916110b6565b9054600391821b1c8216888316146119be5750505050505060010161196d565b919395985091939550826000528484528560002080549060001982019182116119f8579261125b9899926118f96119109361192e966110b6565b601187634e487b7160e01b6000525260246000fd5b50505050505050509050565b919060005b60018060a01b0380851680600052600490602090828252604093846000208054871015611a0d5786611a4f916110b6565b9054600391821b1c821688831614611a6f57505050505050600101611a1e565b9193959850919395611a8c90846000526005865287600020611945565b826000528484528560002080549060001982019182116119f8579261125b9899926118f96119109361192e966110b6565b6001600160a01b031660009081526002602052604090205463ffffffff168015611ae45790565b60405162461bcd60e51b8152602060048201526014602482015273151bddd95c88191bd95cc81b9bdd08195e1a5cdd60621b6044820152606490fdfea26469706673582212209b7973cf977cb019db198137ec2a47f1e87606a702d45f353fe1ded0f9f246a764736f6c63430008180033","opcodes":"PUSH1 0xE0 CALLVALUE PUSH2 0xCA JUMPI PUSH1 0x1F PUSH2 0x1C3C CODESIZE DUP2 SWAP1 SUB SWAP2 DUP3 ADD PUSH1 0x1F NOT AND DUP4 ADD SWAP2 PUSH1 0x1 PUSH1 0x1 PUSH1 0x40 SHL SUB DUP4 GT DUP5 DUP5 LT OR PUSH2 0xCF JUMPI DUP1 DUP5 SWAP3 PUSH1 0x60 SWAP5 PUSH1 0x40 MSTORE DUP4 CODECOPY DUP2 ADD SUB SLT PUSH2 0xCA JUMPI DUP1 MLOAD SWAP1 PUSH1 0x40 PUSH1 0x20 DUP3 ADD MLOAD SWAP2 ADD MLOAD SWAP1 PUSH1 0x1 DUP1 PUSH1 0xA0 SHL SUB NOT SWAP3 ORIGIN DUP5 PUSH1 0x0 SLOAD AND OR PUSH1 0x0 SSTORE PUSH1 0x80 MSTORE PUSH1 0xA0 MSTORE PUSH1 0xC0 MSTORE PUSH1 0x1 SLOAD AND PUSH1 0x1 SSTORE PUSH1 0x40 MLOAD PUSH2 0x1B56 SWAP1 DUP2 PUSH2 0xE6 DUP3 CODECOPY PUSH1 0x80 MLOAD DUP2 DUP2 DUP2 PUSH2 0x1E5 ADD MSTORE DUP2 DUP2 PUSH2 0xCE6 ADD MSTORE PUSH2 0xE8A ADD MSTORE PUSH1 0xA0 MLOAD DUP2 DUP2 DUP2 PUSH2 0x7D0 ADD MSTORE DUP2 DUP2 PUSH2 0x877 ADD MSTORE DUP2 DUP2 PUSH2 0xBCD ADD MSTORE DUP2 DUP2 PUSH2 0xCAB ADD MSTORE PUSH2 0xDBF ADD MSTORE PUSH1 0xC0 MLOAD DUP2 DUP2 DUP2 PUSH2 0x784 ADD MSTORE PUSH2 0xA10 ADD MSTORE RETURN JUMPDEST PUSH1 0x0 DUP1 REVERT JUMPDEST PUSH4 0x4E487B71 PUSH1 0xE0 SHL PUSH1 0x0 MSTORE PUSH1 0x41 PUSH1 0x4 MSTORE PUSH1 0x24 PUSH1 0x0 REVERT INVALID PUSH1 0x80 PUSH1 0x40 MSTORE PUSH1 0x4 CALLDATASIZE LT ISZERO PUSH2 0x1E JUMPI JUMPDEST CALLDATASIZE ISZERO PUSH2 0x19 JUMPI PUSH1 0x0 DUP1 REVERT JUMPDEST PUSH1 0x0 DUP1 REVERT JUMPDEST PUSH1 0x0 CALLDATALOAD PUSH1 0xE0 SHR DUP1 PUSH4 0x14AC563F EQ PUSH2 0xF7E JUMPI DUP1 PUSH4 0x1B149C73 EQ PUSH2 0xF35 JUMPI DUP1 PUSH4 0x1BB65821 EQ PUSH2 0xEB7 JUMPI DUP1 PUSH4 0x25D5971F EQ PUSH2 0xE31 JUMPI DUP1 PUSH4 0x264632CE EQ PUSH2 0xD81 JUMPI DUP1 PUSH4 0x47FA822F EQ PUSH2 0xD28 JUMPI DUP1 PUSH4 0x48BE1F28 EQ PUSH2 0xD09 JUMPI DUP1 PUSH4 0x4EE850CF EQ PUSH2 0xCCE JUMPI DUP1 PUSH4 0x50A6AB56 EQ PUSH2 0xC93 JUMPI DUP1 PUSH4 0x52EFEA6E EQ PUSH2 0xBA1 JUMPI DUP1 PUSH4 0x54EFC174 EQ PUSH2 0xA85 JUMPI DUP1 PUSH4 0x57E1282E EQ PUSH2 0x9CB JUMPI DUP1 PUSH4 0x5A627DBC EQ PUSH2 0x99D JUMPI DUP1 PUSH4 0x66B89B20 EQ PUSH2 0x97B JUMPI DUP1 PUSH4 0x7052A5E5 EQ PUSH2 0x922 JUMPI DUP1 PUSH4 0x818A3A8F EQ PUSH2 0x8F8 JUMPI DUP1 PUSH4 0x8D39E55D EQ PUSH2 0x861 JUMPI DUP1 PUSH4 0x8DA5CB5B EQ PUSH2 0x838 JUMPI DUP1 PUSH4 0x920372D9 EQ PUSH2 0x816 JUMPI DUP1 PUSH4 0x940F736F EQ PUSH2 0x7A7 JUMPI DUP1 PUSH4 0xA91A2182 EQ PUSH2 0x76C JUMPI DUP1 PUSH4 0xAAEED529 EQ PUSH2 0x730 JUMPI DUP1 PUSH4 0xB1F2D6AC EQ PUSH2 0x6F0 JUMPI DUP1 PUSH4 0xC435BDEC EQ PUSH2 0x662 JUMPI DUP1 PUSH4 0xDB5DAADE EQ PUSH2 0x62F JUMPI DUP1 PUSH4 0xDB88497C EQ PUSH2 0x606 JUMPI DUP1 PUSH4 0xE9393C86 EQ PUSH2 0x5BD JUMPI DUP1 PUSH4 0xF6291F25 EQ PUSH2 0x530 JUMPI DUP1 PUSH4 0xF7D04456 EQ PUSH2 0x1A5 JUMPI PUSH4 0xFCDC8B8E SUB PUSH2 0xE JUMPI CALLVALUE PUSH2 0x19 JUMPI PUSH1 0x20 CALLDATASIZE PUSH1 0x3 NOT ADD SLT PUSH2 0x19 JUMPI PUSH2 0x197 PUSH2 0x192 PUSH2 0x18D CALLER PUSH2 0x1ABD JUMP JUMPDEST PUSH2 0x13D0 JUMP JUMPDEST PUSH2 0x1169 JUMP JUMPDEST POP PUSH1 0x1 PUSH1 0x4 CALLDATALOAD SWAP2 ADD SSTORE PUSH1 0x0 DUP1 RETURN JUMPDEST PUSH1 0x80 CALLDATASIZE PUSH1 0x3 NOT ADD SLT PUSH2 0x19 JUMPI PUSH1 0x24 CALLDATALOAD PUSH1 0x1 PUSH1 0x1 PUSH1 0x40 SHL SUB DUP2 GT PUSH2 0x19 JUMPI PUSH2 0x1D0 SWAP1 CALLDATASIZE SWAP1 PUSH1 0x4 ADD PUSH2 0x1073 JUMP JUMPDEST SWAP1 PUSH1 0x64 CALLDATALOAD SWAP1 PUSH1 0xFF DUP3 AND DUP1 SWAP3 SUB PUSH2 0x19 JUMPI PUSH2 0x20C PUSH32 0x0 CALLVALUE LT ISZERO PUSH2 0x12CB JUMP JUMPDEST PUSH1 0x40 MLOAD SWAP2 PUSH2 0x219 DUP4 PUSH2 0x11C2 JUMP JUMPDEST CALLER DUP4 MSTORE PUSH1 0x20 DUP4 ADD SWAP4 PUSH1 0x4 CALLDATALOAD DUP6 MSTORE PUSH1 0x1 PUSH1 0x1 PUSH1 0x40 SHL SUB DUP2 GT PUSH2 0x46E JUMPI PUSH1 0x40 MLOAD SWAP3 PUSH2 0x24C PUSH1 0x1F DUP4 ADD PUSH1 0x1F NOT AND PUSH1 0x20 ADD DUP6 PUSH2 0x11F8 JUMP JUMPDEST DUP2 DUP5 MSTORE CALLDATASIZE DUP3 DUP3 ADD GT PUSH2 0x19 JUMPI DUP2 PUSH1 0x0 SWAP3 PUSH1 0x20 SWAP3 DUP4 DUP8 ADD CALLDATACOPY DUP5 ADD ADD MSTORE PUSH1 0x40 DUP4 ADD SWAP2 DUP3 MSTORE PUSH1 0x60 DUP4 ADD MSTORE PUSH1 0x44 CALLDATALOAD PUSH1 0x80 DUP4 ADD MSTORE CALLVALUE PUSH1 0xA0 DUP4 ADD MSTORE PUSH1 0x1 DUP1 PUSH1 0xA0 SHL SUB DUP3 MLOAD AND PUSH1 0x0 MSTORE PUSH1 0x2 PUSH1 0x20 MSTORE PUSH4 0xFFFFFFFF PUSH1 0x40 PUSH1 0x0 KECCAK256 SLOAD AND PUSH2 0x19 JUMPI PUSH1 0x3 SLOAD PUSH1 0x1 PUSH1 0x40 SHL DUP2 LT ISZERO PUSH2 0x46E JUMPI DUP1 PUSH1 0x1 PUSH2 0x2C2 SWAP3 ADD PUSH1 0x3 SSTORE PUSH2 0x1169 JUMP JUMPDEST SWAP4 SWAP1 SWAP4 PUSH2 0x51A JUMPI DUP3 MLOAD DUP5 SLOAD PUSH1 0x1 PUSH1 0x1 PUSH1 0xA0 SHL SUB NOT AND PUSH1 0x1 PUSH1 0x1 PUSH1 0xA0 SHL SUB SWAP2 SWAP1 SWAP2 AND OR DUP5 SSTORE MLOAD PUSH1 0x1 DUP5 ADD SSTORE MLOAD DUP1 MLOAD SWAP1 SWAP3 SWAP1 PUSH1 0x1 PUSH1 0x1 PUSH1 0x40 SHL SUB DUP2 GT PUSH2 0x46E JUMPI PUSH2 0x31A DUP2 PUSH2 0x311 PUSH1 0x2 DUP6 ADD SLOAD PUSH2 0x1188 JUMP JUMPDEST PUSH1 0x2 DUP6 ADD PUSH2 0x13FD JUMP JUMPDEST PUSH1 0x20 PUSH1 0x1F DUP3 GT PUSH1 0x1 EQ PUSH2 0x4AC JUMPI DUP2 SWAP1 PUSH2 0x33E SWAP4 SWAP5 SWAP6 PUSH1 0x0 SWAP3 PUSH2 0x4A1 JUMPI JUMPDEST POP POP PUSH2 0x1442 JUMP JUMPDEST PUSH1 0x2 DUP3 ADD SSTORE JUMPDEST PUSH1 0x3 DUP2 ADD PUSH1 0xFF PUSH1 0x60 DUP5 ADD MLOAD AND PUSH1 0xFF NOT DUP3 SLOAD AND OR SWAP1 SSTORE PUSH1 0x80 DUP3 ADD MLOAD PUSH1 0x4 DUP3 ADD SSTORE PUSH1 0x5 PUSH1 0xA0 DUP4 ADD MLOAD SWAP2 ADD SSTORE PUSH4 0xFFFFFFFF PUSH1 0x3 SLOAD AND PUSH1 0x1 DUP1 PUSH1 0xA0 SHL SUB DUP3 MLOAD AND PUSH1 0x0 MSTORE PUSH1 0x2 PUSH1 0x20 MSTORE PUSH1 0x40 PUSH1 0x0 KECCAK256 SWAP1 PUSH4 0xFFFFFFFF NOT DUP3 SLOAD AND OR SWAP1 SSTORE PUSH1 0x40 MLOAD PUSH2 0x3A6 DUP2 PUSH2 0x11DD JUMP JUMPDEST PUSH1 0x0 DUP1 DUP3 MSTORE DUP3 MLOAD PUSH1 0x1 PUSH1 0x1 PUSH1 0xA0 SHL SUB AND DUP2 MSTORE PUSH1 0x5 PUSH1 0x20 MSTORE PUSH1 0x40 SWAP1 KECCAK256 DUP2 MLOAD SWAP2 PUSH1 0x1 PUSH1 0x1 PUSH1 0x40 SHL SUB DUP4 GT PUSH2 0x46E JUMPI PUSH1 0x20 SWAP1 PUSH2 0x3DF DUP5 DUP5 PUSH2 0x160C JUMP JUMPDEST ADD SWAP1 PUSH1 0x0 MSTORE PUSH1 0x20 PUSH1 0x0 KECCAK256 PUSH1 0x0 JUMPDEST DUP4 DUP2 LT PUSH2 0x484 JUMPI PUSH1 0x40 MLOAD DUP6 PUSH2 0x400 DUP3 PUSH2 0x11DD JUMP JUMPDEST PUSH1 0x0 DUP1 DUP4 MSTORE SWAP1 MLOAD PUSH1 0x1 PUSH1 0x1 PUSH1 0xA0 SHL SUB AND DUP2 MSTORE PUSH1 0x4 PUSH1 0x20 MSTORE PUSH1 0x40 SWAP1 KECCAK256 DUP2 MLOAD SWAP1 SWAP2 PUSH1 0x1 PUSH1 0x1 PUSH1 0x40 SHL SUB DUP3 GT PUSH2 0x46E JUMPI PUSH1 0x20 SWAP1 PUSH2 0x43A DUP4 DUP6 PUSH2 0x160C JUMP JUMPDEST ADD SWAP2 PUSH1 0x0 MSTORE PUSH1 0x20 PUSH1 0x0 KECCAK256 SWAP2 PUSH1 0x0 JUMPDEST DUP3 DUP2 LT PUSH2 0x451 JUMPI STOP JUMPDEST DUP2 MLOAD PUSH1 0x1 PUSH1 0x1 PUSH1 0xA0 SHL SUB AND DUP2 DUP6 ADD SSTORE PUSH1 0x20 SWAP1 SWAP2 ADD SWAP1 PUSH1 0x1 ADD PUSH2 0x448 JUMP JUMPDEST PUSH4 0x4E487B71 PUSH1 0xE0 SHL PUSH1 0x0 MSTORE PUSH1 0x41 PUSH1 0x4 MSTORE PUSH1 0x24 PUSH1 0x0 REVERT JUMPDEST DUP3 MLOAD PUSH1 0x1 PUSH1 0x1 PUSH1 0xA0 SHL SUB AND DUP2 DUP4 ADD SSTORE PUSH1 0x20 SWAP1 SWAP3 ADD SWAP2 PUSH1 0x1 ADD PUSH2 0x3EC JUMP JUMPDEST ADD MLOAD SWAP1 POP DUP6 DUP1 PUSH2 0x337 JUMP JUMPDEST PUSH1 0x2 DUP4 ADD PUSH1 0x0 MSTORE PUSH1 0x20 PUSH1 0x0 KECCAK256 SWAP1 PUSH1 0x0 JUMPDEST PUSH1 0x1F NOT DUP5 AND DUP2 LT PUSH2 0x502 JUMPI POP PUSH1 0x1 SWAP4 SWAP5 SWAP6 DUP4 PUSH1 0x1F NOT DUP2 AND LT PUSH2 0x4E9 JUMPI JUMPDEST POP POP POP DUP2 SHL ADD PUSH1 0x2 DUP3 ADD SSTORE PUSH2 0x344 JUMP JUMPDEST ADD MLOAD PUSH1 0x0 NOT PUSH1 0xF8 DUP5 PUSH1 0x3 SHL AND SHR NOT AND SWAP1 SSTORE DUP5 DUP1 DUP1 PUSH2 0x4D9 JUMP JUMPDEST SWAP1 SWAP2 PUSH1 0x20 PUSH1 0x1 DUP2 SWAP3 DUP6 DUP11 ADD MLOAD DUP2 SSTORE ADD SWAP4 ADD SWAP2 ADD PUSH2 0x4BC JUMP JUMPDEST PUSH4 0x4E487B71 PUSH1 0xE0 SHL PUSH1 0x0 MSTORE PUSH1 0x0 PUSH1 0x4 MSTORE PUSH1 0x24 PUSH1 0x0 REVERT JUMPDEST CALLVALUE PUSH2 0x19 JUMPI PUSH1 0x20 CALLDATASIZE PUSH1 0x3 NOT ADD SLT PUSH2 0x19 JUMPI PUSH1 0x4 CALLDATALOAD PUSH1 0x3 SLOAD DUP2 LT ISZERO PUSH2 0x19 JUMPI PUSH2 0x557 SWAP1 PUSH2 0x1169 JUMP JUMPDEST POP PUSH1 0x1 DUP1 PUSH1 0xA0 SHL SUB DUP2 SLOAD AND PUSH1 0x1 DUP3 ADD SLOAD SWAP2 PUSH2 0x574 PUSH1 0x2 DUP3 ADD PUSH2 0x1219 JUMP JUMPDEST PUSH1 0xFF PUSH1 0x3 DUP4 ADD SLOAD AND SWAP2 PUSH2 0x5A9 PUSH1 0x5 PUSH1 0x4 DUP4 ADD SLOAD SWAP3 ADD SLOAD SWAP3 PUSH1 0x40 MLOAD SWAP7 DUP8 SWAP7 DUP8 MSTORE PUSH1 0x20 DUP8 ADD MSTORE PUSH1 0xC0 PUSH1 0x40 DUP8 ADD MSTORE PUSH1 0xC0 DUP7 ADD SWAP1 PUSH2 0x1129 JUMP JUMPDEST SWAP3 PUSH1 0x60 DUP6 ADD MSTORE PUSH1 0x80 DUP5 ADD MSTORE PUSH1 0xA0 DUP4 ADD MSTORE SUB SWAP1 RETURN JUMPDEST CALLVALUE PUSH2 0x19 JUMPI PUSH1 0x20 CALLDATASIZE PUSH1 0x3 NOT ADD SLT PUSH2 0x19 JUMPI PUSH2 0x5D6 PUSH2 0x10A0 JUMP JUMPDEST PUSH1 0x0 SLOAD PUSH1 0x1 PUSH1 0x1 PUSH1 0xA0 SHL SUB SWAP2 SWAP1 PUSH2 0x5F0 SWAP1 DUP4 AND CALLER EQ PUSH2 0x1323 JUMP JUMPDEST AND PUSH1 0x1 DUP1 PUSH1 0xA0 SHL SUB NOT PUSH1 0x1 SLOAD AND OR PUSH1 0x1 SSTORE PUSH1 0x0 DUP1 RETURN JUMPDEST CALLVALUE PUSH2 0x19 JUMPI PUSH1 0x0 CALLDATASIZE PUSH1 0x3 NOT ADD SLT PUSH2 0x19 JUMPI PUSH1 0x1 SLOAD PUSH1 0x40 MLOAD PUSH1 0x1 PUSH1 0x1 PUSH1 0xA0 SHL SUB SWAP1 SWAP2 AND DUP2 MSTORE PUSH1 0x20 SWAP1 RETURN JUMPDEST CALLVALUE PUSH2 0x19 JUMPI PUSH1 0x60 CALLDATASIZE PUSH1 0x3 NOT ADD SLT PUSH2 0x19 JUMPI PUSH1 0x20 PUSH2 0x65A PUSH2 0x64D PUSH2 0x10A0 JUMP JUMPDEST PUSH1 0x44 CALLDATALOAD SWAP1 PUSH1 0x24 CALLDATALOAD SWAP1 PUSH2 0x135C JUMP JUMPDEST PUSH1 0x40 MLOAD SWAP1 DUP2 MSTORE RETURN JUMPDEST CALLVALUE PUSH2 0x19 JUMPI PUSH1 0x20 DUP1 PUSH1 0x3 NOT CALLDATASIZE ADD SLT PUSH2 0x19 JUMPI PUSH1 0x1 PUSH1 0x1 PUSH1 0xA0 SHL SUB DUP1 PUSH2 0x685 PUSH2 0x10A0 JUMP JUMPDEST AND PUSH1 0x0 MSTORE PUSH1 0x5 PUSH1 0x20 MSTORE PUSH1 0x40 PUSH1 0x0 KECCAK256 SWAP2 PUSH1 0x40 MLOAD DUP1 SWAP3 PUSH1 0x20 DUP6 SLOAD SWAP3 DUP4 DUP2 MSTORE ADD SWAP5 PUSH1 0x0 MSTORE PUSH1 0x20 PUSH1 0x0 KECCAK256 SWAP3 PUSH1 0x0 SWAP2 JUMPDEST DUP4 DUP4 LT PUSH2 0x6D7 JUMPI PUSH2 0x6D3 DUP7 PUSH2 0x6C7 DUP2 DUP11 SUB DUP3 PUSH2 0x11F8 JUMP JUMPDEST PUSH1 0x40 MLOAD SWAP2 DUP3 SWAP2 DUP3 PUSH2 0x10E4 JUMP JUMPDEST SUB SWAP1 RETURN JUMPDEST DUP5 SLOAD DUP2 AND DUP8 MSTORE SWAP6 DUP2 ADD SWAP6 PUSH1 0x1 SWAP5 DUP6 ADD SWAP5 SWAP1 SWAP3 ADD SWAP2 PUSH2 0x6B0 JUMP JUMPDEST CALLVALUE PUSH2 0x19 JUMPI PUSH1 0x20 CALLDATASIZE PUSH1 0x3 NOT ADD SLT PUSH2 0x19 JUMPI PUSH1 0x1 PUSH1 0x1 PUSH1 0xA0 SHL SUB PUSH2 0x711 PUSH2 0x10A0 JUMP JUMPDEST AND PUSH1 0x0 MSTORE PUSH1 0x2 PUSH1 0x20 MSTORE PUSH1 0x20 PUSH4 0xFFFFFFFF PUSH1 0x40 PUSH1 0x0 KECCAK256 SLOAD AND PUSH1 0x40 MLOAD SWAP1 DUP2 MSTORE RETURN JUMPDEST CALLVALUE PUSH2 0x19 JUMPI PUSH1 0x20 CALLDATASIZE PUSH1 0x3 NOT ADD SLT PUSH2 0x19 JUMPI PUSH2 0x6D3 PUSH1 0x40 PUSH2 0x756 PUSH2 0x751 PUSH2 0x10A0 JUMP JUMPDEST PUSH2 0x14B1 JUMP JUMPDEST ADD MLOAD PUSH1 0x40 MLOAD SWAP2 DUP3 SWAP2 PUSH1 0x20 DUP4 MSTORE PUSH1 0x20 DUP4 ADD SWAP1 PUSH2 0x1129 JUMP JUMPDEST CALLVALUE PUSH2 0x19 JUMPI PUSH1 0x0 CALLDATASIZE PUSH1 0x3 NOT ADD SLT PUSH2 0x19 JUMPI PUSH1 0x20 PUSH1 0x40 MLOAD PUSH32 0x0 DUP2 MSTORE RETURN JUMPDEST CALLVALUE PUSH2 0x19 JUMPI PUSH1 0x20 CALLDATASIZE PUSH1 0x3 NOT ADD SLT PUSH2 0x19 JUMPI PUSH2 0x7C9 PUSH2 0x7C3 PUSH2 0x10A0 JUMP JUMPDEST CALLER PUSH2 0x1A19 JUMP JUMPDEST PUSH1 0x0 DUP1 DUP1 DUP1 PUSH32 0x0 DUP2 DUP2 ISZERO PUSH2 0x80D JUMPI JUMPDEST CALLER SWAP1 CALL ISZERO PUSH2 0x801 JUMPI STOP JUMPDEST PUSH1 0x40 MLOAD RETURNDATASIZE PUSH1 0x0 DUP3 RETURNDATACOPY RETURNDATASIZE SWAP1 REVERT JUMPDEST POP PUSH2 0x8FC PUSH2 0x7F7 JUMP JUMPDEST CALLVALUE PUSH2 0x19 JUMPI PUSH1 0x20 CALLDATASIZE PUSH1 0x3 NOT ADD SLT PUSH2 0x19 JUMPI PUSH2 0x7C9 PUSH2 0x832 PUSH2 0x10A0 JUMP JUMPDEST CALLER PUSH2 0x1968 JUMP JUMPDEST CALLVALUE PUSH2 0x19 JUMPI PUSH1 0x0 CALLDATASIZE PUSH1 0x3 NOT ADD SLT PUSH2 0x19 JUMPI PUSH1 0x0 SLOAD PUSH1 0x40 MLOAD PUSH1 0x1 PUSH1 0x1 PUSH1 0xA0 SHL SUB SWAP1 SWAP2 AND DUP2 MSTORE PUSH1 0x20 SWAP1 RETURN JUMPDEST PUSH1 0x20 CALLDATASIZE PUSH1 0x3 NOT ADD SLT PUSH2 0x19 JUMPI PUSH2 0x875 PUSH2 0x10A0 JUMP JUMPDEST PUSH32 0x0 CALLVALUE SUB PUSH2 0x8BC JUMPI PUSH1 0x1 DUP1 PUSH1 0xA0 SHL SUB AND PUSH1 0x0 MSTORE PUSH1 0x4 PUSH1 0x20 MSTORE PUSH2 0x8BA CALLER PUSH1 0x40 PUSH1 0x0 KECCAK256 PUSH2 0x1945 JUMP JUMPDEST STOP JUMPDEST PUSH1 0x40 MLOAD PUSH3 0x461BCD PUSH1 0xE5 SHL DUP2 MSTORE PUSH1 0x20 PUSH1 0x4 DUP3 ADD MSTORE PUSH1 0x14 PUSH1 0x24 DUP3 ADD MSTORE PUSH20 0x135A5B9A5B5D5B48199959481C995C5D5A5C9959 PUSH1 0x62 SHL PUSH1 0x44 DUP3 ADD MSTORE PUSH1 0x64 SWAP1 REVERT JUMPDEST CALLVALUE PUSH2 0x19 JUMPI PUSH1 0x20 CALLDATASIZE PUSH1 0x3 NOT ADD SLT PUSH2 0x19 JUMPI PUSH1 0x20 PUSH1 0xA0 PUSH2 0x918 PUSH2 0x751 PUSH2 0x10A0 JUMP JUMPDEST ADD MLOAD PUSH1 0x40 MLOAD SWAP1 DUP2 MSTORE RETURN JUMPDEST CALLVALUE PUSH2 0x19 JUMPI PUSH1 0x40 CALLDATASIZE PUSH1 0x3 NOT ADD SLT PUSH2 0x19 JUMPI PUSH1 0x4 CALLDATALOAD PUSH1 0xFF DUP2 AND DUP1 SWAP2 SUB PUSH2 0x19 JUMPI PUSH1 0x3 PUSH2 0x96C PUSH2 0x192 PUSH2 0x952 CALLER PUSH2 0x1ABD JUMP JUMPDEST PUSH2 0x95E PUSH2 0x192 DUP3 PUSH2 0x13D0 JUMP JUMPDEST POP PUSH1 0x4 PUSH1 0x24 CALLDATALOAD SWAP2 ADD SSTORE PUSH2 0x13D0 JUMP JUMPDEST POP ADD DUP1 SLOAD PUSH1 0xFF NOT AND SWAP1 SWAP2 OR SWAP1 SSTORE STOP JUMPDEST CALLVALUE PUSH2 0x19 JUMPI PUSH1 0x20 CALLDATASIZE PUSH1 0x3 NOT ADD SLT PUSH2 0x19 JUMPI PUSH2 0x8BA PUSH2 0x997 PUSH2 0x10A0 JUMP JUMPDEST CALLER PUSH2 0x186D JUMP JUMPDEST PUSH1 0x0 CALLDATASIZE PUSH1 0x3 NOT ADD SLT PUSH2 0x19 JUMPI PUSH1 0x5 PUSH2 0x9BA PUSH2 0x192 PUSH2 0x18D CALLER PUSH2 0x1ABD JUMP JUMPDEST POP ADD PUSH2 0x9C7 CALLVALUE DUP3 SLOAD PUSH2 0x12BE JUMP JUMPDEST SWAP1 SSTORE STOP JUMPDEST CALLVALUE PUSH2 0x19 JUMPI PUSH1 0x40 CALLDATASIZE PUSH1 0x3 NOT ADD SLT PUSH2 0x19 JUMPI PUSH2 0x9E4 PUSH2 0x10A0 JUMP JUMPDEST PUSH1 0x24 CALLDATALOAD PUSH1 0x1 PUSH1 0x1 PUSH1 0xA0 SHL SUB DUP2 DUP2 AND SWAP2 DUP3 SWAP1 SUB PUSH2 0x19 JUMPI PUSH1 0x1 SLOAD AND CALLER SUB PUSH2 0xA4F JUMPI PUSH1 0x0 DUP1 DUP1 SWAP4 DUP2 SWAP4 PUSH2 0xA36 PUSH32 0x0 DUP1 SWAP4 PUSH2 0x14F7 JUMP JUMPDEST DUP3 DUP3 ISZERO PUSH2 0xA46 JUMPI JUMPDEST CALL ISZERO PUSH2 0x801 JUMPI STOP JUMPDEST POP PUSH2 0x8FC PUSH2 0xA3E JUMP JUMPDEST PUSH1 0x40 MLOAD PUSH3 0x461BCD PUSH1 0xE5 SHL DUP2 MSTORE PUSH1 0x20 PUSH1 0x4 DUP3 ADD MSTORE PUSH1 0xE PUSH1 0x24 DUP3 ADD MSTORE PUSH14 0x5363686564756C6572206F6E6C79 PUSH1 0x90 SHL PUSH1 0x44 DUP3 ADD MSTORE PUSH1 0x64 SWAP1 REVERT JUMPDEST CALLVALUE PUSH2 0x19 JUMPI PUSH1 0x0 CALLDATASIZE PUSH1 0x3 NOT ADD SLT PUSH2 0x19 JUMPI PUSH1 0x3 SLOAD PUSH1 0x1 PUSH1 0x1 PUSH1 0x40 SHL SUB DUP2 GT PUSH2 0x46E JUMPI PUSH1 0x20 PUSH1 0x40 MLOAD SWAP2 PUSH2 0xABC DUP3 DUP3 PUSH1 0x5 SHL ADD DUP5 PUSH2 0x11F8 JUMP JUMPDEST DUP1 DUP4 MSTORE DUP2 DUP4 ADD SWAP1 DUP2 PUSH1 0x3 PUSH1 0x0 MSTORE DUP4 PUSH1 0x0 KECCAK256 PUSH1 0x0 SWAP2 JUMPDEST DUP4 DUP4 LT PUSH2 0xB7E JUMPI POP POP POP POP PUSH1 0x40 MLOAD SWAP2 DUP1 DUP4 ADD SWAP4 DUP2 DUP5 MSTORE MLOAD DUP1 SWAP5 MSTORE PUSH1 0x40 DUP4 ADD SWAP4 PUSH1 0x40 DUP2 PUSH1 0x5 SHL DUP6 ADD ADD SWAP3 SWAP2 PUSH1 0x0 SWAP6 JUMPDEST DUP3 DUP8 LT PUSH2 0xB0C JUMPI DUP6 DUP6 SUB DUP7 RETURN JUMPDEST SWAP1 SWAP2 SWAP3 SWAP4 DUP3 DUP1 PUSH1 0x1 SWAP3 PUSH1 0x3F NOT DUP10 DUP3 SUB ADD DUP6 MSTORE DUP8 MLOAD SWAP1 PUSH2 0xB4D PUSH1 0xC0 DUP7 DUP1 PUSH1 0xA0 SHL SUB DUP5 MLOAD AND DUP4 MSTORE DUP5 DUP5 ADD MLOAD DUP6 DUP5 ADD MSTORE PUSH1 0x40 DUP5 ADD MLOAD SWAP1 DUP1 PUSH1 0x40 DUP6 ADD MSTORE DUP4 ADD SWAP1 PUSH2 0x1129 JUMP JUMPDEST SWAP2 PUSH1 0x60 PUSH1 0xFF DUP2 DUP4 ADD MLOAD AND SWAP1 DUP4 ADD MSTORE PUSH1 0x80 DUP1 DUP3 ADD MLOAD SWAP1 DUP4 ADD MSTORE PUSH1 0xA0 DUP1 SWAP2 ADD MLOAD SWAP2 ADD MSTORE SWAP7 ADD SWAP3 ADD SWAP7 ADD SWAP6 SWAP3 SWAP2 SWAP1 SWAP3 PUSH2 0xAFF JUMP JUMPDEST PUSH1 0x6 DUP7 PUSH1 0x1 SWAP3 PUSH2 0xB90 DUP6 SWAP11 SWAP10 SWAP11 PUSH2 0x1455 JUMP JUMPDEST DUP2 MSTORE ADD SWAP3 ADD SWAP3 ADD SWAP2 SWAP1 SWAP6 SWAP5 SWAP6 PUSH2 0xAD1 JUMP JUMPDEST CALLVALUE PUSH2 0x19 JUMPI PUSH1 0x0 CALLDATASIZE PUSH1 0x3 NOT ADD SLT PUSH2 0x19 JUMPI PUSH1 0x0 SLOAD PUSH1 0x1 PUSH1 0x1 PUSH1 0xA0 SHL SUB SWAP1 PUSH2 0xBCB SWAP1 DUP3 AND CALLER EQ PUSH2 0x1323 JUMP JUMPDEST PUSH32 0x0 JUMPDEST PUSH1 0x3 SLOAD DUP1 ISZERO PUSH2 0x8BA JUMPI PUSH1 0x0 NOT DUP2 ADD SWAP1 DUP2 GT PUSH2 0xC7D JUMPI PUSH2 0xC44 PUSH1 0x5 PUSH2 0xC10 DUP4 PUSH2 0x1169 JUMP JUMPDEST POP ADD SLOAD PUSH2 0xC3E DUP5 PUSH2 0xC39 DUP8 PUSH2 0xC31 DUP2 PUSH2 0xC28 DUP10 PUSH2 0x1169 JUMP JUMPDEST POP SLOAD AND SWAP8 PUSH2 0x1169 JUMP JUMPDEST POP SLOAD AND PUSH2 0x1640 JUMP JUMPDEST PUSH2 0x1310 JUMP JUMPDEST SWAP1 PUSH2 0x12BE JUMP JUMPDEST DUP1 ISZERO SWAP2 DUP3 ISZERO PUSH2 0xC56 JUMPI JUMPDEST POP POP POP PUSH2 0xBED JUMP JUMPDEST PUSH1 0x0 SWAP3 DUP4 SWAP3 DUP4 SWAP3 DUP4 SWAP3 DUP4 SWAP1 PUSH2 0xC74 JUMPI JUMPDEST CALL ISZERO PUSH2 0x801 JUMPI DUP3 DUP1 DUP1 PUSH2 0xC4E JUMP JUMPDEST POP PUSH2 0x8FC PUSH2 0xC66 JUMP JUMPDEST PUSH4 0x4E487B71 PUSH1 0xE0 SHL PUSH1 0x0 MSTORE PUSH1 0x11 PUSH1 0x4 MSTORE PUSH1 0x24 PUSH1 0x0 REVERT JUMPDEST CALLVALUE PUSH2 0x19 JUMPI PUSH1 0x0 CALLDATASIZE PUSH1 0x3 NOT ADD SLT PUSH2 0x19 JUMPI PUSH1 0x20 PUSH1 0x40 MLOAD PUSH32 0x0 DUP2 MSTORE RETURN JUMPDEST CALLVALUE PUSH2 0x19 JUMPI PUSH1 0x0 CALLDATASIZE PUSH1 0x3 NOT ADD SLT PUSH2 0x19 JUMPI PUSH1 0x20 PUSH1 0x40 MLOAD PUSH32 0x0 DUP2 MSTORE RETURN JUMPDEST CALLVALUE PUSH2 0x19 JUMPI PUSH1 0x20 CALLDATASIZE PUSH1 0x3 NOT ADD SLT PUSH2 0x19 JUMPI PUSH1 0x20 DUP1 PUSH2 0x918 PUSH2 0x751 PUSH2 0x10A0 JUMP JUMPDEST CALLVALUE PUSH2 0x19 JUMPI PUSH1 0x40 CALLDATASIZE PUSH1 0x3 NOT ADD SLT PUSH2 0x19 JUMPI PUSH2 0xD41 PUSH2 0x10A0 JUMP JUMPDEST PUSH1 0x24 CALLDATALOAD SWAP1 PUSH1 0x1 DUP1 PUSH1 0xA0 SHL SUB DUP1 SWAP2 AND PUSH1 0x0 MSTORE PUSH1 0x5 PUSH1 0x20 MSTORE PUSH1 0x40 PUSH1 0x0 KECCAK256 DUP1 SLOAD DUP4 LT ISZERO PUSH2 0x19 JUMPI PUSH1 0x20 SWAP3 PUSH2 0xD71 SWAP2 PUSH2 0x10B6 JUMP JUMPDEST SWAP2 SWAP1 SLOAD PUSH1 0x40 MLOAD SWAP3 PUSH1 0x3 SHL SHR AND DUP2 MSTORE RETURN JUMPDEST CALLVALUE PUSH2 0x19 JUMPI PUSH1 0x0 CALLDATASIZE PUSH1 0x3 NOT ADD SLT PUSH2 0x19 JUMPI PUSH2 0xD9B CALLER PUSH2 0x14B1 JUMP JUMPDEST PUSH1 0x20 DUP2 ADD MLOAD PUSH2 0xDF5 JUMPI PUSH1 0x0 DUP1 DUP1 PUSH2 0xDE4 PUSH1 0xA0 DUP3 SWAP6 ADD MLOAD PUSH2 0xC3E PUSH2 0xDBD CALLER PUSH2 0x1640 JUMP JUMPDEST PUSH32 0x0 SWAP1 PUSH2 0x1310 JUMP JUMPDEST DUP2 DUP2 ISZERO PUSH2 0x80D JUMPI CALLER SWAP1 CALL ISZERO PUSH2 0x801 JUMPI STOP JUMPDEST PUSH1 0x40 MLOAD PUSH3 0x461BCD PUSH1 0xE5 SHL DUP2 MSTORE PUSH1 0x20 PUSH1 0x4 DUP3 ADD MSTORE PUSH1 0x14 PUSH1 0x24 DUP3 ADD MSTORE PUSH20 0x53697A65206C696D6974206D757374206265203 PUSH1 0x64 SHL PUSH1 0x44 DUP3 ADD MSTORE PUSH1 0x64 SWAP1 REVERT JUMPDEST CALLVALUE PUSH2 0x19 JUMPI PUSH1 0x20 CALLDATASIZE PUSH1 0x3 NOT ADD SLT PUSH2 0x19 JUMPI PUSH1 0x0 DUP1 DUP1 DUP1 PUSH1 0x4 CALLDATALOAD DUP1 PUSH1 0xA0 PUSH2 0xE56 CALLER PUSH2 0x14B1 JUMP JUMPDEST ADD MLOAD LT ISZERO DUP1 PUSH2 0xE73 JUMPI JUMPDEST PUSH2 0xE69 SWAP1 PUSH2 0x12CB JUMP JUMPDEST PUSH2 0xDE4 DUP2 CALLER PUSH2 0x14F7 JUMP JUMPDEST POP PUSH2 0xE69 PUSH1 0xA0 PUSH2 0xE82 CALLER PUSH2 0x14B1 JUMP JUMPDEST ADD MLOAD PUSH2 0xEAE DUP4 PUSH32 0x0 PUSH2 0x12BE JUMP JUMPDEST GT ISZERO SWAP1 POP PUSH2 0xE60 JUMP JUMPDEST CALLVALUE PUSH2 0x19 JUMPI PUSH1 0x20 DUP1 PUSH1 0x3 NOT CALLDATASIZE ADD SLT PUSH2 0x19 JUMPI PUSH1 0x1 PUSH1 0x1 PUSH1 0xA0 SHL SUB DUP1 PUSH2 0xEDA PUSH2 0x10A0 JUMP JUMPDEST AND PUSH1 0x0 MSTORE PUSH1 0x4 PUSH1 0x20 MSTORE PUSH1 0x40 PUSH1 0x0 KECCAK256 SWAP2 PUSH1 0x40 MLOAD DUP1 SWAP3 PUSH1 0x20 DUP6 SLOAD SWAP3 DUP4 DUP2 MSTORE ADD SWAP5 PUSH1 0x0 MSTORE PUSH1 0x20 PUSH1 0x0 KECCAK256 SWAP3 PUSH1 0x0 SWAP2 JUMPDEST DUP4 DUP4 LT PUSH2 0xF1C JUMPI PUSH2 0x6D3 DUP7 PUSH2 0x6C7 DUP2 DUP11 SUB DUP3 PUSH2 0x11F8 JUMP JUMPDEST DUP5 SLOAD DUP2 AND DUP8 MSTORE SWAP6 DUP2 ADD SWAP6 PUSH1 0x1 SWAP5 DUP6 ADD SWAP5 SWAP1 SWAP3 ADD SWAP2 PUSH2 0xF05 JUMP JUMPDEST CALLVALUE PUSH2 0x19 JUMPI PUSH1 0x40 CALLDATASIZE PUSH1 0x3 NOT ADD SLT PUSH2 0x19 JUMPI PUSH2 0xF4E PUSH2 0x10A0 JUMP JUMPDEST PUSH1 0x24 CALLDATALOAD SWAP1 PUSH1 0x1 DUP1 PUSH1 0xA0 SHL SUB DUP1 SWAP2 AND PUSH1 0x0 MSTORE PUSH1 0x4 PUSH1 0x20 MSTORE PUSH1 0x40 PUSH1 0x0 KECCAK256 DUP1 SLOAD DUP4 LT ISZERO PUSH2 0x19 JUMPI PUSH1 0x20 SWAP3 PUSH2 0xD71 SWAP2 PUSH2 0x10B6 JUMP JUMPDEST CALLVALUE PUSH2 0x19 JUMPI PUSH1 0x20 DUP1 PUSH1 0x3 NOT CALLDATASIZE ADD SLT PUSH2 0x19 JUMPI PUSH1 0x1 PUSH1 0x1 PUSH1 0x40 SHL SUB PUSH1 0x4 CALLDATALOAD DUP2 DUP2 GT PUSH2 0x19 JUMPI PUSH2 0xFB0 SWAP1 CALLDATASIZE SWAP1 PUSH1 0x4 ADD PUSH2 0x1073 JUMP JUMPDEST SWAP1 PUSH1 0x2 PUSH2 0xFC2 PUSH2 0x192 PUSH2 0x18D CALLER PUSH2 0x1ABD JUMP JUMPDEST POP ADD SWAP3 DUP3 GT PUSH2 0x46E JUMPI PUSH2 0xFDF DUP3 PUSH2 0xFD9 DUP6 SLOAD PUSH2 0x1188 JUMP JUMPDEST DUP6 PUSH2 0x13FD JUMP JUMPDEST PUSH1 0x0 SWAP4 PUSH1 0x1F DUP4 GT PUSH1 0x1 EQ PUSH2 0x100E JUMPI POP PUSH2 0x9C7 SWAP3 SWAP4 DUP3 SWAP2 PUSH1 0x0 SWAP3 PUSH2 0x1003 JUMPI POP POP PUSH2 0x1442 JUMP JUMPDEST ADD CALLDATALOAD SWAP1 POP DUP5 DUP1 PUSH2 0x337 JUMP JUMPDEST SWAP1 PUSH1 0x1F NOT DUP4 AND SWAP5 DUP5 PUSH1 0x0 MSTORE PUSH1 0x20 PUSH1 0x0 KECCAK256 SWAP3 PUSH1 0x0 SWAP1 JUMPDEST DUP8 DUP3 LT PUSH2 0x105B JUMPI POP POP DUP4 PUSH1 0x1 SWAP6 SWAP7 LT PUSH2 0x1041 JUMPI JUMPDEST POP POP POP DUP2 SHL ADD SWAP1 SSTORE STOP JUMPDEST ADD CALLDATALOAD PUSH1 0x0 NOT PUSH1 0x3 DUP5 SWAP1 SHL PUSH1 0xF8 AND SHR NOT AND SWAP1 SSTORE DUP4 DUP1 DUP1 PUSH2 0x1037 JUMP JUMPDEST DUP1 PUSH1 0x1 DUP5 SWAP7 DUP3 SWAP5 SWAP6 DUP8 ADD CALLDATALOAD DUP2 SSTORE ADD SWAP6 ADD SWAP3 ADD SWAP1 PUSH2 0x1023 JUMP JUMPDEST SWAP2 DUP2 PUSH1 0x1F DUP5 ADD SLT ISZERO PUSH2 0x19 JUMPI DUP3 CALLDATALOAD SWAP2 PUSH1 0x1 PUSH1 0x1 PUSH1 0x40 SHL SUB DUP4 GT PUSH2 0x19 JUMPI PUSH1 0x20 DUP4 DUP2 DUP7 ADD SWAP6 ADD ADD GT PUSH2 0x19 JUMPI JUMP JUMPDEST PUSH1 0x4 CALLDATALOAD SWAP1 PUSH1 0x1 PUSH1 0x1 PUSH1 0xA0 SHL SUB DUP3 AND DUP3 SUB PUSH2 0x19 JUMPI JUMP JUMPDEST DUP1 SLOAD DUP3 LT ISZERO PUSH2 0x10CE JUMPI PUSH1 0x0 MSTORE PUSH1 0x20 PUSH1 0x0 KECCAK256 ADD SWAP1 PUSH1 0x0 SWAP1 JUMP JUMPDEST PUSH4 0x4E487B71 PUSH1 0xE0 SHL PUSH1 0x0 MSTORE PUSH1 0x32 PUSH1 0x4 MSTORE PUSH1 0x24 PUSH1 0x0 REVERT JUMPDEST PUSH1 0x20 SWAP1 PUSH1 0x20 PUSH1 0x40 DUP2 DUP4 ADD SWAP3 DUP3 DUP2 MSTORE DUP6 MLOAD DUP1 SWAP5 MSTORE ADD SWAP4 ADD SWAP2 PUSH1 0x0 JUMPDEST DUP3 DUP2 LT PUSH2 0x110C JUMPI POP POP POP POP SWAP1 JUMP JUMPDEST DUP4 MLOAD PUSH1 0x1 PUSH1 0x1 PUSH1 0xA0 SHL SUB AND DUP6 MSTORE SWAP4 DUP2 ADD SWAP4 SWAP3 DUP2 ADD SWAP3 PUSH1 0x1 ADD PUSH2 0x10FE JUMP JUMPDEST SWAP2 SWAP1 DUP3 MLOAD SWAP3 DUP4 DUP3 MSTORE PUSH1 0x0 JUMPDEST DUP5 DUP2 LT PUSH2 0x1155 JUMPI POP POP DUP3 PUSH1 0x0 PUSH1 0x20 DUP1 SWAP5 SWAP6 DUP5 ADD ADD MSTORE PUSH1 0x1F DUP1 NOT SWAP2 ADD AND ADD ADD SWAP1 JUMP JUMPDEST PUSH1 0x20 DUP2 DUP4 ADD DUP2 ADD MLOAD DUP5 DUP4 ADD DUP3 ADD MSTORE ADD PUSH2 0x1134 JUMP JUMPDEST PUSH1 0x3 SLOAD DUP2 LT ISZERO PUSH2 0x10CE JUMPI PUSH1 0x3 PUSH1 0x0 MSTORE PUSH1 0x6 PUSH1 0x20 PUSH1 0x0 KECCAK256 SWAP2 MUL ADD SWAP1 PUSH1 0x0 SWAP1 JUMP JUMPDEST SWAP1 PUSH1 0x1 DUP3 DUP2 SHR SWAP3 AND DUP1 ISZERO PUSH2 0x11B8 JUMPI JUMPDEST PUSH1 0x20 DUP4 LT EQ PUSH2 0x11A2 JUMPI JUMP JUMPDEST PUSH4 0x4E487B71 PUSH1 0xE0 SHL PUSH1 0x0 MSTORE PUSH1 0x22 PUSH1 0x4 MSTORE PUSH1 0x24 PUSH1 0x0 REVERT JUMPDEST SWAP2 PUSH1 0x7F AND SWAP2 PUSH2 0x1197 JUMP JUMPDEST PUSH1 0xC0 DUP2 ADD SWAP1 DUP2 LT PUSH1 0x1 PUSH1 0x1 PUSH1 0x40 SHL SUB DUP3 GT OR PUSH2 0x46E JUMPI PUSH1 0x40 MSTORE JUMP JUMPDEST PUSH1 0x20 DUP2 ADD SWAP1 DUP2 LT PUSH1 0x1 PUSH1 0x1 PUSH1 0x40 SHL SUB DUP3 GT OR PUSH2 0x46E JUMPI PUSH1 0x40 MSTORE JUMP JUMPDEST SWAP1 PUSH1 0x1F DUP1 NOT SWAP2 ADD AND DUP2 ADD SWAP1 DUP2 LT PUSH1 0x1 PUSH1 0x1 PUSH1 0x40 SHL SUB DUP3 GT OR PUSH2 0x46E JUMPI PUSH1 0x40 MSTORE JUMP JUMPDEST SWAP1 PUSH1 0x40 MLOAD SWAP2 DUP3 PUSH1 0x0 DUP3 SLOAD PUSH2 0x122C DUP2 PUSH2 0x1188 JUMP JUMPDEST SWAP1 DUP2 DUP5 MSTORE PUSH1 0x20 SWAP5 PUSH1 0x1 SWAP2 PUSH1 0x1 DUP2 AND SWAP1 DUP2 PUSH1 0x0 EQ PUSH2 0x129C JUMPI POP PUSH1 0x1 EQ PUSH2 0x125D JUMPI JUMPDEST POP POP POP PUSH2 0x125B SWAP3 POP SUB DUP4 PUSH2 0x11F8 JUMP JUMPDEST JUMP JUMPDEST PUSH1 0x0 SWAP1 DUP2 MSTORE DUP6 DUP2 KECCAK256 SWAP6 SWAP4 POP SWAP2 SWAP1 JUMPDEST DUP2 DUP4 LT PUSH2 0x1284 JUMPI POP POP PUSH2 0x125B SWAP4 POP DUP3 ADD ADD CODESIZE DUP1 DUP1 PUSH2 0x124C JUMP JUMPDEST DUP6 SLOAD DUP9 DUP5 ADD DUP6 ADD MSTORE SWAP5 DUP6 ADD SWAP5 DUP8 SWAP5 POP SWAP2 DUP4 ADD SWAP2 PUSH2 0x126B JUMP JUMPDEST SWAP3 POP POP POP PUSH2 0x125B SWAP5 SWAP3 POP PUSH1 0xFF NOT AND DUP3 DUP5 ADD MSTORE ISZERO ISZERO PUSH1 0x5 SHL DUP3 ADD ADD CODESIZE DUP1 DUP1 PUSH2 0x124C JUMP JUMPDEST SWAP2 SWAP1 DUP3 ADD DUP1 SWAP3 GT PUSH2 0xC7D JUMPI JUMP JUMPDEST ISZERO PUSH2 0x12D2 JUMPI JUMP JUMPDEST PUSH1 0x40 MLOAD PUSH3 0x461BCD PUSH1 0xE5 SHL DUP2 MSTORE PUSH1 0x20 PUSH1 0x4 DUP3 ADD MSTORE PUSH1 0x16 PUSH1 0x24 DUP3 ADD MSTORE PUSH22 0x135A5B9A5B5D5B481CDD185AD9481C995C5D5A5C9959 PUSH1 0x52 SHL PUSH1 0x44 DUP3 ADD MSTORE PUSH1 0x64 SWAP1 REVERT JUMPDEST DUP2 DUP2 MUL SWAP3 SWAP2 DUP2 ISZERO SWAP2 DUP5 DIV EQ OR ISZERO PUSH2 0xC7D JUMPI JUMP JUMPDEST ISZERO PUSH2 0x132A JUMPI JUMP JUMPDEST PUSH1 0x40 MLOAD PUSH3 0x461BCD PUSH1 0xE5 SHL DUP2 MSTORE PUSH1 0x20 PUSH1 0x4 DUP3 ADD MSTORE PUSH1 0xA PUSH1 0x24 DUP3 ADD MSTORE PUSH10 0x4F776E6572206F6E6C79 PUSH1 0xB0 SHL PUSH1 0x44 DUP3 ADD MSTORE PUSH1 0x64 SWAP1 REVERT JUMPDEST PUSH2 0x1365 SWAP1 PUSH2 0x14B1 JUMP JUMPDEST SWAP1 PUSH1 0x80 PUSH1 0xFF PUSH1 0x60 DUP5 ADD MLOAD AND SWAP3 ADD MLOAD SWAP3 DUP3 ISZERO PUSH1 0x0 EQ PUSH2 0x1383 JUMPI POP POP POP SWAP1 JUMP JUMPDEST PUSH1 0x1 DUP4 SWAP5 SWAP3 SWAP4 EQ PUSH1 0x0 EQ PUSH2 0x139F JUMPI POP PUSH2 0x139C SWAP3 POP PUSH2 0x1310 JUMP JUMPDEST SWAP1 JUMP JUMPDEST SWAP2 SWAP3 PUSH1 0x2 DUP2 SUB PUSH2 0x13B4 JUMPI POP PUSH2 0x139C SWAP3 POP PUSH2 0x1310 JUMP JUMPDEST PUSH1 0x3 SUB PUSH2 0x13C8 JUMPI PUSH2 0x139C SWAP3 PUSH2 0xC39 SWAP2 PUSH2 0x1310 JUMP JUMPDEST POP POP POP PUSH1 0x0 SWAP1 JUMP JUMPDEST PUSH4 0xFFFFFFFF SWAP1 DUP2 AND PUSH1 0x0 NOT ADD SWAP2 SWAP1 DUP3 GT PUSH2 0xC7D JUMPI JUMP JUMPDEST DUP2 DUP2 LT PUSH2 0x13F1 JUMPI POP POP JUMP JUMPDEST PUSH1 0x0 DUP2 SSTORE PUSH1 0x1 ADD PUSH2 0x13E6 JUMP JUMPDEST SWAP2 SWAP1 PUSH1 0x1F DUP2 GT PUSH2 0x140C JUMPI POP POP POP JUMP JUMPDEST PUSH2 0x125B SWAP3 PUSH1 0x0 MSTORE PUSH1 0x20 PUSH1 0x0 KECCAK256 SWAP1 PUSH1 0x20 PUSH1 0x1F DUP5 ADD PUSH1 0x5 SHR DUP4 ADD SWAP4 LT PUSH2 0x1438 JUMPI JUMPDEST PUSH1 0x1F ADD PUSH1 0x5 SHR ADD SWAP1 PUSH2 0x13E6 JUMP JUMPDEST SWAP1 SWAP2 POP DUP2 SWAP1 PUSH2 0x142B JUMP JUMPDEST DUP2 PUSH1 0x1 SHL SWAP2 PUSH1 0x0 NOT SWAP1 PUSH1 0x3 SHL SHR NOT AND OR SWAP1 JUMP JUMPDEST SWAP1 PUSH1 0x40 MLOAD PUSH2 0x1462 DUP2 PUSH2 0x11C2 JUMP JUMPDEST DUP3 SLOAD PUSH1 0x1 PUSH1 0x1 PUSH1 0xA0 SHL SUB AND DUP2 MSTORE PUSH1 0x1 DUP4 ADD SLOAD PUSH1 0x20 DUP3 ADD MSTORE SWAP2 DUP3 SWAP1 PUSH1 0xA0 SWAP1 PUSH1 0x5 SWAP1 PUSH2 0x148E PUSH1 0x2 DUP3 ADD PUSH2 0x1219 JUMP JUMPDEST PUSH1 0x40 DUP6 ADD MSTORE PUSH1 0xFF PUSH1 0x3 DUP3 ADD SLOAD AND PUSH1 0x60 DUP6 ADD MSTORE PUSH1 0x4 DUP2 ADD SLOAD PUSH1 0x80 DUP6 ADD MSTORE ADD SLOAD SWAP2 ADD MSTORE JUMP JUMPDEST PUSH2 0x14F1 PUSH2 0x192 PUSH2 0x18D PUSH2 0x139C SWAP4 PUSH1 0x0 PUSH1 0xA0 PUSH1 0x40 MLOAD PUSH2 0x14CE DUP2 PUSH2 0x11C2 JUMP JUMPDEST DUP3 DUP2 MSTORE DUP3 PUSH1 0x20 DUP3 ADD MSTORE PUSH1 0x60 PUSH1 0x40 DUP3 ADD MSTORE DUP3 PUSH1 0x60 DUP3 ADD MSTORE DUP3 PUSH1 0x80 DUP3 ADD MSTORE ADD MSTORE PUSH2 0x1ABD JUMP JUMPDEST POP PUSH2 0x1455 JUMP JUMPDEST PUSH2 0x1508 PUSH2 0x192 PUSH2 0x18D PUSH1 0x5 SWAP4 PUSH2 0x1ABD JUMP JUMPDEST POP ADD DUP1 SLOAD SWAP2 DUP3 SUB SWAP2 DUP3 GT PUSH2 0xC7D JUMPI SSTORE JUMP JUMPDEST SWAP1 DUP1 DUP3 EQ PUSH2 0x15E4 JUMPI PUSH2 0x152B DUP2 SLOAD PUSH2 0x1188 JUMP JUMPDEST SWAP1 PUSH1 0x1 PUSH1 0x1 PUSH1 0x40 SHL SUB DUP3 GT PUSH2 0x46E JUMPI PUSH2 0x1548 DUP3 PUSH2 0xFD9 DUP6 SLOAD PUSH2 0x1188 JUMP JUMPDEST PUSH1 0x0 SWAP1 PUSH1 0x1F DUP4 GT PUSH1 0x1 EQ PUSH2 0x1579 JUMPI PUSH2 0x156A SWAP3 SWAP2 PUSH1 0x0 SWAP2 DUP4 PUSH2 0x156E JUMPI POP POP PUSH2 0x1442 JUMP JUMPDEST SWAP1 SSTORE JUMP JUMPDEST ADD SLOAD SWAP1 POP CODESIZE DUP1 PUSH2 0x337 JUMP JUMPDEST DUP2 MSTORE PUSH1 0x20 DUP1 DUP3 KECCAK256 DUP5 DUP4 MSTORE DUP2 DUP4 KECCAK256 SWAP3 SWAP2 PUSH1 0x1F NOT DUP6 AND SWAP1 DUP4 SWAP1 JUMPDEST DUP3 DUP3 LT PUSH2 0x15CB JUMPI POP POP SWAP1 DUP5 PUSH1 0x1 SWAP6 SWAP5 SWAP4 SWAP3 LT PUSH2 0x15B2 JUMPI JUMPDEST POP POP POP DUP2 SHL ADD SWAP1 SSTORE JUMP JUMPDEST ADD SLOAD PUSH1 0x0 NOT PUSH1 0xF8 DUP5 PUSH1 0x3 SHL AND SHR NOT AND SWAP1 SSTORE CODESIZE DUP1 DUP1 PUSH2 0x15A8 JUMP JUMPDEST DUP5 SWAP6 DUP2 SWAP3 SWAP6 DUP6 ADD SLOAD DUP2 SSTORE PUSH1 0x1 DUP1 SWAP2 ADD SWAP7 ADD SWAP5 ADD SWAP1 PUSH2 0x1591 JUMP JUMPDEST POP POP JUMP JUMPDEST DUP1 SLOAD PUSH1 0x0 DUP3 SSTORE DUP1 PUSH2 0x15F7 JUMPI POP POP JUMP JUMPDEST PUSH2 0x125B SWAP2 PUSH1 0x0 MSTORE PUSH1 0x20 PUSH1 0x0 KECCAK256 SWAP1 DUP2 ADD SWAP1 PUSH2 0x13E6 JUMP JUMPDEST SWAP1 PUSH1 0x1 PUSH1 0x40 SHL DUP2 GT PUSH2 0x46E JUMPI DUP2 SLOAD SWAP1 DUP1 DUP4 SSTORE DUP2 DUP2 LT PUSH2 0x162A JUMPI POP POP POP JUMP JUMPDEST PUSH2 0x125B SWAP3 PUSH1 0x0 MSTORE PUSH1 0x20 PUSH1 0x0 KECCAK256 SWAP2 DUP3 ADD SWAP2 ADD PUSH2 0x13E6 JUMP JUMPDEST PUSH2 0x1649 SWAP1 PUSH2 0x1ABD JUMP JUMPDEST PUSH2 0x1658 PUSH2 0x14F1 PUSH2 0x192 DUP4 PUSH2 0x13D0 JUMP JUMPDEST SWAP1 PUSH1 0x3 DUP1 SLOAD SWAP1 PUSH1 0x0 NOT SWAP2 DUP3 DUP2 ADD SWAP1 DUP2 GT PUSH2 0xC7D JUMPI PUSH2 0x1675 SWAP1 PUSH2 0x1169 JUMP JUMPDEST POP PUSH2 0x1682 PUSH2 0x192 DUP6 PUSH2 0x13D0 JUMP JUMPDEST SWAP2 SWAP1 SWAP2 PUSH2 0x51A JUMPI DUP1 DUP3 SUB PUSH2 0x17C5 JUMPI JUMPDEST POP POP PUSH2 0x169F PUSH2 0x192 DUP5 PUSH2 0x13D0 JUMP JUMPDEST POP SWAP2 PUSH1 0x1 DUP1 PUSH1 0xA0 SHL SUB DUP1 SWAP4 SLOAD AND SWAP4 PUSH1 0x0 SWAP5 DUP6 MSTORE PUSH1 0x2 PUSH1 0x20 MSTORE PUSH1 0x40 DUP6 KECCAK256 PUSH4 0xFFFFFFFF DUP1 NOT SWAP3 AND DUP3 DUP3 SLOAD AND OR SWAP1 SSTORE DUP4 DUP7 MLOAD AND DUP6 MSTORE PUSH1 0x40 DUP6 KECCAK256 SWAP1 DUP2 SLOAD AND SWAP1 SSTORE DUP2 SLOAD DUP1 ISZERO PUSH2 0x17B1 JUMPI ADD SWAP1 PUSH2 0x16EE DUP3 PUSH2 0x1169 JUMP JUMPDEST PUSH2 0x179D JUMPI SWAP2 PUSH1 0x40 SWAP4 SWAP2 DUP6 PUSH1 0x5 DUP6 DUP3 PUSH2 0x139C SWAP10 SWAP8 SSTORE DUP3 PUSH1 0x1 DUP3 ADD SSTORE DUP3 PUSH1 0x2 DUP3 ADD PUSH2 0x1717 DUP2 SLOAD PUSH2 0x1188 JUMP JUMPDEST DUP1 PUSH2 0x1761 JUMPI JUMPDEST POP POP DUP5 DUP3 ADD SSTORE DUP3 PUSH1 0x4 DUP3 ADD SSTORE ADD SSTORE SSTORE DUP1 DUP6 MLOAD AND DUP3 MSTORE PUSH1 0x4 PUSH1 0x20 MSTORE DUP3 DUP3 KECCAK256 SLOAD SWAP5 DUP2 DUP2 MLOAD AND DUP4 MSTORE PUSH1 0x5 PUSH1 0x20 MSTORE PUSH2 0x1752 DUP5 DUP5 KECCAK256 PUSH2 0x15E8 JUMP JUMPDEST MLOAD AND DUP2 MSTORE PUSH1 0x4 PUSH1 0x20 MSTORE KECCAK256 PUSH2 0x15E8 JUMP JUMPDEST DUP3 PUSH1 0x1F DUP3 GT PUSH1 0x1 EQ PUSH2 0x1779 JUMPI POP POP SSTORE JUMPDEST DUP3 CODESIZE DUP1 PUSH2 0x171D JUMP JUMPDEST SWAP1 SWAP2 DUP1 DUP3 MSTORE PUSH2 0x1796 PUSH1 0x1F PUSH1 0x20 DUP5 KECCAK256 SWAP5 ADD DUP8 SHR DUP5 ADD PUSH1 0x1 DUP6 ADD PUSH2 0x13E6 JUMP JUMPDEST SSTORE SSTORE PUSH2 0x1771 JUMP JUMPDEST PUSH4 0x4E487B71 PUSH1 0xE0 SHL DUP6 MSTORE PUSH1 0x4 DUP6 SWAP1 MSTORE PUSH1 0x24 DUP6 REVERT JUMPDEST PUSH4 0x4E487B71 PUSH1 0xE0 SHL DUP6 MSTORE PUSH1 0x31 PUSH1 0x4 MSTORE PUSH1 0x24 DUP6 REVERT JUMPDEST DUP1 SLOAD DUP3 SLOAD PUSH1 0x1 PUSH1 0x1 PUSH1 0xA0 SHL SUB NOT AND PUSH1 0x1 PUSH1 0x1 PUSH1 0xA0 SHL SUB SWAP2 SWAP1 SWAP2 AND OR DUP3 SSTORE PUSH1 0x1 DUP1 DUP3 ADD SLOAD SWAP1 DUP4 ADD SSTORE PUSH1 0x5 SWAP1 DUP2 SWAP1 PUSH2 0x1801 PUSH1 0x2 DUP1 DUP4 ADD SWAP1 DUP7 ADD PUSH2 0x1519 JUMP JUMPDEST DUP5 DUP5 ADD PUSH1 0xFF DUP7 DUP4 ADD SLOAD AND PUSH1 0xFF NOT DUP3 SLOAD AND OR SWAP1 SSTORE PUSH1 0x4 DUP2 ADD SLOAD PUSH1 0x4 DUP6 ADD SSTORE ADD SLOAD SWAP2 ADD SSTORE CODESIZE DUP1 PUSH2 0x1691 JUMP JUMPDEST DUP1 SLOAD DUP1 ISZERO PUSH2 0x1857 JUMPI PUSH1 0x0 NOT ADD SWAP1 PUSH2 0x1841 DUP3 DUP3 PUSH2 0x10B6 JUMP JUMPDEST DUP2 SLOAD SWAP1 PUSH1 0x1 DUP1 PUSH1 0xA0 SHL SUB SWAP1 PUSH1 0x3 SHL SHL NOT AND SWAP1 SSTORE SSTORE JUMP JUMPDEST PUSH4 0x4E487B71 PUSH1 0xE0 SHL PUSH1 0x0 MSTORE PUSH1 0x31 PUSH1 0x4 MSTORE PUSH1 0x24 PUSH1 0x0 REVERT JUMPDEST SWAP1 PUSH1 0x0 JUMPDEST PUSH1 0x1 DUP1 PUSH1 0xA0 SHL SUB DUP1 DUP5 AND DUP1 PUSH1 0x0 MSTORE PUSH1 0x5 PUSH1 0x20 DUP2 DUP2 MSTORE PUSH1 0x40 SWAP3 DUP4 PUSH1 0x0 KECCAK256 DUP1 SLOAD DUP8 LT ISZERO PUSH2 0x193A JUMPI DUP7 PUSH2 0x18A0 SWAP2 PUSH2 0x10B6 JUMP JUMPDEST SWAP1 SLOAD PUSH1 0x3 SWAP7 SWAP2 DUP8 SHL SHR DUP2 AND DUP9 DUP3 AND EQ PUSH2 0x18C1 JUMPI POP POP POP POP POP POP PUSH1 0x1 ADD PUSH2 0x1871 JUMP JUMPDEST SWAP3 SWAP6 SWAP2 SWAP5 SWAP8 POP DUP1 SWAP4 SWAP7 POP PUSH1 0x0 MSTORE DUP5 DUP5 MSTORE DUP6 PUSH1 0x0 KECCAK256 SWAP2 DUP3 SLOAD SWAP1 PUSH1 0x0 NOT DUP3 ADD SWAP2 DUP3 GT PUSH2 0xC7D JUMPI PUSH2 0x125B SWAP9 PUSH2 0x18F9 PUSH2 0x1910 SWAP4 PUSH2 0x192E SWAP7 PUSH2 0x10B6 JUMP JUMPDEST SWAP1 SLOAD SWAP2 SHL SHR AND SWAP2 DUP5 PUSH1 0x0 MSTORE DUP7 DUP7 MSTORE DUP8 PUSH1 0x0 KECCAK256 PUSH2 0x10B6 JUMP JUMPDEST SWAP1 SWAP2 SWAP1 PUSH1 0x1 DUP1 PUSH1 0xA0 SHL SUB DUP1 DUP5 SLOAD SWAP3 PUSH1 0x3 SHL SWAP4 AND DUP4 SHL SWAP3 SHL NOT AND OR SWAP1 SSTORE JUMP JUMPDEST PUSH1 0x0 MSTORE MSTORE PUSH1 0x0 KECCAK256 PUSH2 0x182A JUMP JUMPDEST POP POP POP POP POP POP POP POP POP JUMP JUMPDEST DUP1 SLOAD SWAP2 SWAP1 PUSH1 0x1 PUSH1 0x40 SHL DUP4 LT ISZERO PUSH2 0x46E JUMPI DUP3 PUSH2 0x1910 SWAP2 PUSH1 0x1 PUSH2 0x125B SWAP6 ADD DUP2 SSTORE PUSH2 0x10B6 JUMP JUMPDEST SWAP2 SWAP1 PUSH1 0x0 JUMPDEST PUSH1 0x1 DUP1 PUSH1 0xA0 SHL SUB DUP1 DUP6 AND DUP1 PUSH1 0x0 MSTORE PUSH1 0x4 SWAP1 PUSH1 0x20 SWAP1 DUP3 DUP3 MSTORE PUSH1 0x40 SWAP4 DUP5 PUSH1 0x0 KECCAK256 DUP1 SLOAD DUP8 LT ISZERO PUSH2 0x1A0D JUMPI DUP7 PUSH2 0x199E SWAP2 PUSH2 0x10B6 JUMP JUMPDEST SWAP1 SLOAD PUSH1 0x3 SWAP2 DUP3 SHL SHR DUP3 AND DUP9 DUP4 AND EQ PUSH2 0x19BE JUMPI POP POP POP POP POP POP PUSH1 0x1 ADD PUSH2 0x196D JUMP JUMPDEST SWAP2 SWAP4 SWAP6 SWAP9 POP SWAP2 SWAP4 SWAP6 POP DUP3 PUSH1 0x0 MSTORE DUP5 DUP5 MSTORE DUP6 PUSH1 0x0 KECCAK256 DUP1 SLOAD SWAP1 PUSH1 0x0 NOT DUP3 ADD SWAP2 DUP3 GT PUSH2 0x19F8 JUMPI SWAP3 PUSH2 0x125B SWAP9 SWAP10 SWAP3 PUSH2 0x18F9 PUSH2 0x1910 SWAP4 PUSH2 0x192E SWAP7 PUSH2 0x10B6 JUMP JUMPDEST PUSH1 0x11 DUP8 PUSH4 0x4E487B71 PUSH1 0xE0 SHL PUSH1 0x0 MSTORE MSTORE PUSH1 0x24 PUSH1 0x0 REVERT JUMPDEST POP POP POP POP POP POP POP POP SWAP1 POP JUMP JUMPDEST SWAP2 SWAP1 PUSH1 0x0 JUMPDEST PUSH1 0x1 DUP1 PUSH1 0xA0 SHL SUB DUP1 DUP6 AND DUP1 PUSH1 0x0 MSTORE PUSH1 0x4 SWAP1 PUSH1 0x20 SWAP1 DUP3 DUP3 MSTORE PUSH1 0x40 SWAP4 DUP5 PUSH1 0x0 KECCAK256 DUP1 SLOAD DUP8 LT ISZERO PUSH2 0x1A0D JUMPI DUP7 PUSH2 0x1A4F SWAP2 PUSH2 0x10B6 JUMP JUMPDEST SWAP1 SLOAD PUSH1 0x3 SWAP2 DUP3 SHL SHR DUP3 AND DUP9 DUP4 AND EQ PUSH2 0x1A6F JUMPI POP POP POP POP POP POP PUSH1 0x1 ADD PUSH2 0x1A1E JUMP JUMPDEST SWAP2 SWAP4 SWAP6 SWAP9 POP SWAP2 SWAP4 SWAP6 PUSH2 0x1A8C SWAP1 DUP5 PUSH1 0x0 MSTORE PUSH1 0x5 DUP7 MSTORE DUP8 PUSH1 0x0 KECCAK256 PUSH2 0x1945 JUMP JUMPDEST DUP3 PUSH1 0x0 MSTORE DUP5 DUP5 MSTORE DUP6 PUSH1 0x0 KECCAK256 DUP1 SLOAD SWAP1 PUSH1 0x0 NOT DUP3 ADD SWAP2 DUP3 GT PUSH2 0x19F8 JUMPI SWAP3 PUSH2 0x125B SWAP9 SWAP10 SWAP3 PUSH2 0x18F9 PUSH2 0x1910 SWAP4 PUSH2 0x192E SWAP7 PUSH2 0x10B6 JUMP JUMPDEST PUSH1 0x1 PUSH1 0x1 PUSH1 0xA0 SHL SUB AND PUSH1 0x0 SWAP1 DUP2 MSTORE PUSH1 0x2 PUSH1 0x20 MSTORE PUSH1 0x40 SWAP1 KECCAK256 SLOAD PUSH4 0xFFFFFFFF AND DUP1 ISZERO PUSH2 0x1AE4 JUMPI SWAP1 JUMP JUMPDEST PUSH1 0x40 MLOAD PUSH3 0x461BCD PUSH1 0xE5 SHL DUP2 MSTORE PUSH1 0x20 PUSH1 0x4 DUP3 ADD MSTORE PUSH1 0x14 PUSH1 0x24 DUP3 ADD MSTORE PUSH20 0x151BDDD95C88191BD95CC81B9BDD08195E1A5CDD PUSH1 0x62 SHL PUSH1 0x44 DUP3 ADD MSTORE PUSH1 0x64 SWAP1 REVERT INVALID LOG2 PUSH5 0x6970667358 0x22 SLT KECCAK256 SWAP12 PUSH26 0x73CF977CB019DB198137EC2A47F1E87606A702D45F353FE1DED0 0xF9 CALLCODE CHAINID 0xA7 PUSH5 0x736F6C6343 STOP ADDMOD XOR STOP CALLER "},"methodIdentifiers":{"FAILED_TASK_PENALTY()":"a91a2182","HOST_REQUEST_FEE()":"50a6ab56","TOWER_INITIAL_STAKE()":"4ee850cf","acceptHost(address)":"940f736f","addStake()":"5a627dbc","clear()":"52efea6e","deleteHost(address)":"66b89b20","deleteTower()":"264632ce","getTowerFee(address,uint256,uint256)":"db5daade","getTowerHosts(address)":"c435bdec","getTowerPendingHosts(address)":"1bb65821","getTowerPublicConnection(address)":"aaeed529","getTowerSizeLimit(address)":"48be1f28","getTowerStake(address)":"818a3a8f","getTowers()":"54efc174","owner()":"8da5cb5b","penaltyForFailedTask(address,address)":"57e1282e","registerAsTower(uint256,string,uint256,uint8)":"f7d04456","registerMeForTower(address)":"8d39e55d","rejectHost(address)":"920372d9","schedulerContractAddress()":"db88497c","setSchedulerContractAddress(address)":"e9393c86","towerActiveHosts(address,uint256)":"47fa822f","towerPendingHosts(address,uint256)":"1b149c73","towers(uint256)":"f6291f25","towersIndex(address)":"b1f2d6ac","updateFee(uint8,uint256)":"7052a5e5","updatePublicConnection(string)":"14ac563f","updateSizeLimit(uint256)":"fcdc8b8e","withdrawStake(uint256)":"25d5971f"}}}}}