{"contracts/MecaContract.sol":{"MecaDaoContract":{"abi":[{"inputs":[],"stateMutability":"nonpayable","type":"constructor"},{"stateMutability":"payable","type":"fallback"},{"inputs":[],"name":"clear","outputs":[],"stateMutability":"nonpayable","type":"function"},{"inputs":[],"name":"getSchedulerContract","outputs":[{"internalType":"address","name":"","type":"address"}],"stateMutability":"view","type":"function"},{"inputs":[],"name":"owner","outputs":[{"internalType":"address payable","name":"","type":"address"}],"stateMutability":"view","type":"function"},{"inputs":[{"internalType":"address","name":"newSchedulerContract","type":"address"}],"name":"setSchedulerContract","outputs":[],"stateMutability":"nonpayable","type":"function"},{"stateMutability":"payable","type":"receive"}],"evm":{"bytecode":{"linkReferences":{},"object":"6080806040523461002f5760018060a01b0319338160005416176000556001541660015561025990816100358239f35b600080fdfe6040608081526004361015610020575b50361561001b57600080fd5b600080fd5b600090813560e01c8063521473b01461019657806352efea6e146100ab57806363f609711461008357638da5cb5b14610059575061000f565b3461007f578160031936011261007f57905490516001600160a01b039091168152602090f35b5080fd5b503461007f578160031936011261007f5760015490516001600160a01b039091168152602090f35b503461007f578160031936011261007f578180808060018060a01b038154166100d58133146101ea565b600180546001600160a01b031916905547905af13d156101915767ffffffffffffffff3d81811161017d57835191601f8201601f19908116603f011683019081118382101761016957845281528360203d92013e5b15610133575080f35b5162461bcd60e51b815260206004820152601060248201526f2a3930b739b332b9103330b4b632b21760811b6044820152606490fd5b634e487b7160e01b86526041600452602486fd5b634e487b7160e01b85526041600452602485fd5b61012a565b82346101e75760203660031901126101e7576004356001600160a01b03818116918290036101e3576101cc9083541633146101ea565b600180546001600160a01b03191691909117905580f35b8280fd5b80fd5b156101f157565b60405162461bcd60e51b815260206004820152600a6024820152694f776e6572206f6e6c7960b01b6044820152606490fdfea26469706673582212204d1f8375c0ad819f5002eac0329eaece68c32e964ee1b1b391da9dbaf2d86c8864736f6c63430008180033","opcodes":"PUSH1 0x80 DUP1 PUSH1 0x40 MSTORE CALLVALUE PUSH2 0x2F JUMPI PUSH1 0x1 DUP1 PUSH1 0xA0 SHL SUB NOT CALLER DUP2 PUSH1 0x0 SLOAD AND OR PUSH1 0x0 SSTORE PUSH1 0x1 SLOAD AND PUSH1 0x1 SSTORE PUSH2 0x259 SWAP1 DUP2 PUSH2 0x35 DUP3 CODECOPY RETURN JUMPDEST PUSH1 0x0 DUP1 REVERT INVALID PUSH1 0x40 PUSH1 0x80 DUP2 MSTORE PUSH1 0x4 CALLDATASIZE LT ISZERO PUSH2 0x20 JUMPI JUMPDEST POP CALLDATASIZE ISZERO PUSH2 0x1B JUMPI PUSH1 0x0 DUP1 REVERT JUMPDEST PUSH1 0x0 DUP1 REVERT JUMPDEST PUSH1 0x0 SWAP1 DUP2 CALLDATALOAD PUSH1 0xE0 SHR DUP1 PUSH4 0x521473B0 EQ PUSH2 0x196 JUMPI DUP1 PUSH4 0x52EFEA6E EQ PUSH2 0xAB JUMPI DUP1 PUSH4 0x63F60971 EQ PUSH2 0x83 JUMPI PUSH4 0x8DA5CB5B EQ PUSH2 0x59 JUMPI POP PUSH2 0xF JUMP JUMPDEST CALLVALUE PUSH2 0x7F JUMPI DUP2 PUSH1 0x3 NOT CALLDATASIZE ADD SLT PUSH2 0x7F JUMPI SWAP1 SLOAD SWAP1 MLOAD PUSH1 0x1 PUSH1 0x1 PUSH1 0xA0 SHL SUB SWAP1 SWAP2 AND DUP2 MSTORE PUSH1 0x20 SWAP1 RETURN JUMPDEST POP DUP1 REVERT JUMPDEST POP CALLVALUE PUSH2 0x7F JUMPI DUP2 PUSH1 0x3 NOT CALLDATASIZE ADD SLT PUSH2 0x7F JUMPI PUSH1 0x1 SLOAD SWAP1 MLOAD PUSH1 0x1 PUSH1 0x1 PUSH1 0xA0 SHL SUB SWAP1 SWAP2 AND DUP2 MSTORE PUSH1 0x20 SWAP1 RETURN JUMPDEST POP CALLVALUE PUSH2 0x7F JUMPI DUP2 PUSH1 0x3 NOT CALLDATASIZE ADD SLT PUSH2 0x7F JUMPI DUP2 DUP1 DUP1 DUP1 PUSH1 0x1 DUP1 PUSH1 0xA0 SHL SUB DUP2 SLOAD AND PUSH2 0xD5 DUP2 CALLER EQ PUSH2 0x1EA JUMP JUMPDEST PUSH1 0x1 DUP1 SLOAD PUSH1 0x1 PUSH1 0x1 PUSH1 0xA0 SHL SUB NOT AND SWAP1 SSTORE SELFBALANCE SWAP1 GAS CALL RETURNDATASIZE ISZERO PUSH2 0x191 JUMPI PUSH8 0xFFFFFFFFFFFFFFFF RETURNDATASIZE DUP2 DUP2 GT PUSH2 0x17D JUMPI DUP4 MLOAD SWAP2 PUSH1 0x1F DUP3 ADD PUSH1 0x1F NOT SWAP1 DUP2 AND PUSH1 0x3F ADD AND DUP4 ADD SWAP1 DUP2 GT DUP4 DUP3 LT OR PUSH2 0x169 JUMPI DUP5 MSTORE DUP2 MSTORE DUP4 PUSH1 0x20 RETURNDATASIZE SWAP3 ADD RETURNDATACOPY JUMPDEST ISZERO PUSH2 0x133 JUMPI POP DUP1 RETURN JUMPDEST MLOAD PUSH3 0x461BCD PUSH1 0xE5 SHL DUP2 MSTORE PUSH1 0x20 PUSH1 0x4 DUP3 ADD MSTORE PUSH1 0x10 PUSH1 0x24 DUP3 ADD MSTORE PUSH16 0x2A3930B739B332B9103330B4B632B217 PUSH1 0x81 SHL PUSH1 0x44 DUP3 ADD MSTORE PUSH1 0x64 SWAP1 REVERT JUMPDEST PUSH4 0x4E487B71 PUSH1 0xE0 SHL DUP7 MSTORE PUSH1 0x41 PUSH1 0x4 MSTORE PUSH1 0x24 DUP7 REVERT JUMPDEST PUSH4 0x4E487B71 PUSH1 0xE0 SHL DUP6 MSTORE PUSH1 0x41 PUSH1 0x4 MSTORE PUSH1 0x24 DUP6 REVERT JUMPDEST PUSH2 0x12A JUMP JUMPDEST DUP3 CALLVALUE PUSH2 0x1E7 JUMPI PUSH1 0x20 CALLDATASIZE PUSH1 0x3 NOT ADD SLT PUSH2 0x1E7 JUMPI PUSH1 0x4 CALLDATALOAD PUSH1 0x1 PUSH1 0x1 PUSH1 0xA0 SHL SUB DUP2 DUP2 AND SWAP2 DUP3 SWAP1 SUB PUSH2 0x1E3 JUMPI PUSH2 0x1CC SWAP1 DUP4 SLOAD AND CALLER EQ PUSH2 0x1EA JUMP JUMPDEST PUSH1 0x1 DUP1 SLOAD PUSH1 0x1 PUSH1 0x1 PUSH1 0xA0 SHL SUB NOT AND SWAP2 SWAP1 SWAP2 OR SWAP1 SSTORE DUP1 RETURN JUMPDEST DUP3 DUP1 REVERT JUMPDEST DUP1 REVERT JUMPDEST ISZERO PUSH2 0x1F1 JUMPI JUMP JUMPDEST PUSH1 0x40 MLOAD PUSH3 0x461BCD PUSH1 0xE5 SHL DUP2 MSTORE PUSH1 0x20 PUSH1 0x4 DUP3 ADD MSTORE PUSH1 0xA PUSH1 0x24 DUP3 ADD MSTORE PUSH10 0x4F776E6572206F6E6C79 PUSH1 0xB0 SHL PUSH1 0x44 DUP3 ADD MSTORE PUSH1 0x64 SWAP1 REVERT INVALID LOG2 PUSH5 0x6970667358 0x22 SLT KECCAK256 0x4D 0x1F DUP4 PUSH22 0xC0AD819F5002EAC0329EAECE68C32E964EE1B1B391DA SWAP14 0xBA CALLCODE 0xD8 PUSH13 0x8864736F6C6343000818003300 "},"methodIdentifiers":{"clear()":"52efea6e","getSchedulerContract()":"63f60971","owner()":"8da5cb5b","setSchedulerContract(address)":"521473b0"}}}}}